{"abi":[{"type":"constructor","inputs":[{"name":"_tuto","type":"address","internalType":"address"},{"name":"_usdc","type":"address","internalType":"address"},{"name":"_initialOwner","type":"address","internalType":"address"}],"stateMutability":"nonpayable"},{"type":"function","name":"claim","inputs":[],"outputs":[],"stateMutability":"nonpayable"},{"type":"function","name":"compound","inputs":[],"outputs":[],"stateMutability":"nonpayable"},{"type":"function","name":"compoundForAccount","inputs":[{"name":"_account","type":"address","internalType":"address"}],"outputs":[],"stateMutability":"nonpayable"},{"type":"function","name":"depositUsdc","inputs":[{"name":"_amount","type":"uint256","internalType":"uint256"}],"outputs":[],"stateMutability":"nonpayable"},{"type":"function","name":"feeTutoTracker","inputs":[],"outputs":[{"name":"","type":"address","internalType":"address"}],"stateMutability":"view"},{"type":"function","name":"feeUsdcTracker","inputs":[],"outputs":[{"name":"","type":"address","internalType":"address"}],"stateMutability":"view"},{"type":"function","name":"handleRewards","inputs":[{"name":"_shouldClaimUsdc","type":"bool","internalType":"bool"},{"name":"_shouldDepositUsdc","type":"bool","internalType":"bool"}],"outputs":[],"stateMutability":"nonpayable"},{"type":"function","name":"initialize","inputs":[{"name":"_feeTutoTracker","type":"address","internalType":"address"},{"name":"_feeUsdcTracker","type":"address","internalType":"address"},{"name":"_balanceOracle","type":"address","internalType":"address"}],"outputs":[],"stateMutability":"nonpayable"},{"type":"function","name":"isInitialized","inputs":[],"outputs":[{"name":"","type":"bool","internalType":"bool"}],"stateMutability":"view"},{"type":"function","name":"owner","inputs":[],"outputs":[{"name":"","type":"address","internalType":"address"}],"stateMutability":"view"},{"type":"function","name":"renounceOwnership","inputs":[],"outputs":[],"stateMutability":"nonpayable"},{"type":"function","name":"setOracleAddress","inputs":[{"name":"_balanceOracle","type":"address","internalType":"address"}],"outputs":[],"stateMutability":"nonpayable"},{"type":"function","name":"stakeTuto","inputs":[{"name":"_amount","type":"uint256","internalType":"uint256"}],"outputs":[],"stateMutability":"nonpayable"},{"type":"function","name":"transferOwnership","inputs":[{"name":"newOwner","type":"address","internalType":"address"}],"outputs":[],"stateMutability":"nonpayable"},{"type":"function","name":"tuto","inputs":[],"outputs":[{"name":"","type":"address","internalType":"address"}],"stateMutability":"view"},{"type":"function","name":"unstakeTuto","inputs":[{"name":"_amount","type":"uint256","internalType":"uint256"}],"outputs":[],"stateMutability":"nonpayable"},{"type":"function","name":"usdc","inputs":[],"outputs":[{"name":"","type":"address","internalType":"address"}],"stateMutability":"view"},{"type":"function","name":"withdrawToken","inputs":[{"name":"_token","type":"address","internalType":"address"},{"name":"_account","type":"address","internalType":"address"},{"name":"_amount","type":"uint256","internalType":"uint256"}],"outputs":[],"stateMutability":"nonpayable"},{"type":"function","name":"withdrawUsdc","inputs":[{"name":"_amount","type":"uint256","internalType":"uint256"}],"outputs":[],"stateMutability":"nonpayable"},{"type":"event","name":"DepositUsdc","inputs":[{"name":"account","type":"address","indexed":false,"internalType":"address"},{"name":"amount","type":"uint256","indexed":false,"internalType":"uint256"}],"anonymous":false},{"type":"event","name":"OwnershipTransferred","inputs":[{"name":"previousOwner","type":"address","indexed":true,"internalType":"address"},{"name":"newOwner","type":"address","indexed":true,"internalType":"address"}],"anonymous":false},{"type":"event","name":"StakeTuto","inputs":[{"name":"account","type":"address","indexed":false,"internalType":"address"},{"name":"token","type":"address","indexed":false,"internalType":"address"},{"name":"amount","type":"uint256","indexed":false,"internalType":"uint256"}],"anonymous":false},{"type":"event","name":"UnstakeTuto","inputs":[{"name":"account","type":"address","indexed":false,"internalType":"address"},{"name":"token","type":"address","indexed":false,"internalType":"address"},{"name":"amount","type":"uint256","indexed":false,"internalType":"uint256"}],"anonymous":false},{"type":"event","name":"WithdrawUsdc","inputs":[{"name":"account","type":"address","indexed":false,"internalType":"address"},{"name":"amount","type":"uint256","indexed":false,"internalType":"uint256"}],"anonymous":false},{"type":"error","name":"OwnableInvalidOwner","inputs":[{"name":"owner","type":"address","internalType":"address"}]},{"type":"error","name":"OwnableUnauthorizedAccount","inputs":[{"name":"account","type":"address","internalType":"address"}]},{"type":"error","name":"ReentrancyGuardReentrantCall","inputs":[]}],"bytecode":{"object":"0x60806040523480156200001157600080fd5b50604051620012f4380380620012f4833981016040819052620000349162000117565b6001600055806001600160a01b0381166200006957604051631e4fbdf760e01b81526000600482015260240160405180910390fd5b6200007481620000a8565b5050600280546001600160a01b039384166001600160a01b0319918216179091556003805492909316911617905562000161565b600180546001600160a01b038381166001600160a01b0319831681179093556040519116919082907f8be0079c531659141344cd1fd0a4f28419497f9722a3daafe3b4186f6b6457e090600090a35050565b80516001600160a01b03811681146200011257600080fd5b919050565b6000806000606084860312156200012d57600080fd5b6200013884620000fa565b92506200014860208501620000fa565b91506200015860408501620000fa565b90509250925092565b61118380620001716000396000f3fe608060405234801561001057600080fd5b50600436106101215760003560e01c80635b06dece116100ad578063c0c53b8b11610071578063c0c53b8b14610248578063dd649d561461025b578063e7cf6c101461026e578063f2fde38b14610281578063f69e20461461029457600080fd5b80635b06dece146101f6578063715018a614610209578063755de87a146102115780638da5cb5b146102245780639f0670c41461023557600080fd5b8063392e53cd116100f4578063392e53cd146101745780633e413bee1461019d5780634c69c00f146101c85780634e71d92d146101db57806356cae6a1146101e357600080fd5b806301e336671461012657806311cd93e31461013b5780632357928e1461014e5780632a9f408314610161575b600080fd5b610139610134366004610f48565b61029c565b005b610139610149366004610f84565b6102bd565b61013961015c366004610f84565b6102dc565b61013961016f366004610f9d565b6102ee565b60015461018890600160a01b900460ff1681565b60405190151581526020015b60405180910390f35b6003546101b0906001600160a01b031681565b6040516001600160a01b039091168152602001610194565b6101396101d6366004610f9d565b610307565b610139610331565b6101396101f1366004610f84565b610436565b610139610204366004610f84565b610448565b61013961045a565b6005546101b0906001600160a01b031681565b6001546001600160a01b03166101b0565b6004546101b0906001600160a01b031681565b610139610256366004610fb8565b61046c565b6002546101b0906001600160a01b031681565b61013961027c366004611009565b61052f565b61013961028f366004610f9d565b610677565b6101396106b2565b6102a46106cd565b6102b86001600160a01b03841683836106fa565b505050565b6102c561074c565b6102cf3382610776565b6102d96001600055565b50565b6102e461074c565b6102cf3382610863565b6102f661074c565b6102fe6106cd565b6102cf81610960565b61030f6106cd565b600680546001600160a01b0319166001600160a01b0392909216919091179055565b61033961074c565b600480546040516309f4173d60e11b815233928101839052602481018390526001600160a01b03909116906313e82e7a906044016020604051808303816000875af115801561038c573d6000803e3d6000fd5b505050506040513d601f19601f820116820180604052508101906103b09190611042565b506005546040516309f4173d60e11b81526001600160a01b03838116600483018190526024830152909116906313e82e7a906044016020604051808303816000875af1158015610404573d6000803e3d6000fd5b505050506040513d601f19601f820116820180604052508101906104289190611042565b50506104346001600055565b565b61043e61074c565b6102cf3382610969565b61045061074c565b6102cf3382610a4f565b6104626106cd565b6104346000610b06565b6104746106cd565b600154600160a01b900460ff16156104dd5760405162461bcd60e51b815260206004820152602160248201527f526577617264526f757465723a20616c726561647920696e697469616c697a656044820152601960fa1b60648201526084015b60405180910390fd5b6001805460ff60a01b1916600160a01b179055600480546001600160a01b039485166001600160a01b031991821617909155600580549385169382169390931790925560068054919093169116179055565b61053761074c565b336000831561064b57600480546040516309f4173d60e11b81526001600160a01b038581169382018490526024820193909352600092909116906313e82e7a906044016020604051808303816000875af1158015610599573d6000803e3d6000fd5b505050506040513d601f19601f820116820180604052508101906105bd9190611042565b6005546040516309f4173d60e11b81526001600160a01b03868116600483018190526024830152929350600092909116906313e82e7a906044016020604051808303816000875af1158015610616573d6000803e3d6000fd5b505050506040513d601f19601f8201168201806040525081019061063a9190611042565b90506106468282610b58565b925050505b8280156106585750600081115b15610667576106678282610863565b50506106736001600055565b5050565b61067f6106cd565b6001600160a01b0381166106a957604051631e4fbdf760e01b8152600060048201526024016104d4565b6102d981610b06565b6106ba61074c565b6106c333610960565b6104346001600055565b6001546001600160a01b031633146104345760405163118cdaa760e01b81523360048201526024016104d4565b604080516001600160a01b038416602482015260448082018490528251808303909101815260649091019091526020810180516001600160e01b031663a9059cbb60e01b1790526102b8908490610bc0565b60026000540361076f57604051633ee5aeb560e01b815260040160405180910390fd5b6002600055565b600081116107965760405162461bcd60e51b81526004016104d49061105b565b6004805460025460405163098bf59d60e01b81526001600160a01b038681169482018590529182166024820152604481018590526064810193909352169063098bf59d90608401600060405180830381600087803b1580156107f757600080fd5b505af115801561080b573d6000803e3d6000fd5b5050600254604080516001600160a01b038088168252909216602083015281018490527f0498024cc9b59d9ea498c587a12e4ecbb8ea3280378c4c2f8babd479f811f2b5925060600190505b60405180910390a15050565b600081116108b35760405162461bcd60e51b815260206004820152601d60248201527f526577617264526f757465723a20696e76616c6964205f616d6f756e7400000060448201526064016104d4565b60055460405163b5f73e8d60e01b81526001600160a01b03848116600483018190526024830152604482018490529091169063b5f73e8d90606401600060405180830381600087803b15801561090857600080fd5b505af115801561091c573d6000803e3d6000fd5b5050604080516001600160a01b0386168152602081018590527f1a9a2ac939bfadf031596ef59ee22df92e5c98d280d23bfdca95a8d80d4d4f239350019050610857565b6102d981610c92565b600081116109895760405162461bcd60e51b81526004016104d49061105b565b60048054600254604051631e42d69b60e21b81526001600160a01b03868116948201859052602482019490945290831660448201526064810184905291169063790b5a6c90608401600060405180830381600087803b1580156109eb57600080fd5b505af11580156109ff573d6000803e3d6000fd5b5050600254604080516001600160a01b038088168252909216602083015281018490527f2a9101095e3bb0e9f23074f5d080b4a65cf7278d8d9a71553b1c1247b3f6dc6092506060019050610857565b600654604051635eba6e4760e01b81526001600160a01b0384811660048301526024820184905290911690635eba6e47906044016020604051808303816000875af1158015610aa2573d6000803e3d6000fd5b505050506040513d601f19601f82011682018060405250810190610ac69190611042565b50604080516001600160a01b0384168152602081018390527f0951f6155fdcd9a55f4d899265dbd193f6eb797bdc8a3725dbbe44d1e56964f79101610857565b600180546001600160a01b038381166001600160a01b0319831681179093556040519116919082907f8be0079c531659141344cd1fd0a4f28419497f9722a3daafe3b4186f6b6457e090600090a35050565b600080610b65838561109c565b905083811015610bb75760405162461bcd60e51b815260206004820152601b60248201527f536166654d6174683a206164646974696f6e206f766572666c6f77000000000060448201526064016104d4565b90505b92915050565b6000610c15826040518060400160405280602081526020017f5361666545524332303a206c6f772d6c6576656c2063616c6c206661696c6564815250856001600160a01b0316610db29092919063ffffffff16565b8051909150156102b85780806020019051810190610c3391906110bd565b6102b85760405162461bcd60e51b815260206004820152602a60248201527f5361666545524332303a204552433230206f7065726174696f6e20646964206e6044820152691bdd081cdd58d8d9595960b21b60648201526084016104d4565b600480546040516309f4173d60e11b81526001600160a01b038481169382018490526024820193909352600092909116906313e82e7a906044016020604051808303816000875af1158015610ceb573d6000803e3d6000fd5b505050506040513d601f19601f82011682018060405250810190610d0f9190611042565b6005546040516309f4173d60e11b81526001600160a01b03858116600483018190526024830152929350600092909116906313e82e7a906044016020604051808303816000875af1158015610d68573d6000803e3d6000fd5b505050506040513d601f19601f82011682018060405250810190610d8c9190611042565b90506000610d9a828461109c565b90508015610dac57610dac8482610863565b50505050565b6060610dc18484600085610dcb565b90505b9392505050565b606082471015610e2c5760405162461bcd60e51b815260206004820152602660248201527f416464726573733a20696e73756666696369656e742062616c616e636520666f6044820152651c8818d85b1b60d21b60648201526084016104d4565b843b610e7a5760405162461bcd60e51b815260206004820152601d60248201527f416464726573733a2063616c6c20746f206e6f6e2d636f6e747261637400000060448201526064016104d4565b600080866001600160a01b03168587604051610e9691906110fe565b60006040518083038185875af1925050503d8060008114610ed3576040519150601f19603f3d011682016040523d82523d6000602084013e610ed8565b606091505b5091509150610ee8828286610ef3565b979650505050505050565b60608315610f02575081610dc4565b825115610f125782518084602001fd5b8160405162461bcd60e51b81526004016104d4919061111a565b80356001600160a01b0381168114610f4357600080fd5b919050565b600080600060608486031215610f5d57600080fd5b610f6684610f2c565b9250610f7460208501610f2c565b9150604084013590509250925092565b600060208284031215610f9657600080fd5b5035919050565b600060208284031215610faf57600080fd5b610dc482610f2c565b600080600060608486031215610fcd57600080fd5b610fd684610f2c565b9250610fe460208501610f2c565b9150610ff260408501610f2c565b90509250925092565b80151581146102d957600080fd5b6000806040838503121561101c57600080fd5b823561102781610ffb565b9150602083013561103781610ffb565b809150509250929050565b60006020828403121561105457600080fd5b5051919050565b60208082526021908201527f526577617264526f757465723a20696e76616c6964205f7475746f416d6f756e6040820152601d60fa1b606082015260800190565b80820180821115610bba57634e487b7160e01b600052601160045260246000fd5b6000602082840312156110cf57600080fd5b8151610bb781610ffb565b60005b838110156110f55781810151838201526020016110dd565b50506000910152565b600082516111108184602087016110da565b9190910192915050565b60208152600082518060208401526111398160408501602087016110da565b601f01601f1916919091016040019291505056fea2646970667358221220380bdd685615cdee3d9583d750f9425863459abc2866852fec55269b8e27545064736f6c63430008140033","linkReferences":{}},"methodIdentifiers":{"claim()":"4e71d92d","compound()":"f69e2046","compoundForAccount(address)":"2a9f4083","depositUsdc(uint256)":"2357928e","feeTutoTracker()":"9f0670c4","feeUsdcTracker()":"755de87a","handleRewards(bool,bool)":"e7cf6c10","initialize(address,address,address)":"c0c53b8b","isInitialized()":"392e53cd","owner()":"8da5cb5b","renounceOwnership()":"715018a6","setOracleAddress(address)":"4c69c00f","stakeTuto(uint256)":"56cae6a1","transferOwnership(address)":"f2fde38b","tuto()":"dd649d56","unstakeTuto(uint256)":"11cd93e3","usdc()":"3e413bee","withdrawToken(address,address,uint256)":"01e33667","withdrawUsdc(uint256)":"5b06dece"},"id":0}