{"abi":[{"type":"constructor","inputs":[{"name":"_initialOwner","type":"address","internalType":"address"},{"name":"_name","type":"string","internalType":"string"},{"name":"_symbol","type":"string","internalType":"string"},{"name":"_balanceOracle","type":"address","internalType":"address"},{"name":"_handler","type":"address","internalType":"address"},{"name":"_isActive","type":"bool","internalType":"bool"}],"stateMutability":"nonpayable"},{"type":"function","name":"BASIS_POINTS_DIVISOR","inputs":[],"outputs":[{"name":"","type":"uint256","internalType":"uint256"}],"stateMutability":"view"},{"type":"function","name":"PRECISION","inputs":[],"outputs":[{"name":"","type":"uint256","internalType":"uint256"}],"stateMutability":"view"},{"type":"function","name":"allowance","inputs":[{"name":"_owner","type":"address","internalType":"address"},{"name":"_spender","type":"address","internalType":"address"}],"outputs":[{"name":"","type":"uint256","internalType":"uint256"}],"stateMutability":"view"},{"type":"function","name":"allowances","inputs":[{"name":"","type":"address","internalType":"address"},{"name":"","type":"address","internalType":"address"}],"outputs":[{"name":"","type":"uint256","internalType":"uint256"}],"stateMutability":"view"},{"type":"function","name":"approve","inputs":[{"name":"_spender","type":"address","internalType":"address"},{"name":"_amount","type":"uint256","internalType":"uint256"}],"outputs":[{"name":"","type":"bool","internalType":"bool"}],"stateMutability":"nonpayable"},{"type":"function","name":"balanceOf","inputs":[{"name":"_account","type":"address","internalType":"address"}],"outputs":[{"name":"","type":"uint256","internalType":"uint256"}],"stateMutability":"view"},{"type":"function","name":"balanceOracle","inputs":[],"outputs":[{"name":"","type":"address","internalType":"address"}],"stateMutability":"view"},{"type":"function","name":"balances","inputs":[{"name":"","type":"address","internalType":"address"}],"outputs":[{"name":"","type":"uint256","internalType":"uint256"}],"stateMutability":"view"},{"type":"function","name":"claimForAccount","inputs":[{"name":"_account","type":"address","internalType":"address"},{"name":"_receiver","type":"address","internalType":"address"}],"outputs":[{"name":"","type":"uint256","internalType":"uint256"}],"stateMutability":"nonpayable"},{"type":"function","name":"claimable","inputs":[{"name":"_account","type":"address","internalType":"address"}],"outputs":[{"name":"","type":"uint256","internalType":"uint256"}],"stateMutability":"view"},{"type":"function","name":"claimableReward","inputs":[{"name":"","type":"address","internalType":"address"}],"outputs":[{"name":"","type":"uint256","internalType":"uint256"}],"stateMutability":"view"},{"type":"function","name":"cumulativeRewardPerToken","inputs":[],"outputs":[{"name":"","type":"uint256","internalType":"uint256"}],"stateMutability":"view"},{"type":"function","name":"cumulativeRewards","inputs":[{"name":"","type":"address","internalType":"address"}],"outputs":[{"name":"","type":"uint256","internalType":"uint256"}],"stateMutability":"view"},{"type":"function","name":"decimals","inputs":[],"outputs":[{"name":"","type":"uint8","internalType":"uint8"}],"stateMutability":"pure"},{"type":"function","name":"feeBPS","inputs":[],"outputs":[{"name":"","type":"uint256","internalType":"uint256"}],"stateMutability":"view"},{"type":"function","name":"inPrivateClaimingMode","inputs":[],"outputs":[{"name":"","type":"bool","internalType":"bool"}],"stateMutability":"view"},{"type":"function","name":"inPrivateStakingMode","inputs":[],"outputs":[{"name":"","type":"bool","internalType":"bool"}],"stateMutability":"view"},{"type":"function","name":"inPrivateTransferMode","inputs":[],"outputs":[{"name":"","type":"bool","internalType":"bool"}],"stateMutability":"view"},{"type":"function","name":"initialize","inputs":[{"name":"_stableCoin","type":"address","internalType":"address"}],"outputs":[],"stateMutability":"nonpayable"},{"type":"function","name":"isHandler","inputs":[{"name":"","type":"address","internalType":"address"}],"outputs":[{"name":"","type":"bool","internalType":"bool"}],"stateMutability":"view"},{"type":"function","name":"isInitialized","inputs":[],"outputs":[{"name":"","type":"bool","internalType":"bool"}],"stateMutability":"view"},{"type":"function","name":"lastDistributionTime","inputs":[],"outputs":[{"name":"","type":"uint256","internalType":"uint256"}],"stateMutability":"view"},{"type":"function","name":"name","inputs":[],"outputs":[{"name":"","type":"string","internalType":"string"}],"stateMutability":"view"},{"type":"function","name":"oracleCallback","inputs":[{"name":"_account","type":"address","internalType":"address"},{"name":"_stakedAmount","type":"uint256","internalType":"uint256"},{"name":"_amount","type":"uint256","internalType":"uint256"}],"outputs":[],"stateMutability":"nonpayable"},{"type":"function","name":"oracleCallbackEndDay","inputs":[{"name":"_accounts","type":"address[]","internalType":"address[]"},{"name":"_stakedAmounts","type":"uint256[]","internalType":"uint256[]"}],"outputs":[],"stateMutability":"nonpayable"},{"type":"function","name":"owner","inputs":[],"outputs":[{"name":"","type":"address","internalType":"address"}],"stateMutability":"view"},{"type":"function","name":"pendingRewards","inputs":[],"outputs":[{"name":"","type":"uint256","internalType":"uint256"}],"stateMutability":"view"},{"type":"function","name":"previousCumulatedRewardPerToken","inputs":[{"name":"","type":"address","internalType":"address"}],"outputs":[{"name":"","type":"uint256","internalType":"uint256"}],"stateMutability":"view"},{"type":"function","name":"renounceOwnership","inputs":[],"outputs":[],"stateMutability":"nonpayable"},{"type":"function","name":"setFee","inputs":[{"name":"_newFee","type":"uint256","internalType":"uint256"}],"outputs":[],"stateMutability":"nonpayable"},{"type":"function","name":"setHandler","inputs":[{"name":"_handler","type":"address","internalType":"address"},{"name":"_isActive","type":"bool","internalType":"bool"}],"outputs":[],"stateMutability":"nonpayable"},{"type":"function","name":"setInPrivateModes","inputs":[{"name":"_inPrivateTransferMode","type":"bool","internalType":"bool"},{"name":"_inPrivateStakingMode","type":"bool","internalType":"bool"}],"outputs":[],"stateMutability":"nonpayable"},{"type":"function","name":"setOracleAddress","inputs":[{"name":"_balanceOracle","type":"address","internalType":"address"}],"outputs":[],"stateMutability":"nonpayable"},{"type":"function","name":"setTokensPerInterval","inputs":[{"name":"_amount","type":"uint256","internalType":"uint256"}],"outputs":[],"stateMutability":"nonpayable"},{"type":"function","name":"stableCoin","inputs":[],"outputs":[{"name":"","type":"address","internalType":"address"}],"stateMutability":"view"},{"type":"function","name":"stakeForAccount","inputs":[{"name":"_fundingAccount","type":"address","internalType":"address"},{"name":"_account","type":"address","internalType":"address"},{"name":"_amount","type":"uint256","internalType":"uint256"}],"outputs":[],"stateMutability":"nonpayable"},{"type":"function","name":"stakedAmounts","inputs":[{"name":"","type":"address","internalType":"address"}],"outputs":[{"name":"","type":"uint256","internalType":"uint256"}],"stateMutability":"view"},{"type":"function","name":"symbol","inputs":[],"outputs":[{"name":"","type":"string","internalType":"string"}],"stateMutability":"view"},{"type":"function","name":"tokensPerInterval","inputs":[],"outputs":[{"name":"","type":"uint256","internalType":"uint256"}],"stateMutability":"view"},{"type":"function","name":"totalDepositSupply","inputs":[{"name":"","type":"address","internalType":"address"}],"outputs":[{"name":"","type":"uint256","internalType":"uint256"}],"stateMutability":"view"},{"type":"function","name":"totalSupply","inputs":[],"outputs":[{"name":"","type":"uint256","internalType":"uint256"}],"stateMutability":"view"},{"type":"function","name":"transfer","inputs":[{"name":"_recipient","type":"address","internalType":"address"},{"name":"_amount","type":"uint256","internalType":"uint256"}],"outputs":[{"name":"","type":"bool","internalType":"bool"}],"stateMutability":"nonpayable"},{"type":"function","name":"transferFrom","inputs":[{"name":"_sender","type":"address","internalType":"address"},{"name":"_recipient","type":"address","internalType":"address"},{"name":"_amount","type":"uint256","internalType":"uint256"}],"outputs":[{"name":"","type":"bool","internalType":"bool"}],"stateMutability":"nonpayable"},{"type":"function","name":"transferOwnership","inputs":[{"name":"newOwner","type":"address","internalType":"address"}],"outputs":[],"stateMutability":"nonpayable"},{"type":"function","name":"unstakeForAccount","inputs":[{"name":"_account","type":"address","internalType":"address"},{"name":"_amount","type":"uint256","internalType":"uint256"},{"name":"_receiver","type":"address","internalType":"address"}],"outputs":[],"stateMutability":"nonpayable"},{"type":"function","name":"updateLastDistributionTime","inputs":[],"outputs":[],"stateMutability":"nonpayable"},{"type":"function","name":"updateRewards","inputs":[],"outputs":[],"stateMutability":"nonpayable"},{"type":"function","name":"viewFeeRevenue","inputs":[],"outputs":[{"name":"","type":"uint256","internalType":"uint256"}],"stateMutability":"view"},{"type":"function","name":"withdrawFeeRevenue","inputs":[{"name":"_amount","type":"uint256","internalType":"uint256"}],"outputs":[],"stateMutability":"nonpayable"},{"type":"event","name":"Approval","inputs":[{"name":"owner","type":"address","indexed":true,"internalType":"address"},{"name":"spender","type":"address","indexed":true,"internalType":"address"},{"name":"value","type":"uint256","indexed":false,"internalType":"uint256"}],"anonymous":false},{"type":"event","name":"Claim","inputs":[{"name":"receiver","type":"address","indexed":false,"internalType":"address"},{"name":"amount","type":"uint256","indexed":false,"internalType":"uint256"}],"anonymous":false},{"type":"event","name":"OwnershipTransferred","inputs":[{"name":"previousOwner","type":"address","indexed":true,"internalType":"address"},{"name":"newOwner","type":"address","indexed":true,"internalType":"address"}],"anonymous":false},{"type":"event","name":"TokensPerIntervalChange","inputs":[{"name":"amount","type":"uint256","indexed":false,"internalType":"uint256"}],"anonymous":false},{"type":"event","name":"Transfer","inputs":[{"name":"from","type":"address","indexed":true,"internalType":"address"},{"name":"to","type":"address","indexed":true,"internalType":"address"},{"name":"value","type":"uint256","indexed":false,"internalType":"uint256"}],"anonymous":false},{"type":"error","name":"OwnableInvalidOwner","inputs":[{"name":"owner","type":"address","internalType":"address"}]},{"type":"error","name":"OwnableUnauthorizedAccount","inputs":[{"name":"account","type":"address","internalType":"address"}]},{"type":"error","name":"ReentrancyGuardReentrantCall","inputs":[]}],"bytecode":{"object":"0x6080604052600560025560006004553480156200001b57600080fd5b506040516200273b3803806200273b8339810160408190526200003e9162000216565b6001600055856001600160a01b0381166200007357604051631e4fbdf760e01b81526000600482015260240160405180910390fd5b6200007e81620000e2565b50600a6200008d868262000361565b50600b6200009c858262000361565b50600d80546001600160a01b0319166001600160a01b0394851617905591166000908152601560205260409020805460ff1916911515919091179055506200042d915050565b600180546001600160a01b038381166001600160a01b0319831681179093556040519116919082907f8be0079c531659141344cd1fd0a4f28419497f9722a3daafe3b4186f6b6457e090600090a35050565b80516001600160a01b03811681146200014c57600080fd5b919050565b634e487b7160e01b600052604160045260246000fd5b600082601f8301126200017957600080fd5b81516001600160401b038082111562000196576200019662000151565b604051601f8301601f19908116603f01168101908282118183101715620001c157620001c162000151565b81604052838152602092508683858801011115620001de57600080fd5b600091505b83821015620002025785820183015181830184015290820190620001e3565b600093810190920192909252949350505050565b60008060008060008060c087890312156200023057600080fd5b6200023b8762000134565b60208801519096506001600160401b03808211156200025957600080fd5b620002678a838b0162000167565b965060408901519150808211156200027e57600080fd5b506200028d89828a0162000167565b9450506200029e6060880162000134565b9250620002ae6080880162000134565b915060a08701518015158114620002c457600080fd5b809150509295509295509295565b600181811c90821680620002e757607f821691505b6020821081036200030857634e487b7160e01b600052602260045260246000fd5b50919050565b601f8211156200035c57600081815260208120601f850160051c81016020861015620003375750805b601f850160051c820191505b81811015620003585782815560010162000343565b5050505b505050565b81516001600160401b038111156200037d576200037d62000151565b62000395816200038e8454620002d2565b846200030e565b602080601f831160018114620003cd5760008415620003b45750858301515b600019600386901b1c1916600185901b17855562000358565b600085815260208120601f198616915b82811015620003fe57888601518255948401946001909101908401620003dd565b50858210156200041d5787850151600019600388901b60f8161c191681555b5050505050600190811b01905550565b6122fe806200043d6000396000f3fe608060405234801561001057600080fd5b50600436106102bb5760003560e01c80635957488011610182578063a9059cbb116100e9578063dfbaefb1116100a2578063f2fde38b1161007c578063f2fde38b14610684578063f5fc507614610697578063f76033d3146106a0578063fd3c9c56146106b457600080fd5b8063dfbaefb11461064a578063e95034251461065c578063eded3fda1461067c57600080fd5b8063a9059cbb146105b1578063aaf5eb68146105c4578063b5f73e8d146105d8578063c4d66de8146105eb578063c5fa2730146105fe578063dd62ed3e1461061157600080fd5b8063853b9dca1161013b578063853b9dca146105425780638da5cb5b1461055557806395d89b411461057a578063992642e5146105825780639cb7de4b14610595578063a8d93627146105a857600080fd5b806359574880146104cf57806369558c91146104e257806369fe0e2d146104f557806370a0823114610508578063715018a61461053157806375b173501461053957600080fd5b806333080b6e1161022657806344a08411116101df57806344a084111461041b57806346ea87af1461043b57806349a3493f1461045e5780634c69c00f14610471578063552ce1dc1461048457806355b6ed5c146104a457600080fd5b806333080b6e146103b85780633792def3146103cb578063392e53cd146103eb5780633ae6d6eb146103f85780633e158b0c14610400578063402914f51461040857600080fd5b806318160ddd1161027857806318160ddd1461034f57806318e20a03146103585780631a1c6e531461036d57806323b872dd1461037657806327e235e314610389578063313ce567146103a957600080fd5b806304bfd609146102c057806306fdde03146102db578063095ea7b3146102f057806310c1c10314610313578063126082cf1461033357806313e82e7a1461033c575b600080fd5b6102c86106c7565b6040519081526020015b60405180910390f35b6102e36106d8565b6040516102d29190611d58565b6103036102fe366004611da7565b610766565b60405190151581526020016102d2565b6102c8610321366004611dd1565b60116020526000908152604090205481565b6102c861271081565b6102c861034a366004611dec565b61077d565b6102c860075481565b61036b610366366004611e1f565b6107a5565b005b6102c860025481565b610303610384366004611e38565b61085d565b6102c8610397366004611dd1565b600f6020526000908152604090205481565b604051600681526020016102d2565b61036b6103c6366004611e74565b6108f7565b6102c86103d9366004611dd1565b60146020526000908152604090205481565b6009546103039060ff1681565b61036b610921565b61036b61092f565b6102c8610416366004611dd1565b61094d565b6102c8610429366004611dd1565b60136020526000908152604090205481565b610303610449366004611dd1565b60156020526000908152604090205460ff1681565b61036b61046c366004611eb0565b610a40565b61036b61047f366004611dd1565b610a90565b6102c8610492366004611dd1565b600e6020526000908152604090205481565b6102c86104b2366004611dec565b601060209081526000928352604080842090915290825290205481565b61036b6104dd366004611ef1565b610aba565b61036b6104f0366004611e1f565b610af0565b61036b610503366004611e1f565b610b31565b6102c8610516366004611dd1565b6001600160a01b03166000908152600f602052604090205490565b61036b610ba1565b6102c860065481565b61036b610550366004612000565b610bb3565b6001546001600160a01b03165b6040516001600160a01b0390911681526020016102d2565b6102e3610c58565b600c54610562906001600160a01b031681565b61036b6105a33660046120c0565b610c65565b6102c860055481565b6103036105bf366004611da7565b610c98565b6102c86c0c9f2c9cd04674edea4000000081565b61036b6105e6366004611e38565b610ca5565b61036b6105f9366004611dd1565b610cc0565b6009546103039062010000900460ff1681565b6102c861061f366004611dec565b6001600160a01b03918216600090815260106020908152604080832093909416825291909152205490565b60095461030390610100900460ff1681565b6102c861066a366004611dd1565b60126020526000908152604090205481565b6102c8610d56565b61036b610692366004611dd1565b610d94565b6102c860085481565b600954610303906301000000900460ff1681565b600d54610562906001600160a01b031681565b60006106d1610dcf565b5060045490565b600a80546106e5906120dc565b80601f0160208091040260200160405190810160405280929190818152602001828054610711906120dc565b801561075e5780601f106107335761010080835404028352916020019161075e565b820191906000526020600020905b81548152906001019060200180831161074157829003601f168201915b505050505081565b6000610773338484610dfc565b5060015b92915050565b6000610787610f32565b61078f610f5c565b6107998383610fbb565b90506107776001600055565b6107ad610dcf565b6006546000036108185760405162461bcd60e51b815260206004820152602b60248201527f526577617264547261636b65723a20696e76616c6964206c617374446973747260448201526a69627574696f6e54696d6560a81b60648201526084015b60405180910390fd5b6108226000611049565b60058190556040518181527f98dc76c39aa5a5dcb749f8750a65db3dfa1e14bcc1591a9c16a7420e5da748f89060200160405180910390a150565b3360009081526015602052604081205460ff1615610888576108808484846111d3565b5060016108f0565b60006108d28360405180606001604052806030815260200161226b603091396001600160a01b03881660009081526010602090815260408083203384529091529020549190611381565b90506108df853383610dfc565b6108ea8585856111d3565b60019150505b9392505050565b6108ff610f32565b610907610f5c565b6109128383836113bb565b61091c6001600055565b505050565b610929610dcf565b42600655565b610937610f32565b6109416000611049565b61094b6001600055565b565b6001600160a01b03811660009081526011602052604081205480820361098a5750506001600160a01b031660009081526012602052604090205490565b60075460006109ae6c0c9f2c9cd04674edea400000006109a8610d56565b90611525565b905060006109c86109bf83856115a7565b600854906115e9565b6001600160a01b038716600090815260136020526040902054909150610a3690610a17906c0c9f2c9cd04674edea4000000090610a1190610a0a908690611648565b8890611525565b906115a7565b6001600160a01b038816600090815260126020526040902054906115e9565b9695505050505050565b600d546001600160a01b03163314610a6a5760405162461bcd60e51b815260040161080f90612116565b6001600160a01b038316600090815260116020526040902082905561091c8382816113bb565b610a98610dcf565b600d80546001600160a01b0319166001600160a01b0392909216919091179055565b610ac2610dcf565b6009805462ffff0019166101009315159390930262ff00001916929092176201000091151591909102179055565b610af8610dcf565b600454811015610b0757600080fd5b600454610b149082611648565b600455600c54610b2e906001600160a01b0316338361168a565b50565b610b39610dcf565b60c8811115610b8a5760405162461bcd60e51b815260206004820152601760248201527f466565206d757374206265203225206f72206c6f776572000000000000000000604482015260640161080f565b6002819055610b9b61271082611648565b60035550565b610ba9610dcf565b61094b60006116ed565b600d546001600160a01b03163314610bdd5760405162461bcd60e51b815260040161080f90612116565b60005b825181101561091c57818181518110610bfb57610bfb612163565b602002602001015160116000858481518110610c1957610c19612163565b60200260200101516001600160a01b03166001600160a01b03168152602001908152602001600020819055508080610c509061218f565b915050610be0565b600b80546106e5906120dc565b610c6d610dcf565b6001600160a01b03919091166000908152601560205260409020805460ff1916911515919091179055565b60006107733384846111d3565b610cad610f32565b610cb5610f5c565b61091283838361173f565b610cc8610dcf565b60095460ff1615610d265760405162461bcd60e51b815260206004820152602260248201527f526577617264547261636b65723a20616c726561647920696e697469616c697a604482015261195960f21b606482015260840161080f565b6009805460ff19166001179055600c80546001600160a01b039092166001600160a01b0319909216919091179055565b60006006544203610d675750600090565b6000610d7e6006544261164890919063ffffffff16565b600554909150610d8e9082611525565b91505090565b610d9c610dcf565b6001600160a01b038116610dc657604051631e4fbdf760e01b81526000600482015260240161080f565b610b2e816116ed565b6001546001600160a01b0316331461094b5760405163118cdaa760e01b815233600482015260240161080f565b6001600160a01b038316610e675760405162461bcd60e51b815260206004820152602c60248201527f526577617264547261636b65723a20617070726f76652066726f6d207468652060448201526b7a65726f206164647265737360a01b606482015260840161080f565b6001600160a01b038216610ed05760405162461bcd60e51b815260206004820152602a60248201527f526577617264547261636b65723a20617070726f766520746f20746865207a65604482015269726f206164647265737360b01b606482015260840161080f565b6001600160a01b0383811660008181526010602090815260408083209487168084529482529182902085905590518481527f8c5be1e5ebec7d5bd14f71427d1e84f3dd0314c0f7b2291e5b200ac8c7c3b92591015b60405180910390a3505050565b600260005403610f5557604051633ee5aeb560e01b815260040160405180910390fd5b6002600055565b3360009081526015602052604090205460ff1661094b5760405162461bcd60e51b815260206004820152601860248201527f526577617264547261636b65723a20666f7262696464656e0000000000000000604482015260640161080f565b6000610fc683611049565b6001600160a01b0383166000908152601260205260408120805491905580156108f057600c54611000906001600160a01b0316848361168a565b604080516001600160a01b0386168152602081018390527f47cee97cb7acd717b3c0aa1435d004cd5b3c8c57d70dbceb4e4458bbd60e39d4910160405180910390a19392505050565b6000611053610d56565b426006556007546008549192509081158015906110705750600083115b156110a25761109a61109383610a11866c0c9f2c9cd04674edea40000000611525565b82906115e9565b600881905590505b806000036110b05750505050565b6001600160a01b038416156111cd576001600160a01b038416600090815260116020908152604080832054601390925282205490919061110f906c0c9f2c9cd04674edea4000000090610a1190611108908790611648565b8590611525565b6001600160a01b0387166000908152601260205260408120549192509061113690836115e9565b6001600160a01b0388166000908152601260209081526040808320849055601390915290208590559050801580159061118657506001600160a01b03871660009081526011602052604090205415155b156111c9576001600160a01b0387166000908152601460205260408120546111ae90846115e9565b6001600160a01b038916600090815260146020526040902055505b5050505b50505050565b6001600160a01b03831661123f5760405162461bcd60e51b815260206004820152602d60248201527f526577617264547261636b65723a207472616e736665722066726f6d2074686560448201526c207a65726f206164647265737360981b606482015260840161080f565b6001600160a01b0382166112a95760405162461bcd60e51b815260206004820152602b60248201527f526577617264547261636b65723a207472616e7366657220746f20746865207a60448201526a65726f206164647265737360a81b606482015260840161080f565b600954610100900460ff16156112c1576112c1610f5c565b6112fe816040518060600160405280602e815260200161229b602e91396001600160a01b0386166000908152600f60205260409020549190611381565b6001600160a01b038085166000908152600f6020526040808220939093559084168152205461132d90826115e9565b6001600160a01b038084166000818152600f602052604090819020939093559151908516907fddf252ad1be2c89b69c2b068fc378daa952ba7f163c4a11628f55a4df523b3ef90610f259085815260200190565b600081848411156113a55760405162461bcd60e51b815260040161080f9190611d58565b5060006113b284866121a8565b95945050505050565b6000821161140b5760405162461bcd60e51b815260206004820152601e60248201527f526577617264547261636b65723a20696e76616c6964205f616d6f756e740000604482015260640161080f565b61141483611049565b600061141f8361183f565b6001600160a01b0385166000908152601160205260409020549091508381101561149f5760405162461bcd60e51b815260206004820152602b60248201527f526577617264547261636b65723a205f616d6f756e742065786365656473207360448201526a1d185ad959105b5bdd5b9d60aa1b606482015260840161080f565b6114a98185611648565b6001600160a01b03808716600090815260116020908152604080832094909455600c549092168152600e90915220546114e29085611648565b600c546001600160a01b03166000908152600e60205260409020556115078585611886565b600c5461151e906001600160a01b0316848461168a565b5050505050565b60008260000361153757506000610777565b600061154383856121bb565b90508261155085836121d2565b146108f05760405162461bcd60e51b815260206004820152602160248201527f536166654d6174683a206d756c7469706c69636174696f6e206f766572666c6f6044820152607760f81b606482015260840161080f565b60006108f083836040518060400160405280601a81526020017f536166654d6174683a206469766973696f6e206279207a65726f00000000000081525061199a565b6000806115f683856121f4565b9050838110156108f05760405162461bcd60e51b815260206004820152601b60248201527f536166654d6174683a206164646974696f6e206f766572666c6f770000000000604482015260640161080f565b60006108f083836040518060400160405280601e81526020017f536166654d6174683a207375627472616374696f6e206f766572666c6f770000815250611381565b6040516001600160a01b03831660248201526044810182905261091c90849063a9059cbb60e01b906064015b60408051601f198184030181529190526020810180516001600160e01b03166001600160e01b0319909316929092179091526119c8565b600180546001600160a01b038381166001600160a01b0319831681179093556040519116919082907f8be0079c531659141344cd1fd0a4f28419497f9722a3daafe3b4186f6b6457e090600090a35050565b6000811161178f5760405162461bcd60e51b815260206004820152601e60248201527f526577617264547261636b65723a20696e76616c6964205f616d6f756e740000604482015260640161080f565b600c546117a7906001600160a01b0316843084611a9a565b6117b082611049565b60006117bb8261183f565b6001600160a01b0384166000908152601160205260409020549091506117e190826115e9565b6001600160a01b03808516600090815260116020908152604080832094909455600c549092168152600e909152205461181a90826115e9565b600c546001600160a01b03166000908152600e60205260409020556111cd8382611ad2565b60008061185d612710610a116003548661152590919063ffffffff16565b90506118698382611648565b6004600082825461187a91906121f4565b90915550909392505050565b6001600160a01b0382166118ee5760405162461bcd60e51b815260206004820152602960248201527f526577617264547261636b65723a206275726e2066726f6d20746865207a65726044820152686f206164647265737360b81b606482015260840161080f565b61192b816040518060600160405280602a8152602001612241602a91396001600160a01b0385166000908152600f60205260409020549190611381565b6001600160a01b0383166000908152600f60205260409020556007546119519082611648565b6007556040518181526000906001600160a01b038416907fddf252ad1be2c89b69c2b068fc378daa952ba7f163c4a11628f55a4df523b3ef906020015b60405180910390a35050565b600081836119bb5760405162461bcd60e51b815260040161080f9190611d58565b5060006113b284866121d2565b6000611a1d826040518060400160405280602081526020017f5361666545524332303a206c6f772d6c6576656c2063616c6c206661696c6564815250856001600160a01b0316611bbc9092919063ffffffff16565b80519091501561091c5780806020019051810190611a3b9190612207565b61091c5760405162461bcd60e51b815260206004820152602a60248201527f5361666545524332303a204552433230206f7065726174696f6e20646964206e6044820152691bdd081cdd58d8d9595960b21b606482015260840161080f565b6040516001600160a01b03808516602483015283166044820152606481018290526111cd9085906323b872dd60e01b906084016116b6565b6001600160a01b038216611b385760405162461bcd60e51b815260206004820152602760248201527f526577617264547261636b65723a206d696e7420746f20746865207a65726f206044820152666164647265737360c81b606482015260840161080f565b600754611b4590826115e9565b6007556001600160a01b0382166000908152600f6020526040902054611b6b90826115e9565b6001600160a01b0383166000818152600f60205260408082209390935591519091907fddf252ad1be2c89b69c2b068fc378daa952ba7f163c4a11628f55a4df523b3ef9061198e9085815260200190565b6060611bcb8484600085611bd3565b949350505050565b606082471015611c345760405162461bcd60e51b815260206004820152602660248201527f416464726573733a20696e73756666696369656e742062616c616e636520666f6044820152651c8818d85b1b60d21b606482015260840161080f565b843b611c825760405162461bcd60e51b815260206004820152601d60248201527f416464726573733a2063616c6c20746f206e6f6e2d636f6e7472616374000000604482015260640161080f565b600080866001600160a01b03168587604051611c9e9190612224565b60006040518083038185875af1925050503d8060008114611cdb576040519150601f19603f3d011682016040523d82523d6000602084013e611ce0565b606091505b5091509150611cf0828286611cfb565b979650505050505050565b60608315611d0a5750816108f0565b825115611d1a5782518084602001fd5b8160405162461bcd60e51b815260040161080f9190611d58565b60005b83811015611d4f578181015183820152602001611d37565b50506000910152565b6020815260008251806020840152611d77816040850160208701611d34565b601f01601f19169190910160400192915050565b80356001600160a01b0381168114611da257600080fd5b919050565b60008060408385031215611dba57600080fd5b611dc383611d8b565b946020939093013593505050565b600060208284031215611de357600080fd5b6108f082611d8b565b60008060408385031215611dff57600080fd5b611e0883611d8b565b9150611e1660208401611d8b565b90509250929050565b600060208284031215611e3157600080fd5b5035919050565b600080600060608486031215611e4d57600080fd5b611e5684611d8b565b9250611e6460208501611d8b565b9150604084013590509250925092565b600080600060608486031215611e8957600080fd5b611e9284611d8b565b925060208401359150611ea760408501611d8b565b90509250925092565b600080600060608486031215611ec557600080fd5b611ece84611d8b565b95602085013595506040909401359392505050565b8015158114610b2e57600080fd5b60008060408385031215611f0457600080fd5b8235611f0f81611ee3565b91506020830135611f1f81611ee3565b809150509250929050565b634e487b7160e01b600052604160045260246000fd5b604051601f8201601f1916810167ffffffffffffffff81118282101715611f6957611f69611f2a565b604052919050565b600067ffffffffffffffff821115611f8b57611f8b611f2a565b5060051b60200190565b600082601f830112611fa657600080fd5b81356020611fbb611fb683611f71565b611f40565b82815260059290921b84018101918181019086841115611fda57600080fd5b8286015b84811015611ff55780358352918301918301611fde565b509695505050505050565b6000806040838503121561201357600080fd5b823567ffffffffffffffff8082111561202b57600080fd5b818501915085601f83011261203f57600080fd5b8135602061204f611fb683611f71565b82815260059290921b8401810191818101908984111561206e57600080fd5b948201945b838610156120935761208486611d8b565b82529482019490820190612073565b965050860135925050808211156120a957600080fd5b506120b685828601611f95565b9150509250929050565b600080604083850312156120d357600080fd5b611f0f83611d8b565b600181811c908216806120f057607f821691505b60208210810361211057634e487b7160e01b600052602260045260246000fd5b50919050565b6020808252602d908201527f596f7520617265206e6f7420617574686f72697a656420746f2063616c6c207460408201526c3434b990333ab731ba34b7b71760991b606082015260800190565b634e487b7160e01b600052603260045260246000fd5b634e487b7160e01b600052601160045260246000fd5b6000600182016121a1576121a1612179565b5060010190565b8181038181111561077757610777612179565b808202811582820484141761077757610777612179565b6000826121ef57634e487b7160e01b600052601260045260246000fd5b500490565b8082018082111561077757610777612179565b60006020828403121561221957600080fd5b81516108f081611ee3565b60008251612236818460208701611d34565b919091019291505056fe526577617264547261636b65723a206275726e20616d6f756e7420657863656564732062616c616e6365526577617264547261636b65723a207472616e7366657220616d6f756e74206578636565647320616c6c6f77616e6365526577617264547261636b65723a207472616e7366657220616d6f756e7420657863656564732062616c616e6365a2646970667358221220e79d1d00695a74b14a67be300c109481f6ad6f638ad8caa0d7f48b025ed388a364736f6c63430008140033","linkReferences":{}},"methodIdentifiers":{"BASIS_POINTS_DIVISOR()":"126082cf","PRECISION()":"aaf5eb68","allowance(address,address)":"dd62ed3e","allowances(address,address)":"55b6ed5c","approve(address,uint256)":"095ea7b3","balanceOf(address)":"70a08231","balanceOracle()":"fd3c9c56","balances(address)":"27e235e3","claimForAccount(address,address)":"13e82e7a","claimable(address)":"402914f5","claimableReward(address)":"e9503425","cumulativeRewardPerToken()":"f5fc5076","cumulativeRewards(address)":"3792def3","decimals()":"313ce567","feeBPS()":"1a1c6e53","inPrivateClaimingMode()":"f76033d3","inPrivateStakingMode()":"c5fa2730","inPrivateTransferMode()":"dfbaefb1","initialize(address)":"c4d66de8","isHandler(address)":"46ea87af","isInitialized()":"392e53cd","lastDistributionTime()":"75b17350","name()":"06fdde03","oracleCallback(address,uint256,uint256)":"49a3493f","oracleCallbackEndDay(address[],uint256[])":"853b9dca","owner()":"8da5cb5b","pendingRewards()":"eded3fda","previousCumulatedRewardPerToken(address)":"44a08411","renounceOwnership()":"715018a6","setFee(uint256)":"69fe0e2d","setHandler(address,bool)":"9cb7de4b","setInPrivateModes(bool,bool)":"59574880","setOracleAddress(address)":"4c69c00f","setTokensPerInterval(uint256)":"18e20a03","stableCoin()":"992642e5","stakeForAccount(address,address,uint256)":"b5f73e8d","stakedAmounts(address)":"10c1c103","symbol()":"95d89b41","tokensPerInterval()":"a8d93627","totalDepositSupply(address)":"552ce1dc","totalSupply()":"18160ddd","transfer(address,uint256)":"a9059cbb","transferFrom(address,address,uint256)":"23b872dd","transferOwnership(address)":"f2fde38b","unstakeForAccount(address,uint256,address)":"33080b6e","updateLastDistributionTime()":"3ae6d6eb","updateRewards()":"3e158b0c","viewFeeRevenue()":"04bfd609","withdrawFeeRevenue(uint256)":"69558c91"},"id":1}