{"abi":[{"type":"constructor","inputs":[{"name":"_rewardToken","type":"address","internalType":"address"},{"name":"_rewardTracker","type":"address","internalType":"address"}],"stateMutability":"nonpayable"},{"type":"function","name":"BASIS_POINTS_DIVISOR","inputs":[],"outputs":[{"name":"","type":"uint256","internalType":"uint256"}],"stateMutability":"view"},{"type":"function","name":"BONUS_DURATION","inputs":[],"outputs":[{"name":"","type":"uint256","internalType":"uint256"}],"stateMutability":"view"},{"type":"function","name":"bonusMultiplierBasisPoints","inputs":[],"outputs":[{"name":"","type":"uint256","internalType":"uint256"}],"stateMutability":"view"},{"type":"function","name":"distribute","inputs":[],"outputs":[{"name":"","type":"uint256","internalType":"uint256"}],"stateMutability":"nonpayable"},{"type":"function","name":"lastDistributionTime","inputs":[],"outputs":[{"name":"","type":"uint256","internalType":"uint256"}],"stateMutability":"view"},{"type":"function","name":"owner","inputs":[],"outputs":[{"name":"","type":"address","internalType":"address"}],"stateMutability":"view"},{"type":"function","name":"pendingRewards","inputs":[],"outputs":[{"name":"","type":"uint256","internalType":"uint256"}],"stateMutability":"view"},{"type":"function","name":"renounceOwnership","inputs":[],"outputs":[],"stateMutability":"nonpayable"},{"type":"function","name":"rewardToken","inputs":[],"outputs":[{"name":"","type":"address","internalType":"address"}],"stateMutability":"view"},{"type":"function","name":"rewardTracker","inputs":[],"outputs":[{"name":"","type":"address","internalType":"address"}],"stateMutability":"view"},{"type":"function","name":"setBonusMultiplier","inputs":[{"name":"_bonusMultiplierBasisPoints","type":"uint256","internalType":"uint256"}],"outputs":[],"stateMutability":"nonpayable"},{"type":"function","name":"tokensPerInterval","inputs":[],"outputs":[{"name":"","type":"uint256","internalType":"uint256"}],"stateMutability":"view"},{"type":"function","name":"transferOwnership","inputs":[{"name":"newOwner","type":"address","internalType":"address"}],"outputs":[],"stateMutability":"nonpayable"},{"type":"function","name":"updateLastDistributionTime","inputs":[],"outputs":[],"stateMutability":"nonpayable"},{"type":"function","name":"withdrawToken","inputs":[{"name":"_token","type":"address","internalType":"address"},{"name":"_account","type":"address","internalType":"address"},{"name":"_amount","type":"uint256","internalType":"uint256"}],"outputs":[],"stateMutability":"nonpayable"},{"type":"event","name":"BonusMultiplierChange","inputs":[{"name":"amount","type":"uint256","indexed":false,"internalType":"uint256"}],"anonymous":false},{"type":"event","name":"Distribute","inputs":[{"name":"amount","type":"uint256","indexed":false,"internalType":"uint256"}],"anonymous":false},{"type":"event","name":"OwnershipTransferred","inputs":[{"name":"previousOwner","type":"address","indexed":true,"internalType":"address"},{"name":"newOwner","type":"address","indexed":true,"internalType":"address"}],"anonymous":false}],"bytecode":{"object":"0x608060405234801561001057600080fd5b50604051610e3e380380610e3e83398101604081905261002f916100dc565b600160005561003d3361006e565b600380546001600160a01b039384166001600160a01b0319918216179091556005805492909316911617905561010f565b600180546001600160a01b038381166001600160a01b0319831681179093556040519116919082907f8be0079c531659141344cd1fd0a4f28419497f9722a3daafe3b4186f6b6457e090600090a35050565b80516001600160a01b03811681146100d757600080fd5b919050565b600080604083850312156100ef57600080fd5b6100f8836100c0565b9150610106602084016100c0565b90509250929050565b610d208061011e6000396000f3fe608060405234801561001057600080fd5b50600436106100f55760003560e01c80638da5cb5b11610097578063eded3fda11610066578063eded3fda146101a4578063f2fde38b146101ac578063f7c618c1146101bf578063fd58e63a146101d257600080fd5b80638da5cb5b14610178578063a013ad5414610189578063a8d9362714610194578063e4fc6b6d1461019c57600080fd5b80633ae6d6eb116100d35780633ae6d6eb146101345780636bcb411a1461013c578063715018a61461016757806375b173501461016f57600080fd5b806301e33667146100fa578063126082cf1461010f5780632f6beaa51461012b575b600080fd5b61010d610108366004610b6a565b6101e5565b005b61011861271081565b6040519081526020015b60405180910390f35b61011860025481565b61010d610206565b60055461014f906001600160a01b031681565b6040516001600160a01b039091168152602001610122565b61010d610214565b61011860045481565b6001546001600160a01b031661014f565b6101186301e1338081565b610118610228565b6101186102d3565b610118610432565b61010d6101ba366004610ba6565b610500565b60035461014f906001600160a01b031681565b61010d6101e0366004610bc1565b610579565b6101ed61068d565b6102016001600160a01b03841683836106e7565b505050565b61020e61068d565b42600455565b61021c61068d565b6102266000610739565b565b600080600560009054906101000a90046001600160a01b03166001600160a01b03166318160ddd6040518163ffffffff1660e01b8152600401602060405180830381865afa15801561027e573d6000803e3d6000fd5b505050506040513d601f19601f820116820180604052508101906102a29190610bda565b90506102cd6301e133806102c76127106102c76002548661078b90919063ffffffff16565b90610816565b91505090565b6005546000906001600160a01b031633146103415760405162461bcd60e51b8152602060048201526024808201527f426f6e75734469737472696275746f723a20696e76616c6964206d73672e7365604482015263373232b960e11b60648201526084015b60405180910390fd5b600061034b610432565b90508060000361035d57600091505090565b4260049081556003546040516370a0823160e01b815230928101929092526000916001600160a01b03909116906370a0823190602401602060405180830381865afa1580156103b0573d6000803e3d6000fd5b505050506040513d601f19601f820116820180604052508101906103d49190610bda565b9050808211156103e2578091505b6003546103f9906001600160a01b031633846106e7565b6040518281527f4def474aca53bf221d07d9ab0f675b3f6d8d2494b8427271bcf43c018ef1eead9060200160405180910390a150919050565b600060045442036104435750600090565b600554604080516318160ddd60e01b815290516000926001600160a01b0316916318160ddd9160048083019260209291908290030181865afa15801561048d573d6000803e3d6000fd5b505050506040513d601f19601f820116820180604052508101906104b19190610bda565b905060006104ca6004544261085890919063ffffffff16565b90506104f96301e133806102c76127106102c76002546104f3888861078b90919063ffffffff16565b9061078b565b9250505090565b61050861068d565b6001600160a01b03811661056d5760405162461bcd60e51b815260206004820152602660248201527f4f776e61626c653a206e6577206f776e657220697320746865207a65726f206160448201526564647265737360d01b6064820152608401610338565b61057681610739565b50565b61058161068d565b6004546000036105ea5760405162461bcd60e51b815260206004820152602e60248201527f426f6e75734469737472696275746f723a20696e76616c6964206c617374446960448201526d73747269627574696f6e54696d6560901b6064820152608401610338565b600560009054906101000a90046001600160a01b03166001600160a01b0316633e158b0c6040518163ffffffff1660e01b8152600401600060405180830381600087803b15801561063a57600080fd5b505af115801561064e573d6000803e3d6000fd5b5050506002829055506040518181527f58585e4edc172f6517d6789356504dc9ad23553d02202c3ac454a8d0733f6b2b9060200160405180910390a150565b6001546001600160a01b031633146102265760405162461bcd60e51b815260206004820181905260248201527f4f776e61626c653a2063616c6c6572206973206e6f7420746865206f776e65726044820152606401610338565b604080516001600160a01b038416602482015260448082018490528251808303909101815260649091019091526020810180516001600160e01b031663a9059cbb60e01b17905261020190849061089a565b600180546001600160a01b038381166001600160a01b0319831681179093556040519116919082907f8be0079c531659141344cd1fd0a4f28419497f9722a3daafe3b4186f6b6457e090600090a35050565b60008260000361079d57506000610810565b60006107a98385610c09565b9050826107b68583610c20565b1461080d5760405162461bcd60e51b815260206004820152602160248201527f536166654d6174683a206d756c7469706c69636174696f6e206f766572666c6f6044820152607760f81b6064820152608401610338565b90505b92915050565b600061080d83836040518060400160405280601a81526020017f536166654d6174683a206469766973696f6e206279207a65726f00000000000081525061096c565b600061080d83836040518060400160405280601e81526020017f536166654d6174683a207375627472616374696f6e206f766572666c6f7700008152506109a5565b60006108ef826040518060400160405280602081526020017f5361666545524332303a206c6f772d6c6576656c2063616c6c206661696c6564815250856001600160a01b03166109d69092919063ffffffff16565b805190915015610201578080602001905181019061090d9190610c42565b6102015760405162461bcd60e51b815260206004820152602a60248201527f5361666545524332303a204552433230206f7065726174696f6e20646964206e6044820152691bdd081cdd58d8d9595960b21b6064820152608401610338565b6000818361098d5760405162461bcd60e51b81526004016103389190610c88565b50600061099a8486610c20565b9150505b9392505050565b600081848411156109c95760405162461bcd60e51b81526004016103389190610c88565b50600061099a8486610cbb565b60606109e584846000856109ed565b949350505050565b606082471015610a4e5760405162461bcd60e51b815260206004820152602660248201527f416464726573733a20696e73756666696369656e742062616c616e636520666f6044820152651c8818d85b1b60d21b6064820152608401610338565b843b610a9c5760405162461bcd60e51b815260206004820152601d60248201527f416464726573733a2063616c6c20746f206e6f6e2d636f6e74726163740000006044820152606401610338565b600080866001600160a01b03168587604051610ab89190610cce565b60006040518083038185875af1925050503d8060008114610af5576040519150601f19603f3d011682016040523d82523d6000602084013e610afa565b606091505b5091509150610b0a828286610b15565b979650505050505050565b60608315610b2457508161099e565b825115610b345782518084602001fd5b8160405162461bcd60e51b81526004016103389190610c88565b80356001600160a01b0381168114610b6557600080fd5b919050565b600080600060608486031215610b7f57600080fd5b610b8884610b4e565b9250610b9660208501610b4e565b9150604084013590509250925092565b600060208284031215610bb857600080fd5b61080d82610b4e565b600060208284031215610bd357600080fd5b5035919050565b600060208284031215610bec57600080fd5b5051919050565b634e487b7160e01b600052601160045260246000fd5b808202811582820484141761081057610810610bf3565b600082610c3d57634e487b7160e01b600052601260045260246000fd5b500490565b600060208284031215610c5457600080fd5b8151801515811461080d57600080fd5b60005b83811015610c7f578181015183820152602001610c67565b50506000910152565b6020815260008251806020840152610ca7816040850160208701610c64565b601f01601f19169190910160400192915050565b8181038181111561081057610810610bf3565b60008251610ce0818460208701610c64565b919091019291505056fea26469706673582212204951872ac1b6fed85e727054be8271ab6e5b8fda8733cbd018f00f249ce2298a64736f6c63430008140033","linkReferences":{}},"methodIdentifiers":{"BASIS_POINTS_DIVISOR()":"126082cf","BONUS_DURATION()":"a013ad54","bonusMultiplierBasisPoints()":"2f6beaa5","distribute()":"e4fc6b6d","lastDistributionTime()":"75b17350","owner()":"8da5cb5b","pendingRewards()":"eded3fda","renounceOwnership()":"715018a6","rewardToken()":"f7c618c1","rewardTracker()":"6bcb411a","setBonusMultiplier(uint256)":"fd58e63a","tokensPerInterval()":"a8d93627","transferOwnership(address)":"f2fde38b","updateLastDistributionTime()":"3ae6d6eb","withdrawToken(address,address,uint256)":"01e33667"},"id":1}