{"abi":[{"type":"constructor","inputs":[{"name":"_tuto","type":"address","internalType":"address"},{"name":"_usdc","type":"address","internalType":"address"},{"name":"_initialOwner","type":"address","internalType":"address"}],"stateMutability":"nonpayable"},{"type":"function","name":"claim","inputs":[],"outputs":[],"stateMutability":"nonpayable"},{"type":"function","name":"compound","inputs":[],"outputs":[],"stateMutability":"nonpayable"},{"type":"function","name":"compoundForAccount","inputs":[{"name":"_account","type":"address","internalType":"address"}],"outputs":[],"stateMutability":"nonpayable"},{"type":"function","name":"depositUsdc","inputs":[{"name":"_amount","type":"uint256","internalType":"uint256"}],"outputs":[],"stateMutability":"nonpayable"},{"type":"function","name":"feeTutoTracker","inputs":[],"outputs":[{"name":"","type":"address","internalType":"address"}],"stateMutability":"view"},{"type":"function","name":"feeUsdcTracker","inputs":[],"outputs":[{"name":"","type":"address","internalType":"address"}],"stateMutability":"view"},{"type":"function","name":"handleRewards","inputs":[{"name":"_shouldClaimUsdc","type":"bool","internalType":"bool"},{"name":"_shouldDepositUsdc","type":"bool","internalType":"bool"}],"outputs":[],"stateMutability":"nonpayable"},{"type":"function","name":"initialize","inputs":[{"name":"_feeUsdcTracker","type":"address","internalType":"address"},{"name":"_feeTutoTracker","type":"address","internalType":"address"},{"name":"_balanceOracle","type":"address","internalType":"address"}],"outputs":[],"stateMutability":"nonpayable"},{"type":"function","name":"isInitialized","inputs":[],"outputs":[{"name":"","type":"bool","internalType":"bool"}],"stateMutability":"view"},{"type":"function","name":"owner","inputs":[],"outputs":[{"name":"","type":"address","internalType":"address"}],"stateMutability":"view"},{"type":"function","name":"renounceOwnership","inputs":[],"outputs":[],"stateMutability":"nonpayable"},{"type":"function","name":"setOracleAddress","inputs":[{"name":"_balanceOracle","type":"address","internalType":"address"}],"outputs":[],"stateMutability":"nonpayable"},{"type":"function","name":"stakeTuto","inputs":[{"name":"_amount","type":"uint256","internalType":"uint256"}],"outputs":[],"stateMutability":"nonpayable"},{"type":"function","name":"transferOwnership","inputs":[{"name":"newOwner","type":"address","internalType":"address"}],"outputs":[],"stateMutability":"nonpayable"},{"type":"function","name":"tuto","inputs":[],"outputs":[{"name":"","type":"address","internalType":"address"}],"stateMutability":"view"},{"type":"function","name":"unstakeTuto","inputs":[{"name":"_amount","type":"uint256","internalType":"uint256"}],"outputs":[],"stateMutability":"nonpayable"},{"type":"function","name":"usdc","inputs":[],"outputs":[{"name":"","type":"address","internalType":"address"}],"stateMutability":"view"},{"type":"function","name":"withdrawToken","inputs":[{"name":"_token","type":"address","internalType":"address"},{"name":"_account","type":"address","internalType":"address"},{"name":"_amount","type":"uint256","internalType":"uint256"}],"outputs":[],"stateMutability":"nonpayable"},{"type":"function","name":"withdrawUsdc","inputs":[{"name":"_amount","type":"uint256","internalType":"uint256"}],"outputs":[],"stateMutability":"nonpayable"},{"type":"event","name":"DepositUsdc","inputs":[{"name":"account","type":"address","indexed":false,"internalType":"address"},{"name":"amount","type":"uint256","indexed":false,"internalType":"uint256"}],"anonymous":false},{"type":"event","name":"OwnershipTransferred","inputs":[{"name":"previousOwner","type":"address","indexed":true,"internalType":"address"},{"name":"newOwner","type":"address","indexed":true,"internalType":"address"}],"anonymous":false},{"type":"event","name":"StakeTuto","inputs":[{"name":"account","type":"address","indexed":false,"internalType":"address"},{"name":"token","type":"address","indexed":false,"internalType":"address"},{"name":"amount","type":"uint256","indexed":false,"internalType":"uint256"}],"anonymous":false},{"type":"event","name":"UnstakeTuto","inputs":[{"name":"account","type":"address","indexed":false,"internalType":"address"},{"name":"token","type":"address","indexed":false,"internalType":"address"},{"name":"amount","type":"uint256","indexed":false,"internalType":"uint256"}],"anonymous":false},{"type":"event","name":"WithdrawUsdc","inputs":[{"name":"account","type":"address","indexed":false,"internalType":"address"},{"name":"amount","type":"uint256","indexed":false,"internalType":"uint256"}],"anonymous":false},{"type":"error","name":"OwnableInvalidOwner","inputs":[{"name":"owner","type":"address","internalType":"address"}]},{"type":"error","name":"OwnableUnauthorizedAccount","inputs":[{"name":"account","type":"address","internalType":"address"}]},{"type":"error","name":"ReentrancyGuardReentrantCall","inputs":[]}],"bytecode":{"object":"0x608060405234801561001057600080fd5b50604051610fbf380380610fbf83398101604081905261002f9161010d565b6001600055806001600160a01b03811661006357604051631e4fbdf760e01b81526000600482015260240160405180910390fd5b61006c8161009f565b5050600280546001600160a01b039384166001600160a01b03199182161790915560038054929093169116179055610150565b600180546001600160a01b038381166001600160a01b0319831681179093556040519116919082907f8be0079c531659141344cd1fd0a4f28419497f9722a3daafe3b4186f6b6457e090600090a35050565b80516001600160a01b038116811461010857600080fd5b919050565b60008060006060848603121561012257600080fd5b61012b846100f1565b9250610139602085016100f1565b9150610147604085016100f1565b90509250925092565b610e608061015f6000396000f3fe608060405234801561001057600080fd5b50600436106101215760003560e01c80635b06dece116100ad578063c0c53b8b11610071578063c0c53b8b14610248578063dd649d561461025b578063e7cf6c101461026e578063f2fde38b14610281578063f69e20461461029457600080fd5b80635b06dece146101f6578063715018a614610209578063755de87a146102115780638da5cb5b146102245780639f0670c41461023557600080fd5b8063392e53cd116100f4578063392e53cd146101745780633e413bee1461019d5780634c69c00f146101c85780634e71d92d146101db57806356cae6a1146101e357600080fd5b806301e336671461012657806311cd93e31461013b5780632357928e1461014e5780632a9f408314610161575b600080fd5b610139610134366004610c8b565b61029c565b005b610139610149366004610cc7565b61031d565b61013961015c366004610cc7565b61033c565b61013961016f366004610ce0565b61034e565b60015461018890600160a01b900460ff1681565b60405190151581526020015b60405180910390f35b6003546101b0906001600160a01b031681565b6040516001600160a01b039091168152602001610194565b6101396101d6366004610ce0565b610367565b610139610391565b6101396101f1366004610cc7565b610496565b610139610204366004610cc7565b6104a8565b6101396104ba565b6005546101b0906001600160a01b031681565b6001546001600160a01b03166101b0565b6004546101b0906001600160a01b031681565b610139610256366004610d02565b6104cc565b6002546101b0906001600160a01b031681565b61013961027c366004610d53565b61058f565b61013961028f366004610ce0565b6106d7565b610139610712565b6102a461072d565b60405163a9059cbb60e01b81526001600160a01b0383811660048301526024820183905284169063a9059cbb906044016020604051808303816000875af11580156102f3573d6000803e3d6000fd5b505050506040513d601f19601f820116820180604052508101906103179190610d8c565b50505050565b61032561075a565b61032f3382610784565b6103396001600055565b50565b61034461075a565b61032f3382610871565b61035661075a565b61035e61072d565b61032f8161096e565b61036f61072d565b600680546001600160a01b0319166001600160a01b0392909216919091179055565b61039961075a565b600480546040516309f4173d60e11b815233928101839052602481018390526001600160a01b03909116906313e82e7a906044016020604051808303816000875af11580156103ec573d6000803e3d6000fd5b505050506040513d601f19601f820116820180604052508101906104109190610da9565b506005546040516309f4173d60e11b81526001600160a01b03838116600483018190526024830152909116906313e82e7a906044016020604051808303816000875af1158015610464573d6000803e3d6000fd5b505050506040513d601f19601f820116820180604052508101906104889190610da9565b50506104946001600055565b565b61049e61075a565b61032f3382610977565b6104b061075a565b61032f3382610a5d565b6104c261072d565b6104946000610b03565b6104d461072d565b600154600160a01b900460ff161561053d5760405162461bcd60e51b815260206004820152602160248201527f526577617264526f757465723a20616c726561647920696e697469616c697a656044820152601960fa1b60648201526084015b60405180910390fd5b6001805460ff60a01b1916600160a01b179055600580546001600160a01b039485166001600160a01b031991821617909155600480549385169382169390931790925560068054919093169116179055565b61059761075a565b33600083156106ab57600480546040516309f4173d60e11b81526001600160a01b038581169382018490526024820193909352600092909116906313e82e7a906044016020604051808303816000875af11580156105f9573d6000803e3d6000fd5b505050506040513d601f19601f8201168201806040525081019061061d9190610da9565b6005546040516309f4173d60e11b81526001600160a01b03868116600483018190526024830152929350600092909116906313e82e7a906044016020604051808303816000875af1158015610676573d6000803e3d6000fd5b505050506040513d601f19601f8201168201806040525081019061069a9190610da9565b90506106a68183610dc2565b925050505b8280156106b85750600081115b156106c7576106c78282610871565b50506106d36001600055565b5050565b6106df61072d565b6001600160a01b03811661070957604051631e4fbdf760e01b815260006004820152602401610534565b61033981610b03565b61071a61075a565b6107233361096e565b6104946001600055565b6001546001600160a01b031633146104945760405163118cdaa760e01b8152336004820152602401610534565b60026000540361077d57604051633ee5aeb560e01b815260040160405180910390fd5b6002600055565b600081116107a45760405162461bcd60e51b815260040161053490610de9565b6004805460025460405163098bf59d60e01b81526001600160a01b038681169482018590529182166024820152604481018590526064810193909352169063098bf59d90608401600060405180830381600087803b15801561080557600080fd5b505af1158015610819573d6000803e3d6000fd5b5050600254604080516001600160a01b038088168252909216602083015281018490527f0498024cc9b59d9ea498c587a12e4ecbb8ea3280378c4c2f8babd479f811f2b5925060600190505b60405180910390a15050565b600081116108c15760405162461bcd60e51b815260206004820152601d60248201527f526577617264526f757465723a20696e76616c6964205f616d6f756e740000006044820152606401610534565b60055460405163b5f73e8d60e01b81526001600160a01b03848116600483018190526024830152604482018490529091169063b5f73e8d90606401600060405180830381600087803b15801561091657600080fd5b505af115801561092a573d6000803e3d6000fd5b5050604080516001600160a01b0386168152602081018590527f1a9a2ac939bfadf031596ef59ee22df92e5c98d280d23bfdca95a8d80d4d4f239350019050610865565b61033981610b55565b600081116109975760405162461bcd60e51b815260040161053490610de9565b60048054600254604051631e42d69b60e21b81526001600160a01b03868116948201859052602482019490945290831660448201526064810184905291169063790b5a6c90608401600060405180830381600087803b1580156109f957600080fd5b505af1158015610a0d573d6000803e3d6000fd5b5050600254604080516001600160a01b038088168252909216602083015281018490527f2a9101095e3bb0e9f23074f5d080b4a65cf7278d8d9a71553b1c1247b3f6dc6092506060019050610865565b600654604051635eba6e4760e01b81526001600160a01b0384811660048301526024820184905290911690635eba6e4790604401600060405180830381600087803b158015610aab57600080fd5b505af1158015610abf573d6000803e3d6000fd5b5050604080516001600160a01b0386168152602081018590527f0951f6155fdcd9a55f4d899265dbd193f6eb797bdc8a3725dbbe44d1e56964f79350019050610865565b600180546001600160a01b038381166001600160a01b0319831681179093556040519116919082907f8be0079c531659141344cd1fd0a4f28419497f9722a3daafe3b4186f6b6457e090600090a35050565b600480546040516309f4173d60e11b81526001600160a01b038481169382018490526024820193909352600092909116906313e82e7a906044016020604051808303816000875af1158015610bae573d6000803e3d6000fd5b505050506040513d601f19601f82011682018060405250810190610bd29190610da9565b6005546040516309f4173d60e11b81526001600160a01b03858116600483018190526024830152929350600092909116906313e82e7a906044016020604051808303816000875af1158015610c2b573d6000803e3d6000fd5b505050506040513d601f19601f82011682018060405250810190610c4f9190610da9565b90506000610c5d8284610dc2565b90508015610317576103178482610871565b80356001600160a01b0381168114610c8657600080fd5b919050565b600080600060608486031215610ca057600080fd5b610ca984610c6f565b9250610cb760208501610c6f565b9150604084013590509250925092565b600060208284031215610cd957600080fd5b5035919050565b600060208284031215610cf257600080fd5b610cfb82610c6f565b9392505050565b600080600060608486031215610d1757600080fd5b610d2084610c6f565b9250610d2e60208501610c6f565b9150610d3c60408501610c6f565b90509250925092565b801515811461033957600080fd5b60008060408385031215610d6657600080fd5b8235610d7181610d45565b91506020830135610d8181610d45565b809150509250929050565b600060208284031215610d9e57600080fd5b8151610cfb81610d45565b600060208284031215610dbb57600080fd5b5051919050565b80820180821115610de357634e487b7160e01b600052601160045260246000fd5b92915050565b60208082526021908201527f526577617264526f757465723a20696e76616c6964205f7475746f416d6f756e6040820152601d60fa1b60608201526080019056fea2646970667358221220afa5cb60d02a1eb20e15d0855fcf65a5df291ac1b2c64e70adbea67213ceaf0f64736f6c63430008140033","linkReferences":{}},"methodIdentifiers":{"claim()":"4e71d92d","compound()":"f69e2046","compoundForAccount(address)":"2a9f4083","depositUsdc(uint256)":"2357928e","feeTutoTracker()":"9f0670c4","feeUsdcTracker()":"755de87a","handleRewards(bool,bool)":"e7cf6c10","initialize(address,address,address)":"c0c53b8b","isInitialized()":"392e53cd","owner()":"8da5cb5b","renounceOwnership()":"715018a6","setOracleAddress(address)":"4c69c00f","stakeTuto(uint256)":"56cae6a1","transferOwnership(address)":"f2fde38b","tuto()":"dd649d56","unstakeTuto(uint256)":"11cd93e3","usdc()":"3e413bee","withdrawToken(address,address,uint256)":"01e33667","withdrawUsdc(uint256)":"5b06dece"},"id":14}