{"abi":[{"type":"constructor","inputs":[{"name":"_initialOwner","type":"address","internalType":"address"},{"name":"_totalSupply","type":"uint256","internalType":"uint256"}],"stateMutability":"nonpayable"},{"type":"function","name":"DOMAIN_SEPARATOR","inputs":[],"outputs":[{"name":"","type":"bytes32","internalType":"bytes32"}],"stateMutability":"view"},{"type":"function","name":"allowance","inputs":[{"name":"owner","type":"address","internalType":"address"},{"name":"spender","type":"address","internalType":"address"}],"outputs":[{"name":"","type":"uint256","internalType":"uint256"}],"stateMutability":"view"},{"type":"function","name":"approve","inputs":[{"name":"spender","type":"address","internalType":"address"},{"name":"value","type":"uint256","internalType":"uint256"}],"outputs":[{"name":"","type":"bool","internalType":"bool"}],"stateMutability":"nonpayable"},{"type":"function","name":"balanceOf","inputs":[{"name":"account","type":"address","internalType":"address"}],"outputs":[{"name":"","type":"uint256","internalType":"uint256"}],"stateMutability":"view"},{"type":"function","name":"burn","inputs":[{"name":"value","type":"uint256","internalType":"uint256"}],"outputs":[],"stateMutability":"nonpayable"},{"type":"function","name":"burnFrom","inputs":[{"name":"account","type":"address","internalType":"address"},{"name":"value","type":"uint256","internalType":"uint256"}],"outputs":[],"stateMutability":"nonpayable"},{"type":"function","name":"decimals","inputs":[],"outputs":[{"name":"","type":"uint8","internalType":"uint8"}],"stateMutability":"view"},{"type":"function","name":"eip712Domain","inputs":[],"outputs":[{"name":"fields","type":"bytes1","internalType":"bytes1"},{"name":"name","type":"string","internalType":"string"},{"name":"version","type":"string","internalType":"string"},{"name":"chainId","type":"uint256","internalType":"uint256"},{"name":"verifyingContract","type":"address","internalType":"address"},{"name":"salt","type":"bytes32","internalType":"bytes32"},{"name":"extensions","type":"uint256[]","internalType":"uint256[]"}],"stateMutability":"view"},{"type":"function","name":"limited","inputs":[],"outputs":[{"name":"","type":"bool","internalType":"bool"}],"stateMutability":"view"},{"type":"function","name":"maxHoldingAmount","inputs":[],"outputs":[{"name":"","type":"uint256","internalType":"uint256"}],"stateMutability":"view"},{"type":"function","name":"minHoldingAmount","inputs":[],"outputs":[{"name":"","type":"uint256","internalType":"uint256"}],"stateMutability":"view"},{"type":"function","name":"name","inputs":[],"outputs":[{"name":"","type":"string","internalType":"string"}],"stateMutability":"view"},{"type":"function","name":"nonces","inputs":[{"name":"owner","type":"address","internalType":"address"}],"outputs":[{"name":"","type":"uint256","internalType":"uint256"}],"stateMutability":"view"},{"type":"function","name":"owner","inputs":[],"outputs":[{"name":"","type":"address","internalType":"address"}],"stateMutability":"view"},{"type":"function","name":"permit","inputs":[{"name":"owner","type":"address","internalType":"address"},{"name":"spender","type":"address","internalType":"address"},{"name":"value","type":"uint256","internalType":"uint256"},{"name":"deadline","type":"uint256","internalType":"uint256"},{"name":"v","type":"uint8","internalType":"uint8"},{"name":"r","type":"bytes32","internalType":"bytes32"},{"name":"s","type":"bytes32","internalType":"bytes32"}],"outputs":[],"stateMutability":"nonpayable"},{"type":"function","name":"renounceOwnership","inputs":[],"outputs":[],"stateMutability":"nonpayable"},{"type":"function","name":"setRule","inputs":[{"name":"_limited","type":"bool","internalType":"bool"},{"name":"_uniswapV2Pair","type":"address","internalType":"address"},{"name":"_maxHoldingAmount","type":"uint256","internalType":"uint256"},{"name":"_minHoldingAmount","type":"uint256","internalType":"uint256"}],"outputs":[],"stateMutability":"nonpayable"},{"type":"function","name":"symbol","inputs":[],"outputs":[{"name":"","type":"string","internalType":"string"}],"stateMutability":"view"},{"type":"function","name":"totalSupply","inputs":[],"outputs":[{"name":"","type":"uint256","internalType":"uint256"}],"stateMutability":"view"},{"type":"function","name":"transfer","inputs":[{"name":"to","type":"address","internalType":"address"},{"name":"value","type":"uint256","internalType":"uint256"}],"outputs":[{"name":"","type":"bool","internalType":"bool"}],"stateMutability":"nonpayable"},{"type":"function","name":"transferFrom","inputs":[{"name":"from","type":"address","internalType":"address"},{"name":"to","type":"address","internalType":"address"},{"name":"value","type":"uint256","internalType":"uint256"}],"outputs":[{"name":"","type":"bool","internalType":"bool"}],"stateMutability":"nonpayable"},{"type":"function","name":"transferOwnership","inputs":[{"name":"newOwner","type":"address","internalType":"address"}],"outputs":[],"stateMutability":"nonpayable"},{"type":"function","name":"uniswapV2Pair","inputs":[],"outputs":[{"name":"","type":"address","internalType":"address"}],"stateMutability":"view"},{"type":"event","name":"Approval","inputs":[{"name":"owner","type":"address","indexed":true,"internalType":"address"},{"name":"spender","type":"address","indexed":true,"internalType":"address"},{"name":"value","type":"uint256","indexed":false,"internalType":"uint256"}],"anonymous":false},{"type":"event","name":"EIP712DomainChanged","inputs":[],"anonymous":false},{"type":"event","name":"OwnershipTransferred","inputs":[{"name":"previousOwner","type":"address","indexed":true,"internalType":"address"},{"name":"newOwner","type":"address","indexed":true,"internalType":"address"}],"anonymous":false},{"type":"event","name":"Transfer","inputs":[{"name":"from","type":"address","indexed":true,"internalType":"address"},{"name":"to","type":"address","indexed":true,"internalType":"address"},{"name":"value","type":"uint256","indexed":false,"internalType":"uint256"}],"anonymous":false},{"type":"error","name":"ECDSAInvalidSignature","inputs":[]},{"type":"error","name":"ECDSAInvalidSignatureLength","inputs":[{"name":"length","type":"uint256","internalType":"uint256"}]},{"type":"error","name":"ECDSAInvalidSignatureS","inputs":[{"name":"s","type":"bytes32","internalType":"bytes32"}]},{"type":"error","name":"ERC20InsufficientAllowance","inputs":[{"name":"spender","type":"address","internalType":"address"},{"name":"allowance","type":"uint256","internalType":"uint256"},{"name":"needed","type":"uint256","internalType":"uint256"}]},{"type":"error","name":"ERC20InsufficientBalance","inputs":[{"name":"sender","type":"address","internalType":"address"},{"name":"balance","type":"uint256","internalType":"uint256"},{"name":"needed","type":"uint256","internalType":"uint256"}]},{"type":"error","name":"ERC20InvalidApprover","inputs":[{"name":"approver","type":"address","internalType":"address"}]},{"type":"error","name":"ERC20InvalidReceiver","inputs":[{"name":"receiver","type":"address","internalType":"address"}]},{"type":"error","name":"ERC20InvalidSender","inputs":[{"name":"sender","type":"address","internalType":"address"}]},{"type":"error","name":"ERC20InvalidSpender","inputs":[{"name":"spender","type":"address","internalType":"address"}]},{"type":"error","name":"ERC2612ExpiredSignature","inputs":[{"name":"deadline","type":"uint256","internalType":"uint256"}]},{"type":"error","name":"ERC2612InvalidSigner","inputs":[{"name":"signer","type":"address","internalType":"address"},{"name":"owner","type":"address","internalType":"address"}]},{"type":"error","name":"InvalidAccountNonce","inputs":[{"name":"account","type":"address","internalType":"address"},{"name":"currentNonce","type":"uint256","internalType":"uint256"}]},{"type":"error","name":"InvalidShortString","inputs":[]},{"type":"error","name":"OwnableInvalidOwner","inputs":[{"name":"owner","type":"address","internalType":"address"}]},{"type":"error","name":"OwnableUnauthorizedAccount","inputs":[{"name":"account","type":"address","internalType":"address"}]},{"type":"error","name":"StringTooLong","inputs":[{"name":"str","type":"string","internalType":"string"}]}],"bytecode":{"object":"0x6101606040523480156200001257600080fd5b5060405162001ab038038062001ab0833981016040819052620000359162000519565b81604051806040016040528060048152602001635475746f60e01b81525080604051806040016040528060018152602001603160f81b815250604051806040016040528060048152602001635475746f60e01b815250604051806040016040528060048152602001635455544f60e01b8152508160039081620000b99190620005f9565b506004620000c88282620005f9565b50620000da91508390506005620001d3565b61012052620000eb816006620001d3565b61014052815160208084019190912060e052815190820120610100524660a0526200017960e05161010051604080517f8b73c3c69bb8fe3d512ecc4cf759cc79239f7b179b0ffacaa9a75d522b39400f60208201529081019290925260608201524660808201523060a082015260009060c00160405160208183030381529060405280519060200120905090565b60805250503060c052506001600160a01b038116620001b357604051631e4fbdf760e01b8152600060048201526024015b60405180910390fd5b620001be816200020c565b50620001cb33826200025e565b50506200075c565b6000602083511015620001f357620001eb836200029c565b905062000206565b81620002008482620005f9565b5060ff90505b92915050565b600880546001600160a01b038381166001600160a01b0319831681179093556040519116919082907f8be0079c531659141344cd1fd0a4f28419497f9722a3daafe3b4186f6b6457e090600090a35050565b6001600160a01b0382166200028a5760405163ec442f0560e01b815260006004820152602401620001aa565b6200029860008383620002df565b5050565b600080829050601f81511115620002ca578260405163305a27a960e01b8152600401620001aa9190620006c5565b8051620002d78262000715565b179392505050565b600854600160a01b900460ff16151560010362000303576200030383838362000315565b62000310838383620003e6565b505050565b600854600160a01b900460ff1680156200033c5750600b546001600160a01b038481169116145b1562000310576009548162000366846001600160a01b031660009081526020819052604090205490565b6200037291906200073a565b11158015620003af5750600a5481620003a0846001600160a01b031660009081526020819052604090205490565b620003ac91906200073a565b10155b620003105760405162461bcd60e51b8152602060048201526006602482015265119bdc989a5960d21b6044820152606401620001aa565b6001600160a01b038316620004155780600260008282546200040991906200073a565b90915550620004899050565b6001600160a01b038316600090815260208190526040902054818110156200046a5760405163391434e360e21b81526001600160a01b03851660048201526024810182905260448101839052606401620001aa565b6001600160a01b03841660009081526020819052604090209082900390555b6001600160a01b038216620004a757600280548290039055620004c6565b6001600160a01b03821660009081526020819052604090208054820190555b816001600160a01b0316836001600160a01b03167fddf252ad1be2c89b69c2b068fc378daa952ba7f163c4a11628f55a4df523b3ef836040516200050c91815260200190565b60405180910390a3505050565b600080604083850312156200052d57600080fd5b82516001600160a01b03811681146200054557600080fd5b6020939093015192949293505050565b634e487b7160e01b600052604160045260246000fd5b600181811c908216806200058057607f821691505b602082108103620005a157634e487b7160e01b600052602260045260246000fd5b50919050565b601f8211156200031057600081815260208120601f850160051c81016020861015620005d05750805b601f850160051c820191505b81811015620005f157828155600101620005dc565b505050505050565b81516001600160401b0381111562000615576200061562000555565b6200062d816200062684546200056b565b84620005a7565b602080601f8311600181146200066557600084156200064c5750858301515b600019600386901b1c1916600185901b178555620005f1565b600085815260208120601f198616915b82811015620006965788860151825594840194600190910190840162000675565b5085821015620006b55787850151600019600388901b60f8161c191681555b5050505050600190811b01905550565b600060208083528351808285015260005b81811015620006f457858101830151858201604001528201620006d6565b506000604082860101526040601f19601f8301168501019250505092915050565b80516020808301519190811015620005a15760001960209190910360031b1b16919050565b808201808211156200020657634e487b7160e01b600052601160045260246000fd5b60805160a05160c05160e0516101005161012051610140516112f9620007b760003960006109ab0152600061097e0152600061087101526000610849015260006107a4015260006107ce015260006107f801526112f96000f3fe608060405234801561001057600080fd5b506004361061014d5760003560e01c8063715018a6116100c35780638da5cb5b1161007c5780638da5cb5b146102ba57806395d89b41146102cb578063a9059cbb146102d3578063d505accf146102e6578063dd62ed3e146102f9578063f2fde38b1461033257600080fd5b8063715018a61461025457806379cc67901461025c5780637ecebe001461026f57806384b0196e14610282578063860a32ec1461029d57806389f9a1d3146102b157600080fd5b8063313ce56711610115578063313ce567146101c15780633644e515146101d05780633aa633aa146101d857806342966c68146101ed57806349bd5a5e1461020057806370a082311461022b57600080fd5b806306fdde0314610152578063095ea7b31461017057806318160ddd146101935780631ab99e12146101a557806323b872dd146101ae575b600080fd5b61015a610345565b6040516101679190610ffd565b60405180910390f35b61018361017e366004611033565b6103d7565b6040519015158152602001610167565b6002545b604051908152602001610167565b610197600a5481565b6101836101bc36600461105d565b6103f1565b60405160128152602001610167565b610197610415565b6101eb6101e6366004611099565b610424565b005b6101eb6101fb3660046110e2565b610473565b600b54610213906001600160a01b031681565b6040516001600160a01b039091168152602001610167565b6101976102393660046110fb565b6001600160a01b031660009081526020819052604090205490565b6101eb610480565b6101eb61026a366004611033565b610494565b61019761027d3660046110fb565b6104ad565b61028a6104cb565b6040516101679796959493929190611116565b60085461018390600160a01b900460ff1681565b61019760095481565b6008546001600160a01b0316610213565b61015a610511565b6101836102e1366004611033565b610520565b6101eb6102f43660046111ac565b61052e565b61019761030736600461121f565b6001600160a01b03918216600090815260016020908152604080832093909416825291909152205490565b6101eb6103403660046110fb565b61066d565b60606003805461035490611252565b80601f016020809104026020016040519081016040528092919081815260200182805461038090611252565b80156103cd5780601f106103a2576101008083540402835291602001916103cd565b820191906000526020600020905b8154815290600101906020018083116103b057829003601f168201915b5050505050905090565b6000336103e58185856106a8565b60019150505b92915050565b6000336103ff8582856106ba565b61040a858585610738565b506001949350505050565b600061041f610797565b905090565b61042c6108c2565b60088054941515600160a01b0260ff60a01b1990951694909417909355600b80546001600160a01b039093166001600160a01b031990931692909217909155600955600a55565b61047d33826108ef565b50565b6104886108c2565b6104926000610925565b565b61049f8233836106ba565b6104a982826108ef565b5050565b6001600160a01b0381166000908152600760205260408120546103eb565b6000606080600080600060606104df610977565b6104e76109a4565b60408051600080825260208201909252600f60f81b9b939a50919850469750309650945092509050565b60606004805461035490611252565b6000336103e5818585610738565b834211156105575760405163313c898160e11b8152600481018590526024015b60405180910390fd5b60007f6e71edae12b1b97f4d1f60370fef10105fa2faae0126114a169c64845d6126c98888886105a48c6001600160a01b0316600090815260076020526040902080546001810190915590565b6040805160208101969096526001600160a01b0394851690860152929091166060840152608083015260a082015260c0810186905260e00160405160208183030381529060405280519060200120905060006105ff826109d1565b9050600061060f828787876109fe565b9050896001600160a01b0316816001600160a01b031614610656576040516325c0072360e11b81526001600160a01b0380831660048301528b16602482015260440161054e565b6106618a8a8a6106a8565b50505050505050505050565b6106756108c2565b6001600160a01b03811661069f57604051631e4fbdf760e01b81526000600482015260240161054e565b61047d81610925565b6106b58383836001610a2c565b505050565b6001600160a01b038381166000908152600160209081526040808320938616835292905220546000198114610732578181101561072357604051637dc7a0d960e11b81526001600160a01b0384166004820152602481018290526044810183905260640161054e565b61073284848484036000610a2c565b50505050565b6001600160a01b03831661076257604051634b637e8f60e11b81526000600482015260240161054e565b6001600160a01b03821661078c5760405163ec442f0560e01b81526000600482015260240161054e565b6106b5838383610b01565b6000306001600160a01b037f0000000000000000000000000000000000000000000000000000000000000000161480156107f057507f000000000000000000000000000000000000000000000000000000000000000046145b1561081a57507f000000000000000000000000000000000000000000000000000000000000000090565b61041f604080517f8b73c3c69bb8fe3d512ecc4cf759cc79239f7b179b0ffacaa9a75d522b39400f60208201527f0000000000000000000000000000000000000000000000000000000000000000918101919091527f000000000000000000000000000000000000000000000000000000000000000060608201524660808201523060a082015260009060c00160405160208183030381529060405280519060200120905090565b6008546001600160a01b031633146104925760405163118cdaa760e01b815233600482015260240161054e565b6001600160a01b03821661091957604051634b637e8f60e11b81526000600482015260240161054e565b6104a982600083610b01565b600880546001600160a01b038381166001600160a01b0319831681179093556040519116919082907f8be0079c531659141344cd1fd0a4f28419497f9722a3daafe3b4186f6b6457e090600090a35050565b606061041f7f00000000000000000000000000000000000000000000000000000000000000006005610b2d565b606061041f7f00000000000000000000000000000000000000000000000000000000000000006006610b2d565b60006103eb6109de610797565b8360405161190160f01b8152600281019290925260228201526042902090565b600080600080610a1088888888610bd8565b925092509250610a208282610ca7565b50909695505050505050565b6001600160a01b038416610a565760405163e602df0560e01b81526000600482015260240161054e565b6001600160a01b038316610a8057604051634a1406b160e11b81526000600482015260240161054e565b6001600160a01b038085166000908152600160209081526040808320938716835292905220829055801561073257826001600160a01b0316846001600160a01b03167f8c5be1e5ebec7d5bd14f71427d1e84f3dd0314c0f7b2291e5b200ac8c7c3b92584604051610af391815260200190565b60405180910390a350505050565b600854600160a01b900460ff161515600103610b2257610b22838383610d60565b6106b5838383610e26565b606060ff8314610b4757610b4083610f50565b90506103eb565b818054610b5390611252565b80601f0160208091040260200160405190810160405280929190818152602001828054610b7f90611252565b8015610bcc5780601f10610ba157610100808354040283529160200191610bcc565b820191906000526020600020905b815481529060010190602001808311610baf57829003601f168201915b505050505090506103eb565b600080807f7fffffffffffffffffffffffffffffff5d576e7357a4501ddfe92f46681b20a0841115610c135750600091506003905082610c9d565b604080516000808252602082018084528a905260ff891692820192909252606081018790526080810186905260019060a0016020604051602081039080840390855afa158015610c67573d6000803e3d6000fd5b5050604051601f1901519150506001600160a01b038116610c9357506000925060019150829050610c9d565b9250600091508190505b9450945094915050565b6000826003811115610cbb57610cbb61128c565b03610cc4575050565b6001826003811115610cd857610cd861128c565b03610cf65760405163f645eedf60e01b815260040160405180910390fd5b6002826003811115610d0a57610d0a61128c565b03610d2b5760405163fce698f760e01b81526004810182905260240161054e565b6003826003811115610d3f57610d3f61128c565b036104a9576040516335e2f38360e21b81526004810182905260240161054e565b600854600160a01b900460ff168015610d865750600b546001600160a01b038481169116145b156106b55760095481610dae846001600160a01b031660009081526020819052604090205490565b610db891906112a2565b11158015610df15750600a5481610de4846001600160a01b031660009081526020819052604090205490565b610dee91906112a2565b10155b6106b55760405162461bcd60e51b8152602060048201526006602482015265119bdc989a5960d21b604482015260640161054e565b6001600160a01b038316610e51578060026000828254610e4691906112a2565b90915550610ec39050565b6001600160a01b03831660009081526020819052604090205481811015610ea45760405163391434e360e21b81526001600160a01b0385166004820152602481018290526044810183905260640161054e565b6001600160a01b03841660009081526020819052604090209082900390555b6001600160a01b038216610edf57600280548290039055610efe565b6001600160a01b03821660009081526020819052604090208054820190555b816001600160a01b0316836001600160a01b03167fddf252ad1be2c89b69c2b068fc378daa952ba7f163c4a11628f55a4df523b3ef83604051610f4391815260200190565b60405180910390a3505050565b60606000610f5d83610f8f565b604080516020808252818301909252919250600091906020820181803683375050509182525060208101929092525090565b600060ff8216601f8111156103eb57604051632cd44ac360e21b815260040160405180910390fd5b6000815180845260005b81811015610fdd57602081850181015186830182015201610fc1565b506000602082860101526020601f19601f83011685010191505092915050565b6020815260006110106020830184610fb7565b9392505050565b80356001600160a01b038116811461102e57600080fd5b919050565b6000806040838503121561104657600080fd5b61104f83611017565b946020939093013593505050565b60008060006060848603121561107257600080fd5b61107b84611017565b925061108960208501611017565b9150604084013590509250925092565b600080600080608085870312156110af57600080fd5b843580151581146110bf57600080fd5b93506110cd60208601611017565b93969395505050506040820135916060013590565b6000602082840312156110f457600080fd5b5035919050565b60006020828403121561110d57600080fd5b61101082611017565b60ff60f81b881681526000602060e08184015261113660e084018a610fb7565b8381036040850152611148818a610fb7565b606085018990526001600160a01b038816608086015260a0850187905284810360c0860152855180825283870192509083019060005b8181101561119a5783518352928401929184019160010161117e565b50909c9b505050505050505050505050565b600080600080600080600060e0888a0312156111c757600080fd5b6111d088611017565b96506111de60208901611017565b95506040880135945060608801359350608088013560ff8116811461120257600080fd5b9699959850939692959460a0840135945060c09093013592915050565b6000806040838503121561123257600080fd5b61123b83611017565b915061124960208401611017565b90509250929050565b600181811c9082168061126657607f821691505b60208210810361128657634e487b7160e01b600052602260045260246000fd5b50919050565b634e487b7160e01b600052602160045260246000fd5b808201808211156103eb57634e487b7160e01b600052601160045260246000fdfea2646970667358221220ffda9686b06d96e8313712a4c646c0c3a0910141c0ab6c2da1ed73e546011df264736f6c63430008140033","linkReferences":{}},"methodIdentifiers":{"DOMAIN_SEPARATOR()":"3644e515","allowance(address,address)":"dd62ed3e","approve(address,uint256)":"095ea7b3","balanceOf(address)":"70a08231","burn(uint256)":"42966c68","burnFrom(address,uint256)":"79cc6790","decimals()":"313ce567","eip712Domain()":"84b0196e","limited()":"860a32ec","maxHoldingAmount()":"89f9a1d3","minHoldingAmount()":"1ab99e12","name()":"06fdde03","nonces(address)":"7ecebe00","owner()":"8da5cb5b","permit(address,address,uint256,uint256,uint8,bytes32,bytes32)":"d505accf","renounceOwnership()":"715018a6","setRule(bool,address,uint256,uint256)":"3aa633aa","symbol()":"95d89b41","totalSupply()":"18160ddd","transfer(address,uint256)":"a9059cbb","transferFrom(address,address,uint256)":"23b872dd","transferOwnership(address)":"f2fde38b","uniswapV2Pair()":"49bd5a5e"},"id":47}