{"abi":[{"type":"constructor","inputs":[{"name":"_feeUsdcTracker","type":"address","internalType":"address"},{"name":"_rewardRouter","type":"address","internalType":"address"},{"name":"_initialOwner","type":"address","internalType":"address"}],"stateMutability":"nonpayable"},{"type":"function","name":"feeUsdcTracker","inputs":[],"outputs":[{"name":"","type":"address","internalType":"address"}],"stateMutability":"view"},{"type":"function","name":"owner","inputs":[],"outputs":[{"name":"","type":"address","internalType":"address"}],"stateMutability":"view"},{"type":"function","name":"renounceOwnership","inputs":[],"outputs":[],"stateMutability":"nonpayable"},{"type":"function","name":"rewardRouter","inputs":[],"outputs":[{"name":"","type":"address","internalType":"address"}],"stateMutability":"view"},{"type":"function","name":"setRewardRouterAddress","inputs":[{"name":"_rewardRouter","type":"address","internalType":"address"}],"outputs":[],"stateMutability":"nonpayable"},{"type":"function","name":"stakedUsdcTracker","inputs":[],"outputs":[{"name":"","type":"address","internalType":"address"}],"stateMutability":"view"},{"type":"function","name":"transferOwnership","inputs":[{"name":"newOwner","type":"address","internalType":"address"}],"outputs":[],"stateMutability":"nonpayable"},{"type":"function","name":"updateAmountsAndUnstake","inputs":[{"name":"_stakedAmount","type":"uint256","internalType":"uint256"},{"name":"_account","type":"address","internalType":"address"},{"name":"_amount","type":"uint256","internalType":"uint256"}],"outputs":[],"stateMutability":"nonpayable"},{"type":"function","name":"updateStakedAmountsEndDay","inputs":[{"name":"_stakedAmounts","type":"uint256[]","internalType":"uint256[]"},{"name":"_accounts","type":"address[]","internalType":"address[]"}],"outputs":[],"stateMutability":"nonpayable"},{"type":"function","name":"updateUserBalance","inputs":[{"name":"_account","type":"address","internalType":"address"},{"name":"_amount","type":"uint256","internalType":"uint256"}],"outputs":[],"stateMutability":"nonpayable"},{"type":"function","name":"withdrawEth","inputs":[],"outputs":[],"stateMutability":"nonpayable"},{"type":"event","name":"OwnershipTransferred","inputs":[{"name":"previousOwner","type":"address","indexed":true,"internalType":"address"},{"name":"newOwner","type":"address","indexed":true,"internalType":"address"}],"anonymous":false},{"type":"event","name":"SetUserBalanceEvent","inputs":[{"name":"_userBalance","type":"uint256","indexed":false,"internalType":"uint256"},{"name":"_callerAddress","type":"address","indexed":false,"internalType":"address"},{"name":"_amount","type":"uint256","indexed":false,"internalType":"uint256"}],"anonymous":false},{"type":"event","name":"UpdateUserBalanceEvent","inputs":[{"name":"callerAddress","type":"address","indexed":false,"internalType":"address"},{"name":"amount","type":"uint256","indexed":false,"internalType":"uint256"},{"name":"","type":"bool","indexed":false,"internalType":"bool"}],"anonymous":false},{"type":"error","name":"OwnableInvalidOwner","inputs":[{"name":"owner","type":"address","internalType":"address"}]},{"type":"error","name":"OwnableUnauthorizedAccount","inputs":[{"name":"account","type":"address","internalType":"address"}]}],"bytecode":{"object":"0x60806040526003805460ff60a01b1916600160a01b17905534801561002357600080fd5b5060405161089f38038061089f83398101604081905261004291610119565b806001600160a01b03811661007157604051631e4fbdf760e01b81526000600482015260240160405180910390fd5b61007a816100ad565b5050600180546001600160a01b039384166001600160a01b0319918216179091556003805492909316911617905561015c565b600080546001600160a01b038381166001600160a01b0319831681178455604051919092169283917f8be0079c531659141344cd1fd0a4f28419497f9722a3daafe3b4186f6b6457e09190a35050565b80516001600160a01b038116811461011457600080fd5b919050565b60008060006060848603121561012e57600080fd5b610137846100fd565b9250610145602085016100fd565b9150610153604085016100fd565b90509250925092565b6107348061016b6000396000f3fe608060405234801561001057600080fd5b50600436106100a95760003560e01c8063755de87a11610071578063755de87a146101205780637eec638e146101335780638da5cb5b14610146578063a0ef91df14610157578063e9eae3261461015f578063f2fde38b1461017257600080fd5b806301d3bd15146100ae57806309700982146100c35780635a3bb989146100f25780635eba6e4714610105578063715018a614610118575b600080fd5b6100c16100bc366004610463565b610185565b005b6002546100d6906001600160a01b031681565b6040516001600160a01b03909116815260200160405180910390f35b6003546100d6906001600160a01b031681565b6100c1610113366004610485565b6101af565b6100c161020b565b6001546100d6906001600160a01b031681565b6100c161014136600461058c565b61021f565b6000546001600160a01b03166100d6565b6100c161028f565b6100c161016d366004610645565b6102c6565b6100c1610180366004610463565b61038a565b61018d6103ca565b600380546001600160a01b0319166001600160a01b0392909216919091179055565b600354604080516001600160a01b038516815260208101849052600160a01b90920460ff161515908201527f6032c7bf4af6f5966c2198f50740ad089efe7a993ac5a32c770c36905be759aa9060600160405180910390a15050565b6102136103ca565b61021d60006103f7565b565b6102276103ca565b60015460405163429dcee560e11b81526001600160a01b039091169063853b9dca90610259908490869060040161067a565b600060405180830381600087803b15801561027357600080fd5b505af1158015610287573d6000803e3d6000fd5b505050505050565b6102976103ca565b60405133904780156108fc02916000818181858888f193505050501580156102c3573d6000803e3d6000fd5b50565b6102ce6103ca565b6001546040516349a3493f60e01b81526001600160a01b0384811660048301526024820186905260448201849052909116906349a3493f90606401600060405180830381600087803b15801561032357600080fd5b505af1158015610337573d6000803e3d6000fd5b5050604080518681526001600160a01b03861660208201529081018490527f6e68ad968bba36f4860cfcc190620bd8f3ae87fe566a80a0c503e8bdf9858c619250606001905060405180910390a1505050565b6103926103ca565b6001600160a01b0381166103c157604051631e4fbdf760e01b8152600060048201526024015b60405180910390fd5b6102c3816103f7565b6000546001600160a01b0316331461021d5760405163118cdaa760e01b81523360048201526024016103b8565b600080546001600160a01b038381166001600160a01b0319831681178455604051919092169283917f8be0079c531659141344cd1fd0a4f28419497f9722a3daafe3b4186f6b6457e09190a35050565b80356001600160a01b038116811461045e57600080fd5b919050565b60006020828403121561047557600080fd5b61047e82610447565b9392505050565b6000806040838503121561049857600080fd5b6104a183610447565b946020939093013593505050565b634e487b7160e01b600052604160045260246000fd5b604051601f8201601f1916810167ffffffffffffffff811182821017156104ee576104ee6104af565b604052919050565b600067ffffffffffffffff821115610510576105106104af565b5060051b60200190565b600082601f83011261052b57600080fd5b8135602061054061053b836104f6565b6104c5565b82815260059290921b8401810191818101908684111561055f57600080fd5b8286015b848110156105815761057481610447565b8352918301918301610563565b509695505050505050565b6000806040838503121561059f57600080fd5b823567ffffffffffffffff808211156105b757600080fd5b818501915085601f8301126105cb57600080fd5b813560206105db61053b836104f6565b82815260059290921b840181019181810190898411156105fa57600080fd5b948201945b83861015610618578535825294820194908201906105ff565b9650508601359250508082111561062e57600080fd5b5061063b8582860161051a565b9150509250929050565b60008060006060848603121561065a57600080fd5b8335925061066a60208501610447565b9150604084013590509250925092565b604080825283519082018190526000906020906060840190828701845b828110156106bc5781516001600160a01b031684529284019290840190600101610697565b5050508381038285015284518082528583019183019060005b818110156106f1578351835292840192918401916001016106d5565b509097965050505050505056fea2646970667358221220991243f8e2b5ddf11721fb856830cb5f9ba65a2e095d60e62a1a2e70a2916d9964736f6c63430008140033","linkReferences":{}},"methodIdentifiers":{"feeUsdcTracker()":"755de87a","owner()":"8da5cb5b","renounceOwnership()":"715018a6","rewardRouter()":"5a3bb989","setRewardRouterAddress(address)":"01d3bd15","stakedUsdcTracker()":"09700982","transferOwnership(address)":"f2fde38b","updateAmountsAndUnstake(uint256,address,uint256)":"e9eae326","updateStakedAmountsEndDay(uint256[],address[])":"7eec638e","updateUserBalance(address,uint256)":"5eba6e47","withdrawEth()":"a0ef91df"},"id":0}