{"abi":[{"type":"constructor","inputs":[{"name":"_initialOwner","type":"address","internalType":"address"},{"name":"_name","type":"string","internalType":"string"},{"name":"_symbol","type":"string","internalType":"string"},{"name":"_handler","type":"address","internalType":"address"},{"name":"_isActive","type":"bool","internalType":"bool"}],"stateMutability":"nonpayable"},{"type":"function","name":"PRECISION","inputs":[],"outputs":[{"name":"","type":"uint256","internalType":"uint256"}],"stateMutability":"view"},{"type":"function","name":"allowance","inputs":[{"name":"_owner","type":"address","internalType":"address"},{"name":"_spender","type":"address","internalType":"address"}],"outputs":[{"name":"","type":"uint256","internalType":"uint256"}],"stateMutability":"view"},{"type":"function","name":"allowances","inputs":[{"name":"","type":"address","internalType":"address"},{"name":"","type":"address","internalType":"address"}],"outputs":[{"name":"","type":"uint256","internalType":"uint256"}],"stateMutability":"view"},{"type":"function","name":"approve","inputs":[{"name":"_spender","type":"address","internalType":"address"},{"name":"_amount","type":"uint256","internalType":"uint256"}],"outputs":[{"name":"","type":"bool","internalType":"bool"}],"stateMutability":"nonpayable"},{"type":"function","name":"balanceOf","inputs":[{"name":"_account","type":"address","internalType":"address"}],"outputs":[{"name":"","type":"uint256","internalType":"uint256"}],"stateMutability":"view"},{"type":"function","name":"balances","inputs":[{"name":"","type":"address","internalType":"address"}],"outputs":[{"name":"","type":"uint256","internalType":"uint256"}],"stateMutability":"view"},{"type":"function","name":"claimForAccount","inputs":[{"name":"_account","type":"address","internalType":"address"},{"name":"_receiver","type":"address","internalType":"address"}],"outputs":[{"name":"","type":"uint256","internalType":"uint256"}],"stateMutability":"nonpayable"},{"type":"function","name":"claimable","inputs":[{"name":"_account","type":"address","internalType":"address"}],"outputs":[{"name":"","type":"uint256","internalType":"uint256"}],"stateMutability":"view"},{"type":"function","name":"claimableReward","inputs":[{"name":"","type":"address","internalType":"address"}],"outputs":[{"name":"","type":"uint256","internalType":"uint256"}],"stateMutability":"view"},{"type":"function","name":"cumulativeRewardPerToken","inputs":[],"outputs":[{"name":"","type":"uint256","internalType":"uint256"}],"stateMutability":"view"},{"type":"function","name":"cumulativeRewards","inputs":[{"name":"","type":"address","internalType":"address"}],"outputs":[{"name":"","type":"uint256","internalType":"uint256"}],"stateMutability":"view"},{"type":"function","name":"decimals","inputs":[],"outputs":[{"name":"","type":"uint8","internalType":"uint8"}],"stateMutability":"view"},{"type":"function","name":"depositToken","inputs":[],"outputs":[{"name":"","type":"address","internalType":"address"}],"stateMutability":"view"},{"type":"function","name":"inPrivateStakingMode","inputs":[],"outputs":[{"name":"","type":"bool","internalType":"bool"}],"stateMutability":"view"},{"type":"function","name":"inPrivateTransferMode","inputs":[],"outputs":[{"name":"","type":"bool","internalType":"bool"}],"stateMutability":"view"},{"type":"function","name":"initialize","inputs":[{"name":"_depositToken","type":"address","internalType":"address"},{"name":"_rewardToken","type":"address","internalType":"address"}],"outputs":[],"stateMutability":"nonpayable"},{"type":"function","name":"isHandler","inputs":[{"name":"","type":"address","internalType":"address"}],"outputs":[{"name":"","type":"bool","internalType":"bool"}],"stateMutability":"view"},{"type":"function","name":"isInitialized","inputs":[],"outputs":[{"name":"","type":"bool","internalType":"bool"}],"stateMutability":"view"},{"type":"function","name":"lastDistributionTime","inputs":[],"outputs":[{"name":"","type":"uint256","internalType":"uint256"}],"stateMutability":"view"},{"type":"function","name":"name","inputs":[],"outputs":[{"name":"","type":"string","internalType":"string"}],"stateMutability":"view"},{"type":"function","name":"owner","inputs":[],"outputs":[{"name":"","type":"address","internalType":"address"}],"stateMutability":"view"},{"type":"function","name":"pendingRewards","inputs":[],"outputs":[{"name":"","type":"uint256","internalType":"uint256"}],"stateMutability":"view"},{"type":"function","name":"previousCumulatedRewardPerToken","inputs":[{"name":"","type":"address","internalType":"address"}],"outputs":[{"name":"","type":"uint256","internalType":"uint256"}],"stateMutability":"view"},{"type":"function","name":"renounceOwnership","inputs":[],"outputs":[],"stateMutability":"nonpayable"},{"type":"function","name":"rewardToken","inputs":[],"outputs":[{"name":"","type":"address","internalType":"address"}],"stateMutability":"view"},{"type":"function","name":"setHandler","inputs":[{"name":"_handler","type":"address","internalType":"address"},{"name":"_isActive","type":"bool","internalType":"bool"}],"outputs":[],"stateMutability":"nonpayable"},{"type":"function","name":"setInPrivateModes","inputs":[{"name":"_inPrivateTransferMode","type":"bool","internalType":"bool"},{"name":"_inPrivateStakingMode","type":"bool","internalType":"bool"}],"outputs":[],"stateMutability":"nonpayable"},{"type":"function","name":"setTokensPerInterval","inputs":[{"name":"_amount","type":"uint256","internalType":"uint256"}],"outputs":[],"stateMutability":"nonpayable"},{"type":"function","name":"stakeForAccount","inputs":[{"name":"_fundingAccount","type":"address","internalType":"address"},{"name":"_account","type":"address","internalType":"address"},{"name":"_depositToken","type":"address","internalType":"address"},{"name":"_amount","type":"uint256","internalType":"uint256"}],"outputs":[],"stateMutability":"nonpayable"},{"type":"function","name":"stakedAmounts","inputs":[{"name":"","type":"address","internalType":"address"}],"outputs":[{"name":"","type":"uint256","internalType":"uint256"}],"stateMutability":"view"},{"type":"function","name":"symbol","inputs":[],"outputs":[{"name":"","type":"string","internalType":"string"}],"stateMutability":"view"},{"type":"function","name":"tokensPerInterval","inputs":[],"outputs":[{"name":"","type":"uint256","internalType":"uint256"}],"stateMutability":"view"},{"type":"function","name":"totalDepositSupply","inputs":[{"name":"","type":"address","internalType":"address"}],"outputs":[{"name":"","type":"uint256","internalType":"uint256"}],"stateMutability":"view"},{"type":"function","name":"totalSupply","inputs":[],"outputs":[{"name":"","type":"uint256","internalType":"uint256"}],"stateMutability":"view"},{"type":"function","name":"transfer","inputs":[{"name":"_recipient","type":"address","internalType":"address"},{"name":"_amount","type":"uint256","internalType":"uint256"}],"outputs":[{"name":"","type":"bool","internalType":"bool"}],"stateMutability":"nonpayable"},{"type":"function","name":"transferFrom","inputs":[{"name":"_sender","type":"address","internalType":"address"},{"name":"_recipient","type":"address","internalType":"address"},{"name":"_amount","type":"uint256","internalType":"uint256"}],"outputs":[{"name":"","type":"bool","internalType":"bool"}],"stateMutability":"nonpayable"},{"type":"function","name":"transferOwnership","inputs":[{"name":"newOwner","type":"address","internalType":"address"}],"outputs":[],"stateMutability":"nonpayable"},{"type":"function","name":"unstakeForAccount","inputs":[{"name":"_account","type":"address","internalType":"address"},{"name":"_depositToken","type":"address","internalType":"address"},{"name":"_amount","type":"uint256","internalType":"uint256"},{"name":"_receiver","type":"address","internalType":"address"}],"outputs":[],"stateMutability":"nonpayable"},{"type":"function","name":"updateLastDistributionTime","inputs":[],"outputs":[],"stateMutability":"nonpayable"},{"type":"function","name":"updateRewards","inputs":[],"outputs":[],"stateMutability":"nonpayable"},{"type":"event","name":"Approval","inputs":[{"name":"owner","type":"address","indexed":true,"internalType":"address"},{"name":"spender","type":"address","indexed":true,"internalType":"address"},{"name":"value","type":"uint256","indexed":false,"internalType":"uint256"}],"anonymous":false},{"type":"event","name":"Claim","inputs":[{"name":"receiver","type":"address","indexed":false,"internalType":"address"},{"name":"amount","type":"uint256","indexed":false,"internalType":"uint256"}],"anonymous":false},{"type":"event","name":"OwnershipTransferred","inputs":[{"name":"previousOwner","type":"address","indexed":true,"internalType":"address"},{"name":"newOwner","type":"address","indexed":true,"internalType":"address"}],"anonymous":false},{"type":"event","name":"TokensPerIntervalChange","inputs":[{"name":"amount","type":"uint256","indexed":false,"internalType":"uint256"}],"anonymous":false},{"type":"event","name":"Transfer","inputs":[{"name":"from","type":"address","indexed":true,"internalType":"address"},{"name":"to","type":"address","indexed":true,"internalType":"address"},{"name":"value","type":"uint256","indexed":false,"internalType":"uint256"}],"anonymous":false},{"type":"error","name":"OwnableInvalidOwner","inputs":[{"name":"owner","type":"address","internalType":"address"}]},{"type":"error","name":"OwnableUnauthorizedAccount","inputs":[{"name":"account","type":"address","internalType":"address"}]},{"type":"error","name":"ReentrancyGuardReentrantCall","inputs":[]}],"bytecode":{"object":"0x60806040523480156200001157600080fd5b50604051620021f5380380620021f58339810160408190526200003491620001fa565b6001600055846001600160a01b0381166200006957604051631e4fbdf760e01b81526000600482015260240160405180910390fd5b6200007481620000c6565b50600762000083858262000334565b50600862000092848262000334565b506001600160a01b03919091166000908152601260205260409020805460ff19169115159190911790555062000400915050565b600180546001600160a01b038381166001600160a01b0319831681179093556040519116919082907f8be0079c531659141344cd1fd0a4f28419497f9722a3daafe3b4186f6b6457e090600090a35050565b80516001600160a01b03811681146200013057600080fd5b919050565b634e487b7160e01b600052604160045260246000fd5b600082601f8301126200015d57600080fd5b81516001600160401b03808211156200017a576200017a62000135565b604051601f8301601f19908116603f01168101908282118183101715620001a557620001a562000135565b81604052838152602092508683858801011115620001c257600080fd5b600091505b83821015620001e65785820183015181830184015290820190620001c7565b600093810190920192909252949350505050565b600080600080600060a086880312156200021357600080fd5b6200021e8662000118565b60208701519095506001600160401b03808211156200023c57600080fd5b6200024a89838a016200014b565b955060408801519150808211156200026157600080fd5b5062000270888289016200014b565b935050620002816060870162000118565b9150608086015180151581146200029757600080fd5b809150509295509295909350565b600181811c90821680620002ba57607f821691505b602082108103620002db57634e487b7160e01b600052602260045260246000fd5b50919050565b601f8211156200032f57600081815260208120601f850160051c810160208610156200030a5750805b601f850160051c820191505b818110156200032b5782815560010162000316565b5050505b505050565b81516001600160401b0381111562000350576200035062000135565b6200036881620003618454620002a5565b84620002e1565b602080601f831160018114620003a05760008415620003875750858301515b600019600386901b1c1916600185901b1785556200032b565b600085815260208120601f198616915b82811015620003d157888601518255948401946001909101908401620003b0565b5085821015620003f05787850151600019600388901b60f8161c191681555b5050505050600190811b01905550565b611de580620004106000396000f3fe608060405234801561001057600080fd5b50600436106102485760003560e01c8063595748801161013b578063aaf5eb68116100b8578063e95034251161007c578063e95034251461057f578063eded3fda1461059f578063f2fde38b146105a7578063f5fc5076146105ba578063f7c618c1146105c357600080fd5b8063aaf5eb68146104fa578063c5fa27301461050e578063c89039c514610521578063dd62ed3e14610534578063dfbaefb11461056d57600080fd5b80638da5cb5b116100ff5780638da5cb5b1461049e57806395d89b41146104c35780639cb7de4b146104cb578063a8d93627146104de578063a9059cbb146104e757600080fd5b8063595748801461043e57806370a0823114610451578063715018a61461047a57806375b1735014610482578063790b5a6c1461048b57600080fd5b80633792def3116101c957806344a084111161018d57806344a084111461039d57806346ea87af146103bd578063485cc955146103e0578063552ce1dc146103f357806355b6ed5c1461041357600080fd5b80633792def31461034d578063392e53cd1461036d5780633ae6d6eb1461037a5780633e158b0c14610382578063402914f51461038a57600080fd5b806318160ddd1161021057806318160ddd146102e457806318e20a03146102ed57806323b872dd1461030057806327e235e314610313578063313ce5671461033357600080fd5b806306fdde031461024d578063095ea7b31461026b578063098bf59d1461028e57806310c1c103146102a357806313e82e7a146102d1575b600080fd5b6102556105d6565b6040516102629190611a28565b60405180910390f35b61027e610279366004611a77565b610664565b6040519015158152602001610262565b6102a161029c366004611aa1565b61067b565b005b6102c36102b1366004611aee565b600e6020526000908152604090205481565b604051908152602001610262565b6102c36102df366004611b09565b6106a7565b6102c360045481565b6102a16102fb366004611b3c565b6106cf565b61027e61030e366004611b55565b610787565b6102c3610321366004611aee565b600c6020526000908152604090205481565b61033b601281565b60405160ff9091168152602001610262565b6102c361035b366004611aee565b60116020526000908152604090205481565b60065461027e9060ff1681565b6102a1610821565b6102a161082f565b6102c3610398366004611aee565b61084d565b6102c36103ab366004611aee565b60106020526000908152604090205481565b61027e6103cb366004611aee565b60126020526000908152604090205460ff1681565b6102a16103ee366004611b09565b610940565b6102c3610401366004611aee565b600b6020526000908152604090205481565b6102c3610421366004611b09565b600d60209081526000928352604080842090915290825290205481565b6102a161044c366004611b9f565b6109e1565b6102c361045f366004611aee565b6001600160a01b03166000908152600c602052604090205490565b6102a1610a17565b6102c360035481565b6102a1610499366004611bd8565b610a29565b6001546001600160a01b03165b6040516001600160a01b039091168152602001610262565b610255610a45565b6102a16104d9366004611c23565b610a52565b6102c360025481565b61027e6104f5366004611a77565b610a85565b6102c36c0c9f2c9cd04674edea4000000081565b60065461027e9062010000900460ff1681565b6009546104ab906001600160a01b031681565b6102c3610542366004611b09565b6001600160a01b039182166000908152600d6020908152604080832093909416825291909152205490565b60065461027e90610100900460ff1681565b6102c361058d366004611aee565b600f6020526000908152604090205481565b6102c3610a92565b6102a16105b5366004611aee565b610ad0565b6102c360055481565b600a546104ab906001600160a01b031681565b600780546105e390611c3f565b80601f016020809104026020016040519081016040528092919081815260200182805461060f90611c3f565b801561065c5780601f106106315761010080835404028352916020019161065c565b820191906000526020600020905b81548152906001019060200180831161063f57829003601f168201915b505050505081565b6000610671338484610b0e565b5060015b92915050565b610683610c44565b61068b610c6e565b61069784848484610ccd565b6106a16001600055565b50505050565b60006106b1610c44565b6106b9610c6e565b6106c38383610e21565b90506106756001600055565b6106d7610eaf565b6003546000036107425760405162461bcd60e51b815260206004820152602b60248201527f526577617264547261636b65723a20696e76616c6964206c617374446973747260448201526a69627574696f6e54696d6560a81b60648201526084015b60405180910390fd5b61074c6000610edc565b60028190556040518181527f98dc76c39aa5a5dcb749f8750a65db3dfa1e14bcc1591a9c16a7420e5da748f89060200160405180910390a150565b3360009081526012602052604081205460ff16156107b2576107aa848484611065565b50600161081a565b60006107fc83604051806060016040528060308152602001611d52603091396001600160a01b0388166000908152600d602090815260408083203384529091529020549190611213565b9050610809853383610b0e565b610814858585611065565b60019150505b9392505050565b610829610eaf565b42600355565b610837610c44565b6108416000610edc565b61084b6001600055565b565b6001600160a01b0381166000908152600e602052604081205480820361088a5750506001600160a01b03166000908152600f602052604090205490565b60045460006108ae6c0c9f2c9cd04674edea400000006108a8610a92565b9061124d565b905060006108c86108bf83856112cf565b60055490611311565b6001600160a01b03871660009081526010602052604090205490915061093690610917906c0c9f2c9cd04674edea40000000906109119061090a908690611370565b889061124d565b906112cf565b6001600160a01b0388166000908152600f602052604090205490611311565b9695505050505050565b610948610eaf565b60065460ff16156109a65760405162461bcd60e51b815260206004820152602260248201527f526577617264547261636b65723a20616c726561647920696e697469616c697a604482015261195960f21b6064820152608401610739565b6006805460ff19166001179055600980546001600160a01b039384166001600160a01b031991821617909155600a8054929093169116179055565b6109e9610eaf565b6006805462ffff0019166101009315159390930262ff00001916929092176201000091151591909102179055565b610a1f610eaf565b61084b60006113b2565b610a31610c44565b610a39610c6e565b61069784848484611404565b600880546105e390611c3f565b610a5a610eaf565b6001600160a01b03919091166000908152601260205260409020805460ff1916911515919091179055565b6000610671338484611065565b60006003544203610aa35750600090565b6000610aba6003544261137090919063ffffffff16565b600254909150610aca908261124d565b91505090565b610ad8610eaf565b6001600160a01b038116610b0257604051631e4fbdf760e01b815260006004820152602401610739565b610b0b816113b2565b50565b6001600160a01b038316610b795760405162461bcd60e51b815260206004820152602c60248201527f526577617264547261636b65723a20617070726f76652066726f6d207468652060448201526b7a65726f206164647265737360a01b6064820152608401610739565b6001600160a01b038216610be25760405162461bcd60e51b815260206004820152602a60248201527f526577617264547261636b65723a20617070726f766520746f20746865207a65604482015269726f206164647265737360b01b6064820152608401610739565b6001600160a01b038381166000818152600d602090815260408083209487168084529482529182902085905590518481527f8c5be1e5ebec7d5bd14f71427d1e84f3dd0314c0f7b2291e5b200ac8c7c3b92591015b60405180910390a3505050565b600260005403610c6757604051633ee5aeb560e01b815260040160405180910390fd5b6002600055565b3360009081526012602052604090205460ff1661084b5760405162461bcd60e51b815260206004820152601860248201527f526577617264547261636b65723a20666f7262696464656e00000000000000006044820152606401610739565b60008211610d1d5760405162461bcd60e51b815260206004820152601e60248201527f526577617264547261636b65723a20696e76616c6964205f616d6f756e7400006044820152606401610739565b610d2684610edc565b6001600160a01b0384166000908152600e602052604090205482811015610da35760405162461bcd60e51b815260206004820152602b60248201527f526577617264547261636b65723a205f616d6f756e742065786365656473207360448201526a1d185ad959105b5bdd5b9d60aa1b6064820152608401610739565b610dad8184611370565b6001600160a01b038087166000908152600e60209081526040808320949094559187168152600b9091522054610de39084611370565b6001600160a01b0385166000908152600b6020526040902055610e0685846114ee565b610e1a6001600160a01b0385168385611602565b5050505050565b6000610e2c83610edc565b6001600160a01b0383166000908152600f602052604081208054919055801561081a57600a54610e66906001600160a01b03168483611602565b604080516001600160a01b0386168152602081018390527f47cee97cb7acd717b3c0aa1435d004cd5b3c8c57d70dbceb4e4458bbd60e39d4910160405180910390a19392505050565b6001546001600160a01b0316331461084b5760405163118cdaa760e01b8152336004820152602401610739565b6000610ee6610a92565b42600355600454600554919250908115801590610f035750600083115b15610f3557610f2d610f2683610911866c0c9f2c9cd04674edea4000000061124d565b8290611311565b600581905590505b80600003610f435750505050565b6001600160a01b038416156106a1576001600160a01b0384166000908152600e60209081526040808320546010909252822054909190610fa2906c0c9f2c9cd04674edea400000009061091190610f9b908790611370565b859061124d565b6001600160a01b0387166000908152600f602052604081205491925090610fc99083611311565b6001600160a01b0388166000908152600f60209081526040808320849055601090915290208590559050801580159061101957506001600160a01b0387166000908152600e602052604090205415155b1561105c576001600160a01b0387166000908152601160205260408120546110419084611311565b6001600160a01b038916600090815260116020526040902055505b50505050505050565b6001600160a01b0383166110d15760405162461bcd60e51b815260206004820152602d60248201527f526577617264547261636b65723a207472616e736665722066726f6d2074686560448201526c207a65726f206164647265737360981b6064820152608401610739565b6001600160a01b03821661113b5760405162461bcd60e51b815260206004820152602b60248201527f526577617264547261636b65723a207472616e7366657220746f20746865207a60448201526a65726f206164647265737360a81b6064820152608401610739565b600654610100900460ff161561115357611153610c6e565b611190816040518060600160405280602e8152602001611d82602e91396001600160a01b0386166000908152600c60205260409020549190611213565b6001600160a01b038085166000908152600c602052604080822093909355908416815220546111bf9082611311565b6001600160a01b038084166000818152600c602052604090819020939093559151908516907fddf252ad1be2c89b69c2b068fc378daa952ba7f163c4a11628f55a4df523b3ef90610c379085815260200190565b600081848411156112375760405162461bcd60e51b81526004016107399190611a28565b5060006112448486611c8f565b95945050505050565b60008260000361125f57506000610675565b600061126b8385611ca2565b9050826112788583611cb9565b1461081a5760405162461bcd60e51b815260206004820152602160248201527f536166654d6174683a206d756c7469706c69636174696f6e206f766572666c6f6044820152607760f81b6064820152608401610739565b600061081a83836040518060400160405280601a81526020017f536166654d6174683a206469766973696f6e206279207a65726f00000000000081525061166a565b60008061131e8385611cdb565b90508381101561081a5760405162461bcd60e51b815260206004820152601b60248201527f536166654d6174683a206164646974696f6e206f766572666c6f7700000000006044820152606401610739565b600061081a83836040518060400160405280601e81526020017f536166654d6174683a207375627472616374696f6e206f766572666c6f770000815250611213565b600180546001600160a01b038381166001600160a01b0319831681179093556040519116919082907f8be0079c531659141344cd1fd0a4f28419497f9722a3daafe3b4186f6b6457e090600090a35050565b600081116114545760405162461bcd60e51b815260206004820152601e60248201527f526577617264547261636b65723a20696e76616c6964205f616d6f756e7400006044820152606401610739565b6114696001600160a01b038316853084611698565b61147283610edc565b6001600160a01b0383166000908152600e60205260409020546114959082611311565b6001600160a01b038085166000908152600e60209081526040808320949094559185168152600b90915220546114cb9082611311565b6001600160a01b0383166000908152600b60205260409020556106a183826116d0565b6001600160a01b0382166115565760405162461bcd60e51b815260206004820152602960248201527f526577617264547261636b65723a206275726e2066726f6d20746865207a65726044820152686f206164647265737360b81b6064820152608401610739565b611593816040518060600160405280602a8152602001611d28602a91396001600160a01b0385166000908152600c60205260409020549190611213565b6001600160a01b0383166000908152600c60205260409020556004546115b99082611370565b6004556040518181526000906001600160a01b038416907fddf252ad1be2c89b69c2b068fc378daa952ba7f163c4a11628f55a4df523b3ef906020015b60405180910390a35050565b6040516001600160a01b03831660248201526044810182905261166590849063a9059cbb60e01b906064015b60408051601f198184030181529190526020810180516001600160e01b03166001600160e01b0319909316929092179091526117ba565b505050565b6000818361168b5760405162461bcd60e51b81526004016107399190611a28565b5060006112448486611cb9565b6040516001600160a01b03808516602483015283166044820152606481018290526106a19085906323b872dd60e01b9060840161162e565b6001600160a01b0382166117365760405162461bcd60e51b815260206004820152602760248201527f526577617264547261636b65723a206d696e7420746f20746865207a65726f206044820152666164647265737360c81b6064820152608401610739565b6004546117439082611311565b6004556001600160a01b0382166000908152600c60205260409020546117699082611311565b6001600160a01b0383166000818152600c60205260408082209390935591519091907fddf252ad1be2c89b69c2b068fc378daa952ba7f163c4a11628f55a4df523b3ef906115f69085815260200190565b600061180f826040518060400160405280602081526020017f5361666545524332303a206c6f772d6c6576656c2063616c6c206661696c6564815250856001600160a01b031661188c9092919063ffffffff16565b805190915015611665578080602001905181019061182d9190611cee565b6116655760405162461bcd60e51b815260206004820152602a60248201527f5361666545524332303a204552433230206f7065726174696f6e20646964206e6044820152691bdd081cdd58d8d9595960b21b6064820152608401610739565b606061189b84846000856118a3565b949350505050565b6060824710156119045760405162461bcd60e51b815260206004820152602660248201527f416464726573733a20696e73756666696369656e742062616c616e636520666f6044820152651c8818d85b1b60d21b6064820152608401610739565b843b6119525760405162461bcd60e51b815260206004820152601d60248201527f416464726573733a2063616c6c20746f206e6f6e2d636f6e74726163740000006044820152606401610739565b600080866001600160a01b0316858760405161196e9190611d0b565b60006040518083038185875af1925050503d80600081146119ab576040519150601f19603f3d011682016040523d82523d6000602084013e6119b0565b606091505b50915091506119c08282866119cb565b979650505050505050565b606083156119da57508161081a565b8251156119ea5782518084602001fd5b8160405162461bcd60e51b81526004016107399190611a28565b60005b83811015611a1f578181015183820152602001611a07565b50506000910152565b6020815260008251806020840152611a47816040850160208701611a04565b601f01601f19169190910160400192915050565b80356001600160a01b0381168114611a7257600080fd5b919050565b60008060408385031215611a8a57600080fd5b611a9383611a5b565b946020939093013593505050565b60008060008060808587031215611ab757600080fd5b611ac085611a5b565b9350611ace60208601611a5b565b925060408501359150611ae360608601611a5b565b905092959194509250565b600060208284031215611b0057600080fd5b61081a82611a5b565b60008060408385031215611b1c57600080fd5b611b2583611a5b565b9150611b3360208401611a5b565b90509250929050565b600060208284031215611b4e57600080fd5b5035919050565b600080600060608486031215611b6a57600080fd5b611b7384611a5b565b9250611b8160208501611a5b565b9150604084013590509250925092565b8015158114610b0b57600080fd5b60008060408385031215611bb257600080fd5b8235611bbd81611b91565b91506020830135611bcd81611b91565b809150509250929050565b60008060008060808587031215611bee57600080fd5b611bf785611a5b565b9350611c0560208601611a5b565b9250611c1360408601611a5b565b9396929550929360600135925050565b60008060408385031215611c3657600080fd5b611bbd83611a5b565b600181811c90821680611c5357607f821691505b602082108103611c7357634e487b7160e01b600052602260045260246000fd5b50919050565b634e487b7160e01b600052601160045260246000fd5b8181038181111561067557610675611c79565b808202811582820484141761067557610675611c79565b600082611cd657634e487b7160e01b600052601260045260246000fd5b500490565b8082018082111561067557610675611c79565b600060208284031215611d0057600080fd5b815161081a81611b91565b60008251611d1d818460208701611a04565b919091019291505056fe526577617264547261636b65723a206275726e20616d6f756e7420657863656564732062616c616e6365526577617264547261636b65723a207472616e7366657220616d6f756e74206578636565647320616c6c6f77616e6365526577617264547261636b65723a207472616e7366657220616d6f756e7420657863656564732062616c616e6365a2646970667358221220f6e080fd375f3e20b651e9896d9340e213caa7f9021bb1fde21dcd3aea357ab164736f6c63430008140033","linkReferences":{}},"methodIdentifiers":{"PRECISION()":"aaf5eb68","allowance(address,address)":"dd62ed3e","allowances(address,address)":"55b6ed5c","approve(address,uint256)":"095ea7b3","balanceOf(address)":"70a08231","balances(address)":"27e235e3","claimForAccount(address,address)":"13e82e7a","claimable(address)":"402914f5","claimableReward(address)":"e9503425","cumulativeRewardPerToken()":"f5fc5076","cumulativeRewards(address)":"3792def3","decimals()":"313ce567","depositToken()":"c89039c5","inPrivateStakingMode()":"c5fa2730","inPrivateTransferMode()":"dfbaefb1","initialize(address,address)":"485cc955","isHandler(address)":"46ea87af","isInitialized()":"392e53cd","lastDistributionTime()":"75b17350","name()":"06fdde03","owner()":"8da5cb5b","pendingRewards()":"eded3fda","previousCumulatedRewardPerToken(address)":"44a08411","renounceOwnership()":"715018a6","rewardToken()":"f7c618c1","setHandler(address,bool)":"9cb7de4b","setInPrivateModes(bool,bool)":"59574880","setTokensPerInterval(uint256)":"18e20a03","stakeForAccount(address,address,address,uint256)":"790b5a6c","stakedAmounts(address)":"10c1c103","symbol()":"95d89b41","tokensPerInterval()":"a8d93627","totalDepositSupply(address)":"552ce1dc","totalSupply()":"18160ddd","transfer(address,uint256)":"a9059cbb","transferFrom(address,address,uint256)":"23b872dd","transferOwnership(address)":"f2fde38b","unstakeForAccount(address,address,uint256,address)":"098bf59d","updateLastDistributionTime()":"3ae6d6eb","updateRewards()":"3e158b0c"},"id":2}