{"abi":[{"type":"constructor","inputs":[{"name":"_name","type":"string","internalType":"string"},{"name":"_symbol","type":"string","internalType":"string"},{"name":"_initialSupply","type":"uint256","internalType":"uint256"}],"stateMutability":"nonpayable"},{"type":"function","name":"addAdmin","inputs":[{"name":"_account","type":"address","internalType":"address"}],"outputs":[],"stateMutability":"nonpayable"},{"type":"function","name":"admins","inputs":[{"name":"","type":"address","internalType":"address"}],"outputs":[{"name":"","type":"bool","internalType":"bool"}],"stateMutability":"view"},{"type":"function","name":"allowance","inputs":[{"name":"_owner","type":"address","internalType":"address"},{"name":"_spender","type":"address","internalType":"address"}],"outputs":[{"name":"","type":"uint256","internalType":"uint256"}],"stateMutability":"view"},{"type":"function","name":"allowances","inputs":[{"name":"","type":"address","internalType":"address"},{"name":"","type":"address","internalType":"address"}],"outputs":[{"name":"","type":"uint256","internalType":"uint256"}],"stateMutability":"view"},{"type":"function","name":"approve","inputs":[{"name":"_spender","type":"address","internalType":"address"},{"name":"_amount","type":"uint256","internalType":"uint256"}],"outputs":[{"name":"","type":"bool","internalType":"bool"}],"stateMutability":"nonpayable"},{"type":"function","name":"balanceOf","inputs":[{"name":"_account","type":"address","internalType":"address"}],"outputs":[{"name":"","type":"uint256","internalType":"uint256"}],"stateMutability":"view"},{"type":"function","name":"balances","inputs":[{"name":"","type":"address","internalType":"address"}],"outputs":[{"name":"","type":"uint256","internalType":"uint256"}],"stateMutability":"view"},{"type":"function","name":"decimals","inputs":[],"outputs":[{"name":"","type":"uint8","internalType":"uint8"}],"stateMutability":"view"},{"type":"function","name":"gov","inputs":[],"outputs":[{"name":"","type":"address","internalType":"address"}],"stateMutability":"view"},{"type":"function","name":"inPrivateTransferMode","inputs":[],"outputs":[{"name":"","type":"bool","internalType":"bool"}],"stateMutability":"view"},{"type":"function","name":"isHandler","inputs":[{"name":"","type":"address","internalType":"address"}],"outputs":[{"name":"","type":"bool","internalType":"bool"}],"stateMutability":"view"},{"type":"function","name":"name","inputs":[],"outputs":[{"name":"","type":"string","internalType":"string"}],"stateMutability":"view"},{"type":"function","name":"nonStakingAccounts","inputs":[{"name":"","type":"address","internalType":"address"}],"outputs":[{"name":"","type":"bool","internalType":"bool"}],"stateMutability":"view"},{"type":"function","name":"nonStakingSupply","inputs":[],"outputs":[{"name":"","type":"uint256","internalType":"uint256"}],"stateMutability":"view"},{"type":"function","name":"owner","inputs":[],"outputs":[{"name":"","type":"address","internalType":"address"}],"stateMutability":"view"},{"type":"function","name":"removeAdmin","inputs":[{"name":"_account","type":"address","internalType":"address"}],"outputs":[],"stateMutability":"nonpayable"},{"type":"function","name":"renounceOwnership","inputs":[],"outputs":[],"stateMutability":"nonpayable"},{"type":"function","name":"setHandler","inputs":[{"name":"_handler","type":"address","internalType":"address"},{"name":"_isActive","type":"bool","internalType":"bool"}],"outputs":[],"stateMutability":"nonpayable"},{"type":"function","name":"setInPrivateTransferMode","inputs":[{"name":"_inPrivateTransferMode","type":"bool","internalType":"bool"}],"outputs":[],"stateMutability":"nonpayable"},{"type":"function","name":"setInfo","inputs":[{"name":"_name","type":"string","internalType":"string"},{"name":"_symbol","type":"string","internalType":"string"}],"outputs":[],"stateMutability":"nonpayable"},{"type":"function","name":"symbol","inputs":[],"outputs":[{"name":"","type":"string","internalType":"string"}],"stateMutability":"view"},{"type":"function","name":"totalSupply","inputs":[],"outputs":[{"name":"","type":"uint256","internalType":"uint256"}],"stateMutability":"view"},{"type":"function","name":"transfer","inputs":[{"name":"_recipient","type":"address","internalType":"address"},{"name":"_amount","type":"uint256","internalType":"uint256"}],"outputs":[{"name":"","type":"bool","internalType":"bool"}],"stateMutability":"nonpayable"},{"type":"function","name":"transferFrom","inputs":[{"name":"_sender","type":"address","internalType":"address"},{"name":"_recipient","type":"address","internalType":"address"},{"name":"_amount","type":"uint256","internalType":"uint256"}],"outputs":[{"name":"","type":"bool","internalType":"bool"}],"stateMutability":"nonpayable"},{"type":"function","name":"transferOwnership","inputs":[{"name":"newOwner","type":"address","internalType":"address"}],"outputs":[],"stateMutability":"nonpayable"},{"type":"function","name":"withdrawToken","inputs":[{"name":"_token","type":"address","internalType":"address"},{"name":"_account","type":"address","internalType":"address"},{"name":"_amount","type":"uint256","internalType":"uint256"}],"outputs":[],"stateMutability":"nonpayable"},{"type":"event","name":"Approval","inputs":[{"name":"owner","type":"address","indexed":true,"internalType":"address"},{"name":"spender","type":"address","indexed":true,"internalType":"address"},{"name":"value","type":"uint256","indexed":false,"internalType":"uint256"}],"anonymous":false},{"type":"event","name":"OwnershipTransferred","inputs":[{"name":"previousOwner","type":"address","indexed":true,"internalType":"address"},{"name":"newOwner","type":"address","indexed":true,"internalType":"address"}],"anonymous":false},{"type":"event","name":"Transfer","inputs":[{"name":"from","type":"address","indexed":true,"internalType":"address"},{"name":"to","type":"address","indexed":true,"internalType":"address"},{"name":"value","type":"uint256","indexed":false,"internalType":"uint256"}],"anonymous":false}],"bytecode":{"object":"0x60806040523480156200001157600080fd5b50604051620018bd380380620018bd83398101604081905262000034916200032d565b6200003f3362000087565b60016200004d84826200042f565b5060026200005c83826200042f565b50600580546001600160a01b031916339081179091556200007e9082620000d7565b5050506200051d565b600080546001600160a01b038381166001600160a01b0319831681178455604051919092169283917f8be0079c531659141344cd1fd0a4f28419497f9722a3daafe3b4186f6b6457e09190a35050565b6001600160a01b0382166200013f5760405162461bcd60e51b815260206004820152602360248201527f42617365546f6b656e3a206d696e7420746f20746865207a65726f206164647260448201526265737360e81b60648201526084015b60405180910390fd5b6003546200014e9082620001fc565b6003556001600160a01b038216600090815260066020526040902054620001769082620001fc565b6001600160a01b03831660009081526006602090815260408083209390935560089052205460ff1615620001b757600454620001b39082620001fc565b6004555b6040518181526001600160a01b038316906000907fddf252ad1be2c89b69c2b068fc378daa952ba7f163c4a11628f55a4df523b3ef9060200160405180910390a35050565b6000806200020b8385620004fb565b9050838110156200025f5760405162461bcd60e51b815260206004820152601b60248201527f536166654d6174683a206164646974696f6e206f766572666c6f770000000000604482015260640162000136565b90505b92915050565b634e487b7160e01b600052604160045260246000fd5b600082601f8301126200029057600080fd5b81516001600160401b0380821115620002ad57620002ad62000268565b604051601f8301601f19908116603f01168101908282118183101715620002d857620002d862000268565b81604052838152602092508683858801011115620002f557600080fd5b600091505b83821015620003195785820183015181830184015290820190620002fa565b600093810190920192909252949350505050565b6000806000606084860312156200034357600080fd5b83516001600160401b03808211156200035b57600080fd5b62000369878388016200027e565b945060208601519150808211156200038057600080fd5b506200038f868287016200027e565b925050604084015190509250925092565b600181811c90821680620003b557607f821691505b602082108103620003d657634e487b7160e01b600052602260045260246000fd5b50919050565b601f8211156200042a57600081815260208120601f850160051c81016020861015620004055750805b601f850160051c820191505b81811015620004265782815560010162000411565b5050505b505050565b81516001600160401b038111156200044b576200044b62000268565b62000463816200045c8454620003a0565b84620003dc565b602080601f8311600181146200049b5760008415620004825750858301515b600019600386901b1c1916600185901b17855562000426565b600085815260208120601f198616915b82811015620004cc57888601518255948401946001909101908401620004ab565b5085821015620004eb5787850151600019600388901b60f8161c191681555b5050505050600190811b01905550565b808201808211156200026257634e487b7160e01b600052601160045260246000fd5b611390806200052d6000396000f3fe608060405234801561001057600080fd5b506004361061018e5760003560e01c806370480275116100de5780639cb7de4b11610097578063c93be63611610071578063c93be636146103c8578063dd62ed3e146103d1578063dfbaefb11461040a578063f2fde38b1461041757600080fd5b80639cb7de4b1461038f578063a9059cbb146103a2578063a923fc40146103b557600080fd5b8063704802751461030f57806370a0823114610322578063715018a61461034b5780638da5cb5b146103535780639554381a1461036457806395d89b411461038757600080fd5b806323b872dd1161014b578063429b62e511610125578063429b62e51461028b57806346ea87af146102ae57806355b6ed5c146102d15780635a47a1a7146102fc57600080fd5b806323b872dd1461023e57806327e235e314610251578063313ce5671461027157600080fd5b806301e336671461019357806306fdde03146101a8578063095ea7b3146101c657806312d43a51146101e95780631785f53c1461021457806318160ddd14610227575b600080fd5b6101a66101a1366004610ed3565b61042a565b005b6101b061044b565b6040516101bd9190610f33565b60405180910390f35b6101d96101d4366004610f66565b6104d9565b60405190151581526020016101bd565b6005546101fc906001600160a01b031681565b6040516001600160a01b0390911681526020016101bd565b6101a6610222366004610f90565b6104f0565b61023060035481565b6040519081526020016101bd565b6101d961024c366004610ed3565b610519565b61023061025f366004610f90565b60066020526000908152604090205481565b610279601281565b60405160ff90911681526020016101bd565b6101d9610299366004610f90565b60096020526000908152604090205460ff1681565b6101d96102bc366004610f90565b600b6020526000908152604090205460ff1681565b6102306102df366004610fab565b600760209081526000928352604080842090915290825290205481565b6101a661030a366004610fec565b6105b3565b6101a661031d366004610f90565b6105ce565b610230610330366004610f90565b6001600160a01b031660009081526006602052604090205490565b6101a66105fa565b6000546001600160a01b03166101fc565b6101d9610372366004610f90565b60086020526000908152604090205460ff1681565b6101b061060e565b6101a661039d366004611009565b61061b565b6101d96103b0366004610f66565b61064e565b6101a66103c33660046110e3565b61065b565b61023060045481565b6102306103df366004610fab565b6001600160a01b03918216600090815260076020908152604080832093909416825291909152205490565b600a546101d99060ff1681565b6101a6610425366004610f90565b61067c565b6104326106fa565b6104466001600160a01b0384168383610754565b505050565b6001805461045890611147565b80601f016020809104026020016040519081016040528092919081815260200182805461048490611147565b80156104d15780601f106104a6576101008083540402835291602001916104d1565b820191906000526020600020905b8154815290600101906020018083116104b457829003601f168201915b505050505081565b60006104e63384846107a6565b5060015b92915050565b6104f86106fa565b6001600160a01b03166000908152600960205260409020805460ff19169055565b336000908152600b602052604081205460ff16156105445761053c8484846108d4565b5060016105ac565b600061058e836040518060600160405280602c8152602001611305602c91396001600160a01b03881660009081526007602090815260408083203384529091529020549190610b42565b905061059b8533836107a6565b6105a68585856108d4565b60019150505b9392505050565b6105bb6106fa565b600a805460ff1916911515919091179055565b6105d66106fa565b6001600160a01b03166000908152600960205260409020805460ff19166001179055565b6106026106fa565b61060c6000610b7c565b565b6002805461045890611147565b6106236106fa565b6001600160a01b03919091166000908152600b60205260409020805460ff1916911515919091179055565b60006104e63384846108d4565b6106636106fa565b600161066f83826111cf565b50600261044682826111cf565b6106846106fa565b6001600160a01b0381166106ee5760405162461bcd60e51b815260206004820152602660248201527f4f776e61626c653a206e6577206f776e657220697320746865207a65726f206160448201526564647265737360d01b60648201526084015b60405180910390fd5b6106f781610b7c565b50565b6000546001600160a01b0316331461060c5760405162461bcd60e51b815260206004820181905260248201527f4f776e61626c653a2063616c6c6572206973206e6f7420746865206f776e657260448201526064016106e5565b604080516001600160a01b038416602482015260448082018490528251808303909101815260649091019091526020810180516001600160e01b031663a9059cbb60e01b179052610446908490610bcc565b6001600160a01b03831661080d5760405162461bcd60e51b815260206004820152602860248201527f42617365546f6b656e3a20617070726f76652066726f6d20746865207a65726f604482015267206164647265737360c01b60648201526084016106e5565b6001600160a01b0382166108725760405162461bcd60e51b815260206004820152602660248201527f42617365546f6b656e3a20617070726f766520746f20746865207a65726f206160448201526564647265737360d01b60648201526084016106e5565b6001600160a01b0383811660008181526007602090815260408083209487168084529482529182902085905590518481527f8c5be1e5ebec7d5bd14f71427d1e84f3dd0314c0f7b2291e5b200ac8c7c3b92591015b60405180910390a3505050565b6001600160a01b03831661093c5760405162461bcd60e51b815260206004820152602960248201527f42617365546f6b656e3a207472616e736665722066726f6d20746865207a65726044820152686f206164647265737360b81b60648201526084016106e5565b6001600160a01b0382166109a25760405162461bcd60e51b815260206004820152602760248201527f42617365546f6b656e3a207472616e7366657220746f20746865207a65726f206044820152666164647265737360c81b60648201526084016106e5565b600a5460ff1615610a1a57336000908152600b602052604090205460ff16610a1a5760405162461bcd60e51b815260206004820152602560248201527f42617365546f6b656e3a206d73672e73656e646572206e6f742077686974656c6044820152641a5cdd195960da1b60648201526084016106e5565b610a57816040518060600160405280602a8152602001611331602a91396001600160a01b0386166000908152600660205260409020549190610b42565b6001600160a01b038085166000908152600660205260408082209390935590841681522054610a869082610c9e565b6001600160a01b0380841660009081526006602090815260408083209490945591861681526008909152205460ff1615610acb57600454610ac79082610cfd565b6004555b6001600160a01b03821660009081526008602052604090205460ff1615610afd57600454610af99082610c9e565b6004555b816001600160a01b0316836001600160a01b03167fddf252ad1be2c89b69c2b068fc378daa952ba7f163c4a11628f55a4df523b3ef836040516108c791815260200190565b60008184841115610b665760405162461bcd60e51b81526004016106e59190610f33565b506000610b7384866112a5565b95945050505050565b600080546001600160a01b038381166001600160a01b0319831681178455604051919092169283917f8be0079c531659141344cd1fd0a4f28419497f9722a3daafe3b4186f6b6457e09190a35050565b6000610c21826040518060400160405280602081526020017f5361666545524332303a206c6f772d6c6576656c2063616c6c206661696c6564815250856001600160a01b0316610d3f9092919063ffffffff16565b8051909150156104465780806020019051810190610c3f91906112b8565b6104465760405162461bcd60e51b815260206004820152602a60248201527f5361666545524332303a204552433230206f7065726174696f6e20646964206e6044820152691bdd081cdd58d8d9595960b21b60648201526084016106e5565b600080610cab83856112d5565b9050838110156105ac5760405162461bcd60e51b815260206004820152601b60248201527f536166654d6174683a206164646974696f6e206f766572666c6f77000000000060448201526064016106e5565b60006105ac83836040518060400160405280601e81526020017f536166654d6174683a207375627472616374696f6e206f766572666c6f770000815250610b42565b6060610d4e8484600085610d56565b949350505050565b606082471015610db75760405162461bcd60e51b815260206004820152602660248201527f416464726573733a20696e73756666696369656e742062616c616e636520666f6044820152651c8818d85b1b60d21b60648201526084016106e5565b843b610e055760405162461bcd60e51b815260206004820152601d60248201527f416464726573733a2063616c6c20746f206e6f6e2d636f6e747261637400000060448201526064016106e5565b600080866001600160a01b03168587604051610e2191906112e8565b60006040518083038185875af1925050503d8060008114610e5e576040519150601f19603f3d011682016040523d82523d6000602084013e610e63565b606091505b5091509150610e73828286610e7e565b979650505050505050565b60608315610e8d5750816105ac565b825115610e9d5782518084602001fd5b8160405162461bcd60e51b81526004016106e59190610f33565b80356001600160a01b0381168114610ece57600080fd5b919050565b600080600060608486031215610ee857600080fd5b610ef184610eb7565b9250610eff60208501610eb7565b9150604084013590509250925092565b60005b83811015610f2a578181015183820152602001610f12565b50506000910152565b6020815260008251806020840152610f52816040850160208701610f0f565b601f01601f19169190910160400192915050565b60008060408385031215610f7957600080fd5b610f8283610eb7565b946020939093013593505050565b600060208284031215610fa257600080fd5b6105ac82610eb7565b60008060408385031215610fbe57600080fd5b610fc783610eb7565b9150610fd560208401610eb7565b90509250929050565b80151581146106f757600080fd5b600060208284031215610ffe57600080fd5b81356105ac81610fde565b6000806040838503121561101c57600080fd5b61102583610eb7565b9150602083013561103581610fde565b809150509250929050565b634e487b7160e01b600052604160045260246000fd5b600082601f83011261106757600080fd5b813567ffffffffffffffff8082111561108257611082611040565b604051601f8301601f19908116603f011681019082821181831017156110aa576110aa611040565b816040528381528660208588010111156110c357600080fd5b836020870160208301376000602085830101528094505050505092915050565b600080604083850312156110f657600080fd5b823567ffffffffffffffff8082111561110e57600080fd5b61111a86838701611056565b9350602085013591508082111561113057600080fd5b5061113d85828601611056565b9150509250929050565b600181811c9082168061115b57607f821691505b60208210810361117b57634e487b7160e01b600052602260045260246000fd5b50919050565b601f82111561044657600081815260208120601f850160051c810160208610156111a85750805b601f850160051c820191505b818110156111c7578281556001016111b4565b505050505050565b815167ffffffffffffffff8111156111e9576111e9611040565b6111fd816111f78454611147565b84611181565b602080601f831160018114611232576000841561121a5750858301515b600019600386901b1c1916600185901b1785556111c7565b600085815260208120601f198616915b8281101561126157888601518255948401946001909101908401611242565b508582101561127f5787850151600019600388901b60f8161c191681555b5050505050600190811b01905550565b634e487b7160e01b600052601160045260246000fd5b818103818111156104ea576104ea61128f565b6000602082840312156112ca57600080fd5b81516105ac81610fde565b808201808211156104ea576104ea61128f565b600082516112fa818460208701610f0f565b919091019291505056fe42617365546f6b656e3a207472616e7366657220616d6f756e74206578636565647320616c6c6f77616e636542617365546f6b656e3a207472616e7366657220616d6f756e7420657863656564732062616c616e6365a2646970667358221220baf951bf65e6bf66c8688f39b2dbeb1bfb8281c423a9bbd17186bfad7e7b199e64736f6c63430008140033","linkReferences":{}},"methodIdentifiers":{"addAdmin(address)":"70480275","admins(address)":"429b62e5","allowance(address,address)":"dd62ed3e","allowances(address,address)":"55b6ed5c","approve(address,uint256)":"095ea7b3","balanceOf(address)":"70a08231","balances(address)":"27e235e3","decimals()":"313ce567","gov()":"12d43a51","inPrivateTransferMode()":"dfbaefb1","isHandler(address)":"46ea87af","name()":"06fdde03","nonStakingAccounts(address)":"9554381a","nonStakingSupply()":"c93be636","owner()":"8da5cb5b","removeAdmin(address)":"1785f53c","renounceOwnership()":"715018a6","setHandler(address,bool)":"9cb7de4b","setInPrivateTransferMode(bool)":"5a47a1a7","setInfo(string,string)":"a923fc40","symbol()":"95d89b41","totalSupply()":"18160ddd","transfer(address,uint256)":"a9059cbb","transferFrom(address,address,uint256)":"23b872dd","transferOwnership(address)":"f2fde38b","withdrawToken(address,address,uint256)":"01e33667"},"id":42}