{"abi":[{"type":"constructor","inputs":[],"stateMutability":"nonpayable"},{"type":"function","name":"addAdmin","inputs":[{"name":"_account","type":"address","internalType":"address"}],"outputs":[],"stateMutability":"nonpayable"},{"type":"function","name":"admins","inputs":[{"name":"","type":"address","internalType":"address"}],"outputs":[{"name":"","type":"bool","internalType":"bool"}],"stateMutability":"view"},{"type":"function","name":"allowance","inputs":[{"name":"_owner","type":"address","internalType":"address"},{"name":"_spender","type":"address","internalType":"address"}],"outputs":[{"name":"","type":"uint256","internalType":"uint256"}],"stateMutability":"view"},{"type":"function","name":"allowances","inputs":[{"name":"","type":"address","internalType":"address"},{"name":"","type":"address","internalType":"address"}],"outputs":[{"name":"","type":"uint256","internalType":"uint256"}],"stateMutability":"view"},{"type":"function","name":"approve","inputs":[{"name":"_spender","type":"address","internalType":"address"},{"name":"_amount","type":"uint256","internalType":"uint256"}],"outputs":[{"name":"","type":"bool","internalType":"bool"}],"stateMutability":"nonpayable"},{"type":"function","name":"balanceOf","inputs":[{"name":"_account","type":"address","internalType":"address"}],"outputs":[{"name":"","type":"uint256","internalType":"uint256"}],"stateMutability":"view"},{"type":"function","name":"balances","inputs":[{"name":"","type":"address","internalType":"address"}],"outputs":[{"name":"","type":"uint256","internalType":"uint256"}],"stateMutability":"view"},{"type":"function","name":"burn","inputs":[{"name":"_account","type":"address","internalType":"address"},{"name":"_amount","type":"uint256","internalType":"uint256"}],"outputs":[],"stateMutability":"nonpayable"},{"type":"function","name":"decimals","inputs":[],"outputs":[{"name":"","type":"uint8","internalType":"uint8"}],"stateMutability":"view"},{"type":"function","name":"gov","inputs":[],"outputs":[{"name":"","type":"address","internalType":"address"}],"stateMutability":"view"},{"type":"function","name":"id","inputs":[],"outputs":[{"name":"_name","type":"string","internalType":"string"}],"stateMutability":"pure"},{"type":"function","name":"inPrivateTransferMode","inputs":[],"outputs":[{"name":"","type":"bool","internalType":"bool"}],"stateMutability":"view"},{"type":"function","name":"isHandler","inputs":[{"name":"","type":"address","internalType":"address"}],"outputs":[{"name":"","type":"bool","internalType":"bool"}],"stateMutability":"view"},{"type":"function","name":"isMinter","inputs":[{"name":"","type":"address","internalType":"address"}],"outputs":[{"name":"","type":"bool","internalType":"bool"}],"stateMutability":"view"},{"type":"function","name":"mint","inputs":[{"name":"_account","type":"address","internalType":"address"},{"name":"_amount","type":"uint256","internalType":"uint256"}],"outputs":[],"stateMutability":"nonpayable"},{"type":"function","name":"name","inputs":[],"outputs":[{"name":"","type":"string","internalType":"string"}],"stateMutability":"view"},{"type":"function","name":"nonStakingAccounts","inputs":[{"name":"","type":"address","internalType":"address"}],"outputs":[{"name":"","type":"bool","internalType":"bool"}],"stateMutability":"view"},{"type":"function","name":"nonStakingSupply","inputs":[],"outputs":[{"name":"","type":"uint256","internalType":"uint256"}],"stateMutability":"view"},{"type":"function","name":"owner","inputs":[],"outputs":[{"name":"","type":"address","internalType":"address"}],"stateMutability":"view"},{"type":"function","name":"removeAdmin","inputs":[{"name":"_account","type":"address","internalType":"address"}],"outputs":[],"stateMutability":"nonpayable"},{"type":"function","name":"renounceOwnership","inputs":[],"outputs":[],"stateMutability":"nonpayable"},{"type":"function","name":"setHandler","inputs":[{"name":"_handler","type":"address","internalType":"address"},{"name":"_isActive","type":"bool","internalType":"bool"}],"outputs":[],"stateMutability":"nonpayable"},{"type":"function","name":"setInPrivateTransferMode","inputs":[{"name":"_inPrivateTransferMode","type":"bool","internalType":"bool"}],"outputs":[],"stateMutability":"nonpayable"},{"type":"function","name":"setInfo","inputs":[{"name":"_name","type":"string","internalType":"string"},{"name":"_symbol","type":"string","internalType":"string"}],"outputs":[],"stateMutability":"nonpayable"},{"type":"function","name":"setMinter","inputs":[{"name":"_minter","type":"address","internalType":"address"},{"name":"_isActive","type":"bool","internalType":"bool"}],"outputs":[],"stateMutability":"nonpayable"},{"type":"function","name":"symbol","inputs":[],"outputs":[{"name":"","type":"string","internalType":"string"}],"stateMutability":"view"},{"type":"function","name":"totalSupply","inputs":[],"outputs":[{"name":"","type":"uint256","internalType":"uint256"}],"stateMutability":"view"},{"type":"function","name":"transfer","inputs":[{"name":"_recipient","type":"address","internalType":"address"},{"name":"_amount","type":"uint256","internalType":"uint256"}],"outputs":[{"name":"","type":"bool","internalType":"bool"}],"stateMutability":"nonpayable"},{"type":"function","name":"transferFrom","inputs":[{"name":"_sender","type":"address","internalType":"address"},{"name":"_recipient","type":"address","internalType":"address"},{"name":"_amount","type":"uint256","internalType":"uint256"}],"outputs":[{"name":"","type":"bool","internalType":"bool"}],"stateMutability":"nonpayable"},{"type":"function","name":"transferOwnership","inputs":[{"name":"newOwner","type":"address","internalType":"address"}],"outputs":[],"stateMutability":"nonpayable"},{"type":"function","name":"withdrawToken","inputs":[{"name":"_token","type":"address","internalType":"address"},{"name":"_account","type":"address","internalType":"address"},{"name":"_amount","type":"uint256","internalType":"uint256"}],"outputs":[],"stateMutability":"nonpayable"},{"type":"event","name":"Approval","inputs":[{"name":"owner","type":"address","indexed":true,"internalType":"address"},{"name":"spender","type":"address","indexed":true,"internalType":"address"},{"name":"value","type":"uint256","indexed":false,"internalType":"uint256"}],"anonymous":false},{"type":"event","name":"OwnershipTransferred","inputs":[{"name":"previousOwner","type":"address","indexed":true,"internalType":"address"},{"name":"newOwner","type":"address","indexed":true,"internalType":"address"}],"anonymous":false},{"type":"event","name":"Transfer","inputs":[{"name":"from","type":"address","indexed":true,"internalType":"address"},{"name":"to","type":"address","indexed":true,"internalType":"address"},{"name":"value","type":"uint256","indexed":false,"internalType":"uint256"}],"anonymous":false}],"bytecode":{"object":"0x60806040523480156200001157600080fd5b506040518060400160405280600c81526020016b2334b23ab1b4b0b93c90232360a11b815250604051806040016040528060058152602001642334b2232360d91b8152506000828282620000746200006e620000bf60201b60201c565b620000c3565b600162000082848262000349565b50600262000091838262000349565b50600580546001600160a01b03191633908117909155620000b3908262000113565b50505050505062000437565b3390565b600080546001600160a01b038381166001600160a01b0319831681178455604051919092169283917f8be0079c531659141344cd1fd0a4f28419497f9722a3daafe3b4186f6b6457e09190a35050565b6001600160a01b0382166200017b5760405162461bcd60e51b815260206004820152602360248201527f42617365546f6b656e3a206d696e7420746f20746865207a65726f206164647260448201526265737360e81b60648201526084015b60405180910390fd5b6003546200018a908262000238565b6003556001600160a01b038216600090815260066020526040902054620001b2908262000238565b6001600160a01b03831660009081526006602090815260408083209390935560089052205460ff1615620001f357600454620001ef908262000238565b6004555b6040518181526001600160a01b038316906000907fddf252ad1be2c89b69c2b068fc378daa952ba7f163c4a11628f55a4df523b3ef9060200160405180910390a35050565b60008062000247838562000415565b9050838110156200029b5760405162461bcd60e51b815260206004820152601b60248201527f536166654d6174683a206164646974696f6e206f766572666c6f770000000000604482015260640162000172565b90505b92915050565b634e487b7160e01b600052604160045260246000fd5b600181811c90821680620002cf57607f821691505b602082108103620002f057634e487b7160e01b600052602260045260246000fd5b50919050565b601f8211156200034457600081815260208120601f850160051c810160208610156200031f5750805b601f850160051c820191505b8181101562000340578281556001016200032b565b5050505b505050565b81516001600160401b03811115620003655762000365620002a4565b6200037d81620003768454620002ba565b84620002f6565b602080601f831160018114620003b557600084156200039c5750858301515b600019600386901b1c1916600185901b17855562000340565b600085815260208120601f198616915b82811015620003e657888601518255948401946001909101908401620003c5565b5085821015620004055787850151600019600388901b60f8161c191681555b5050505050600190811b01905550565b808201808211156200029e57634e487b7160e01b600052601160045260246000fd5b6117e680620004476000396000f3fe608060405234801561001057600080fd5b50600436106101e55760003560e01c806370a082311161010f578063a923fc40116100a2578063cf456ae711610071578063cf456ae714610492578063dd62ed3e146104a5578063dfbaefb1146104de578063f2fde38b146104eb57600080fd5b8063a923fc4014610432578063aa271e1a14610445578063af640d0f14610468578063c93be6361461048957600080fd5b806395d89b41116100de57806395d89b41146103f15780639cb7de4b146103f95780639dc29fac1461040c578063a9059cbb1461041f57600080fd5b806370a082311461038c578063715018a6146103b55780638da5cb5b146103bd5780639554381a146103ce57600080fd5b806327e235e31161018757806346ea87af1161015657806346ea87af1461031857806355b6ed5c1461033b5780635a47a1a714610366578063704802751461037957600080fd5b806327e235e3146102a8578063313ce567146102c857806340c10f19146102e2578063429b62e5146102f557600080fd5b806312d43a51116101c357806312d43a51146102405780631785f53c1461026b57806318160ddd1461027e57806323b872dd1461029557600080fd5b806301e33667146101ea57806306fdde03146101ff578063095ea7b31461021d575b600080fd5b6101fd6101f8366004611303565b6104fe565b005b61020761051f565b6040516102149190611363565b60405180910390f35b61023061022b366004611396565b6105ad565b6040519015158152602001610214565b600554610253906001600160a01b031681565b6040516001600160a01b039091168152602001610214565b6101fd6102793660046113c0565b6105c4565b61028760035481565b604051908152602001610214565b6102306102a3366004611303565b6105ed565b6102876102b63660046113c0565b60066020526000908152604090205481565b6102d0601281565b60405160ff9091168152602001610214565b6101fd6102f0366004611396565b610687565b6102306103033660046113c0565b60096020526000908152604090205460ff1681565b6102306103263660046113c0565b600b6020526000908152604090205460ff1681565b6102876103493660046113db565b600760209081526000928352604080842090915290825290205481565b6101fd61037436600461141c565b6106f9565b6101fd6103873660046113c0565b610714565b61028761039a3660046113c0565b6001600160a01b031660009081526006602052604090205490565b6101fd610740565b6000546001600160a01b0316610253565b6102306103dc3660046113c0565b60086020526000908152604090205460ff1681565b610207610754565b6101fd610407366004611439565b610761565b6101fd61041a366004611396565b610794565b61023061042d366004611396565b6107fd565b6101fd610440366004611513565b61080a565b6102306104533660046113c0565b600c6020526000908152604090205460ff1681565b6040805180820190915260058152642334b2232360d91b6020820152610207565b61028760045481565b6101fd6104a0366004611439565b61082b565b6102876104b33660046113db565b6001600160a01b03918216600090815260076020908152604080832093909416825291909152205490565b600a546102309060ff1681565b6101fd6104f93660046113c0565b61085e565b6105066108d7565b61051a6001600160a01b0384168383610931565b505050565b6001805461052c90611577565b80601f016020809104026020016040519081016040528092919081815260200182805461055890611577565b80156105a55780601f1061057a576101008083540402835291602001916105a5565b820191906000526020600020905b81548152906001019060200180831161058857829003601f168201915b505050505081565b60006105ba338484610983565b5060015b92915050565b6105cc6108d7565b6001600160a01b03166000908152600960205260409020805460ff19169055565b336000908152600b602052604081205460ff161561061857610610848484610ab1565b506001610680565b6000610662836040518060600160405280602c8152602001611735602c91396001600160a01b03881660009081526007602090815260408083203384529091529020549190610d1f565b905061066f853383610983565b61067a858585610ab1565b60019150505b9392505050565b336000908152600c602052604090205460ff166106eb5760405162461bcd60e51b815260206004820152601c60248201527f4d696e7461626c6542617365546f6b656e3a20666f7262696464656e0000000060448201526064015b60405180910390fd5b6106f58282610d59565b5050565b6107016108d7565b600a805460ff1916911515919091179055565b61071c6108d7565b6001600160a01b03166000908152600960205260409020805460ff19166001179055565b6107486108d7565b6107526000610e72565b565b6002805461052c90611577565b6107696108d7565b6001600160a01b03919091166000908152600b60205260409020805460ff1916911515919091179055565b336000908152600c602052604090205460ff166107f35760405162461bcd60e51b815260206004820152601c60248201527f4d696e7461626c6542617365546f6b656e3a20666f7262696464656e0000000060448201526064016106e2565b6106f58282610ec2565b60006105ba338484610ab1565b6108126108d7565b600161081e83826115ff565b50600261051a82826115ff565b6108336108d7565b6001600160a01b03919091166000908152600c60205260409020805460ff1916911515919091179055565b6108666108d7565b6001600160a01b0381166108cb5760405162461bcd60e51b815260206004820152602660248201527f4f776e61626c653a206e6577206f776e657220697320746865207a65726f206160448201526564647265737360d01b60648201526084016106e2565b6108d481610e72565b50565b6000546001600160a01b031633146107525760405162461bcd60e51b815260206004820181905260248201527f4f776e61626c653a2063616c6c6572206973206e6f7420746865206f776e657260448201526064016106e2565b604080516001600160a01b038416602482015260448082018490528251808303909101815260649091019091526020810180516001600160e01b031663a9059cbb60e01b17905261051a908490610ffc565b6001600160a01b0383166109ea5760405162461bcd60e51b815260206004820152602860248201527f42617365546f6b656e3a20617070726f76652066726f6d20746865207a65726f604482015267206164647265737360c01b60648201526084016106e2565b6001600160a01b038216610a4f5760405162461bcd60e51b815260206004820152602660248201527f42617365546f6b656e3a20617070726f766520746f20746865207a65726f206160448201526564647265737360d01b60648201526084016106e2565b6001600160a01b0383811660008181526007602090815260408083209487168084529482529182902085905590518481527f8c5be1e5ebec7d5bd14f71427d1e84f3dd0314c0f7b2291e5b200ac8c7c3b92591015b60405180910390a3505050565b6001600160a01b038316610b195760405162461bcd60e51b815260206004820152602960248201527f42617365546f6b656e3a207472616e736665722066726f6d20746865207a65726044820152686f206164647265737360b81b60648201526084016106e2565b6001600160a01b038216610b7f5760405162461bcd60e51b815260206004820152602760248201527f42617365546f6b656e3a207472616e7366657220746f20746865207a65726f206044820152666164647265737360c81b60648201526084016106e2565b600a5460ff1615610bf757336000908152600b602052604090205460ff16610bf75760405162461bcd60e51b815260206004820152602560248201527f42617365546f6b656e3a206d73672e73656e646572206e6f742077686974656c6044820152641a5cdd195960da1b60648201526084016106e2565b610c34816040518060600160405280602a8152602001611761602a91396001600160a01b0386166000908152600660205260409020549190610d1f565b6001600160a01b038085166000908152600660205260408082209390935590841681522054610c6390826110ce565b6001600160a01b0380841660009081526006602090815260408083209490945591861681526008909152205460ff1615610ca857600454610ca4908261112d565b6004555b6001600160a01b03821660009081526008602052604090205460ff1615610cda57600454610cd690826110ce565b6004555b816001600160a01b0316836001600160a01b03167fddf252ad1be2c89b69c2b068fc378daa952ba7f163c4a11628f55a4df523b3ef83604051610aa491815260200190565b60008184841115610d435760405162461bcd60e51b81526004016106e29190611363565b506000610d5084866116d5565b95945050505050565b6001600160a01b038216610dbb5760405162461bcd60e51b815260206004820152602360248201527f42617365546f6b656e3a206d696e7420746f20746865207a65726f206164647260448201526265737360e81b60648201526084016106e2565b600354610dc890826110ce565b6003556001600160a01b038216600090815260066020526040902054610dee90826110ce565b6001600160a01b03831660009081526006602090815260408083209390935560089052205460ff1615610e2c57600454610e2890826110ce565b6004555b6040518181526001600160a01b038316906000907fddf252ad1be2c89b69c2b068fc378daa952ba7f163c4a11628f55a4df523b3ef906020015b60405180910390a35050565b600080546001600160a01b038381166001600160a01b0319831681178455604051919092169283917f8be0079c531659141344cd1fd0a4f28419497f9722a3daafe3b4186f6b6457e09190a35050565b6001600160a01b038216610f265760405162461bcd60e51b815260206004820152602560248201527f42617365546f6b656e3a206275726e2066726f6d20746865207a65726f206164604482015264647265737360d81b60648201526084016106e2565b610f638160405180606001604052806026815260200161178b602691396001600160a01b0385166000908152600660205260409020549190610d1f565b6001600160a01b038316600090815260066020526040902055600354610f89908261112d565b6003556001600160a01b03821660009081526008602052604090205460ff1615610fbe57600454610fba908261112d565b6004555b6040518181526000906001600160a01b038416907fddf252ad1be2c89b69c2b068fc378daa952ba7f163c4a11628f55a4df523b3ef90602001610e66565b6000611051826040518060400160405280602081526020017f5361666545524332303a206c6f772d6c6576656c2063616c6c206661696c6564815250856001600160a01b031661116f9092919063ffffffff16565b80519091501561051a578080602001905181019061106f91906116e8565b61051a5760405162461bcd60e51b815260206004820152602a60248201527f5361666545524332303a204552433230206f7065726174696f6e20646964206e6044820152691bdd081cdd58d8d9595960b21b60648201526084016106e2565b6000806110db8385611705565b9050838110156106805760405162461bcd60e51b815260206004820152601b60248201527f536166654d6174683a206164646974696f6e206f766572666c6f77000000000060448201526064016106e2565b600061068083836040518060400160405280601e81526020017f536166654d6174683a207375627472616374696f6e206f766572666c6f770000815250610d1f565b606061117e8484600085611186565b949350505050565b6060824710156111e75760405162461bcd60e51b815260206004820152602660248201527f416464726573733a20696e73756666696369656e742062616c616e636520666f6044820152651c8818d85b1b60d21b60648201526084016106e2565b843b6112355760405162461bcd60e51b815260206004820152601d60248201527f416464726573733a2063616c6c20746f206e6f6e2d636f6e747261637400000060448201526064016106e2565b600080866001600160a01b031685876040516112519190611718565b60006040518083038185875af1925050503d806000811461128e576040519150601f19603f3d011682016040523d82523d6000602084013e611293565b606091505b50915091506112a38282866112ae565b979650505050505050565b606083156112bd575081610680565b8251156112cd5782518084602001fd5b8160405162461bcd60e51b81526004016106e29190611363565b80356001600160a01b03811681146112fe57600080fd5b919050565b60008060006060848603121561131857600080fd5b611321846112e7565b925061132f602085016112e7565b9150604084013590509250925092565b60005b8381101561135a578181015183820152602001611342565b50506000910152565b602081526000825180602084015261138281604085016020870161133f565b601f01601f19169190910160400192915050565b600080604083850312156113a957600080fd5b6113b2836112e7565b946020939093013593505050565b6000602082840312156113d257600080fd5b610680826112e7565b600080604083850312156113ee57600080fd5b6113f7836112e7565b9150611405602084016112e7565b90509250929050565b80151581146108d457600080fd5b60006020828403121561142e57600080fd5b81356106808161140e565b6000806040838503121561144c57600080fd5b611455836112e7565b915060208301356114658161140e565b809150509250929050565b634e487b7160e01b600052604160045260246000fd5b600082601f83011261149757600080fd5b813567ffffffffffffffff808211156114b2576114b2611470565b604051601f8301601f19908116603f011681019082821181831017156114da576114da611470565b816040528381528660208588010111156114f357600080fd5b836020870160208301376000602085830101528094505050505092915050565b6000806040838503121561152657600080fd5b823567ffffffffffffffff8082111561153e57600080fd5b61154a86838701611486565b9350602085013591508082111561156057600080fd5b5061156d85828601611486565b9150509250929050565b600181811c9082168061158b57607f821691505b6020821081036115ab57634e487b7160e01b600052602260045260246000fd5b50919050565b601f82111561051a57600081815260208120601f850160051c810160208610156115d85750805b601f850160051c820191505b818110156115f7578281556001016115e4565b505050505050565b815167ffffffffffffffff81111561161957611619611470565b61162d816116278454611577565b846115b1565b602080601f831160018114611662576000841561164a5750858301515b600019600386901b1c1916600185901b1785556115f7565b600085815260208120601f198616915b8281101561169157888601518255948401946001909101908401611672565b50858210156116af5787850151600019600388901b60f8161c191681555b5050505050600190811b01905550565b634e487b7160e01b600052601160045260246000fd5b818103818111156105be576105be6116bf565b6000602082840312156116fa57600080fd5b81516106808161140e565b808201808211156105be576105be6116bf565b6000825161172a81846020870161133f565b919091019291505056fe42617365546f6b656e3a207472616e7366657220616d6f756e74206578636565647320616c6c6f77616e636542617365546f6b656e3a207472616e7366657220616d6f756e7420657863656564732062616c616e636542617365546f6b656e3a206275726e20616d6f756e7420657863656564732062616c616e6365a2646970667358221220b3692c420fa025ef6d8788da1e3086fe7322567a0f7f69cf594c0b8ec0e7206864736f6c63430008140033","linkReferences":{}},"methodIdentifiers":{"addAdmin(address)":"70480275","admins(address)":"429b62e5","allowance(address,address)":"dd62ed3e","allowances(address,address)":"55b6ed5c","approve(address,uint256)":"095ea7b3","balanceOf(address)":"70a08231","balances(address)":"27e235e3","burn(address,uint256)":"9dc29fac","decimals()":"313ce567","gov()":"12d43a51","id()":"af640d0f","inPrivateTransferMode()":"dfbaefb1","isHandler(address)":"46ea87af","isMinter(address)":"aa271e1a","mint(address,uint256)":"40c10f19","name()":"06fdde03","nonStakingAccounts(address)":"9554381a","nonStakingSupply()":"c93be636","owner()":"8da5cb5b","removeAdmin(address)":"1785f53c","renounceOwnership()":"715018a6","setHandler(address,bool)":"9cb7de4b","setInPrivateTransferMode(bool)":"5a47a1a7","setInfo(string,string)":"a923fc40","setMinter(address,bool)":"cf456ae7","symbol()":"95d89b41","totalSupply()":"18160ddd","transfer(address,uint256)":"a9059cbb","transferFrom(address,address,uint256)":"23b872dd","transferOwnership(address)":"f2fde38b","withdrawToken(address,address,uint256)":"01e33667"},"id":44}