{"abi":[{"type":"constructor","inputs":[{"name":"_totalSupply","type":"uint256","internalType":"uint256"},{"name":"_initialOwner","type":"address","internalType":"address"}],"stateMutability":"nonpayable"},{"type":"function","name":"DOMAIN_SEPARATOR","inputs":[],"outputs":[{"name":"","type":"bytes32","internalType":"bytes32"}],"stateMutability":"view"},{"type":"function","name":"allowance","inputs":[{"name":"owner","type":"address","internalType":"address"},{"name":"spender","type":"address","internalType":"address"}],"outputs":[{"name":"","type":"uint256","internalType":"uint256"}],"stateMutability":"view"},{"type":"function","name":"approve","inputs":[{"name":"spender","type":"address","internalType":"address"},{"name":"value","type":"uint256","internalType":"uint256"}],"outputs":[{"name":"","type":"bool","internalType":"bool"}],"stateMutability":"nonpayable"},{"type":"function","name":"balanceOf","inputs":[{"name":"account","type":"address","internalType":"address"}],"outputs":[{"name":"","type":"uint256","internalType":"uint256"}],"stateMutability":"view"},{"type":"function","name":"decimals","inputs":[],"outputs":[{"name":"","type":"uint8","internalType":"uint8"}],"stateMutability":"view"},{"type":"function","name":"eip712Domain","inputs":[],"outputs":[{"name":"fields","type":"bytes1","internalType":"bytes1"},{"name":"name","type":"string","internalType":"string"},{"name":"version","type":"string","internalType":"string"},{"name":"chainId","type":"uint256","internalType":"uint256"},{"name":"verifyingContract","type":"address","internalType":"address"},{"name":"salt","type":"bytes32","internalType":"bytes32"},{"name":"extensions","type":"uint256[]","internalType":"uint256[]"}],"stateMutability":"view"},{"type":"function","name":"limited","inputs":[],"outputs":[{"name":"","type":"bool","internalType":"bool"}],"stateMutability":"view"},{"type":"function","name":"maxHoldingAmount","inputs":[],"outputs":[{"name":"","type":"uint256","internalType":"uint256"}],"stateMutability":"view"},{"type":"function","name":"minHoldingAmount","inputs":[],"outputs":[{"name":"","type":"uint256","internalType":"uint256"}],"stateMutability":"view"},{"type":"function","name":"name","inputs":[],"outputs":[{"name":"","type":"string","internalType":"string"}],"stateMutability":"view"},{"type":"function","name":"nonces","inputs":[{"name":"owner","type":"address","internalType":"address"}],"outputs":[{"name":"","type":"uint256","internalType":"uint256"}],"stateMutability":"view"},{"type":"function","name":"owner","inputs":[],"outputs":[{"name":"","type":"address","internalType":"address"}],"stateMutability":"view"},{"type":"function","name":"permit","inputs":[{"name":"owner","type":"address","internalType":"address"},{"name":"spender","type":"address","internalType":"address"},{"name":"value","type":"uint256","internalType":"uint256"},{"name":"deadline","type":"uint256","internalType":"uint256"},{"name":"v","type":"uint8","internalType":"uint8"},{"name":"r","type":"bytes32","internalType":"bytes32"},{"name":"s","type":"bytes32","internalType":"bytes32"}],"outputs":[],"stateMutability":"nonpayable"},{"type":"function","name":"renounceOwnership","inputs":[],"outputs":[],"stateMutability":"nonpayable"},{"type":"function","name":"setRule","inputs":[{"name":"_limited","type":"bool","internalType":"bool"},{"name":"_uniswapV2Pair","type":"address","internalType":"address"},{"name":"_maxHoldingAmount","type":"uint256","internalType":"uint256"},{"name":"_minHoldingAmount","type":"uint256","internalType":"uint256"}],"outputs":[],"stateMutability":"nonpayable"},{"type":"function","name":"symbol","inputs":[],"outputs":[{"name":"","type":"string","internalType":"string"}],"stateMutability":"view"},{"type":"function","name":"totalSupply","inputs":[],"outputs":[{"name":"","type":"uint256","internalType":"uint256"}],"stateMutability":"view"},{"type":"function","name":"transfer","inputs":[{"name":"to","type":"address","internalType":"address"},{"name":"value","type":"uint256","internalType":"uint256"}],"outputs":[{"name":"","type":"bool","internalType":"bool"}],"stateMutability":"nonpayable"},{"type":"function","name":"transferFrom","inputs":[{"name":"from","type":"address","internalType":"address"},{"name":"to","type":"address","internalType":"address"},{"name":"value","type":"uint256","internalType":"uint256"}],"outputs":[{"name":"","type":"bool","internalType":"bool"}],"stateMutability":"nonpayable"},{"type":"function","name":"transferOwnership","inputs":[{"name":"newOwner","type":"address","internalType":"address"}],"outputs":[],"stateMutability":"nonpayable"},{"type":"function","name":"uniswapV2Pair","inputs":[],"outputs":[{"name":"","type":"address","internalType":"address"}],"stateMutability":"view"},{"type":"event","name":"Approval","inputs":[{"name":"owner","type":"address","indexed":true,"internalType":"address"},{"name":"spender","type":"address","indexed":true,"internalType":"address"},{"name":"value","type":"uint256","indexed":false,"internalType":"uint256"}],"anonymous":false},{"type":"event","name":"EIP712DomainChanged","inputs":[],"anonymous":false},{"type":"event","name":"OwnershipTransferred","inputs":[{"name":"previousOwner","type":"address","indexed":true,"internalType":"address"},{"name":"newOwner","type":"address","indexed":true,"internalType":"address"}],"anonymous":false},{"type":"event","name":"Transfer","inputs":[{"name":"from","type":"address","indexed":true,"internalType":"address"},{"name":"to","type":"address","indexed":true,"internalType":"address"},{"name":"value","type":"uint256","indexed":false,"internalType":"uint256"}],"anonymous":false},{"type":"error","name":"ECDSAInvalidSignature","inputs":[]},{"type":"error","name":"ECDSAInvalidSignatureLength","inputs":[{"name":"length","type":"uint256","internalType":"uint256"}]},{"type":"error","name":"ECDSAInvalidSignatureS","inputs":[{"name":"s","type":"bytes32","internalType":"bytes32"}]},{"type":"error","name":"ERC20InsufficientAllowance","inputs":[{"name":"spender","type":"address","internalType":"address"},{"name":"allowance","type":"uint256","internalType":"uint256"},{"name":"needed","type":"uint256","internalType":"uint256"}]},{"type":"error","name":"ERC20InsufficientBalance","inputs":[{"name":"sender","type":"address","internalType":"address"},{"name":"balance","type":"uint256","internalType":"uint256"},{"name":"needed","type":"uint256","internalType":"uint256"}]},{"type":"error","name":"ERC20InvalidApprover","inputs":[{"name":"approver","type":"address","internalType":"address"}]},{"type":"error","name":"ERC20InvalidReceiver","inputs":[{"name":"receiver","type":"address","internalType":"address"}]},{"type":"error","name":"ERC20InvalidSender","inputs":[{"name":"sender","type":"address","internalType":"address"}]},{"type":"error","name":"ERC20InvalidSpender","inputs":[{"name":"spender","type":"address","internalType":"address"}]},{"type":"error","name":"ERC2612ExpiredSignature","inputs":[{"name":"deadline","type":"uint256","internalType":"uint256"}]},{"type":"error","name":"ERC2612InvalidSigner","inputs":[{"name":"signer","type":"address","internalType":"address"},{"name":"owner","type":"address","internalType":"address"}]},{"type":"error","name":"InvalidAccountNonce","inputs":[{"name":"account","type":"address","internalType":"address"},{"name":"currentNonce","type":"uint256","internalType":"uint256"}]},{"type":"error","name":"InvalidShortString","inputs":[]},{"type":"error","name":"OwnableInvalidOwner","inputs":[{"name":"owner","type":"address","internalType":"address"}]},{"type":"error","name":"OwnableUnauthorizedAccount","inputs":[{"name":"account","type":"address","internalType":"address"}]},{"type":"error","name":"StringTooLong","inputs":[{"name":"str","type":"string","internalType":"string"}]}],"bytecode":{"object":"0x6101606040523480156200001257600080fd5b5060405162001a0938038062001a09833981016040819052620000359162000519565b80604051806040016040528060048152602001635475746f60e01b81525080604051806040016040528060018152602001603160f81b815250604051806040016040528060048152602001635475746f60e01b815250604051806040016040528060048152602001635455544f60e01b8152508160039081620000b99190620005fc565b506004620000c88282620005fc565b50620000da91508390506005620001d3565b61012052620000eb816006620001d3565b61014052815160208084019190912060e052815190820120610100524660a0526200017960e05161010051604080517f8b73c3c69bb8fe3d512ecc4cf759cc79239f7b179b0ffacaa9a75d522b39400f60208201529081019290925260608201524660808201523060a082015260009060c00160405160208183030381529060405280519060200120905090565b60805250503060c052506001600160a01b038116620001b357604051631e4fbdf760e01b8152600060048201526024015b60405180910390fd5b620001be816200020c565b50620001cb33836200025e565b50506200075f565b6000602083511015620001f357620001eb836200029c565b905062000206565b81620002008482620005fc565b5060ff90505b92915050565b600880546001600160a01b038381166001600160a01b0319831681179093556040519116919082907f8be0079c531659141344cd1fd0a4f28419497f9722a3daafe3b4186f6b6457e090600090a35050565b6001600160a01b0382166200028a5760405163ec442f0560e01b815260006004820152602401620001aa565b6200029860008383620002df565b5050565b600080829050601f81511115620002ca578260405163305a27a960e01b8152600401620001aa9190620006c8565b8051620002d78262000718565b179392505050565b600854600160a01b900460ff16151560010362000303576200030383838362000315565b62000310838383620003e6565b505050565b600854600160a01b900460ff1680156200033c5750600b546001600160a01b038481169116145b1562000310576009548162000366846001600160a01b031660009081526020819052604090205490565b6200037291906200073d565b11158015620003af5750600a5481620003a0846001600160a01b031660009081526020819052604090205490565b620003ac91906200073d565b10155b620003105760405162461bcd60e51b8152602060048201526006602482015265119bdc989a5960d21b6044820152606401620001aa565b6001600160a01b038316620004155780600260008282546200040991906200073d565b90915550620004899050565b6001600160a01b038316600090815260208190526040902054818110156200046a5760405163391434e360e21b81526001600160a01b03851660048201526024810182905260448101839052606401620001aa565b6001600160a01b03841660009081526020819052604090209082900390555b6001600160a01b038216620004a757600280548290039055620004c6565b6001600160a01b03821660009081526020819052604090208054820190555b816001600160a01b0316836001600160a01b03167fddf252ad1be2c89b69c2b068fc378daa952ba7f163c4a11628f55a4df523b3ef836040516200050c91815260200190565b60405180910390a3505050565b600080604083850312156200052d57600080fd5b825160208401519092506001600160a01b03811681146200054d57600080fd5b809150509250929050565b634e487b7160e01b600052604160045260246000fd5b600181811c908216806200058357607f821691505b602082108103620005a457634e487b7160e01b600052602260045260246000fd5b50919050565b601f8211156200031057600081815260208120601f850160051c81016020861015620005d35750805b601f850160051c820191505b81811015620005f457828155600101620005df565b505050505050565b81516001600160401b0381111562000618576200061862000558565b62000630816200062984546200056e565b84620005aa565b602080601f8311600181146200066857600084156200064f5750858301515b600019600386901b1c1916600185901b178555620005f4565b600085815260208120601f198616915b82811015620006995788860151825594840194600190910190840162000678565b5085821015620006b85787850151600019600388901b60f8161c191681555b5050505050600190811b01905550565b600060208083528351808285015260005b81811015620006f757858101830151858201604001528201620006d9565b506000604082860101526040601f19601f8301168501019250505092915050565b80516020808301519190811015620005a45760001960209190910360031b1b16919050565b808201808211156200020657634e487b7160e01b600052601160045260246000fd5b60805160a05160c05160e05161010051610120516101405161124f620007ba6000396000610916015260006108e901526000610812015260006107ea015260006107450152600061076f01526000610799015261124f6000f3fe608060405234801561001057600080fd5b50600436106101375760003560e01c8063715018a6116100b85780638da5cb5b1161007c5780638da5cb5b1461027e57806395d89b411461028f578063a9059cbb14610297578063d505accf146102aa578063dd62ed3e146102bd578063f2fde38b146102f657600080fd5b8063715018a61461022b5780637ecebe001461023357806384b0196e14610246578063860a32ec1461026157806389f9a1d31461027557600080fd5b8063313ce567116100ff578063313ce567146101ab5780633644e515146101ba5780633aa633aa146101c257806349bd5a5e146101d757806370a082311461020257600080fd5b806306fdde031461013c578063095ea7b31461015a57806318160ddd1461017d5780631ab99e121461018f57806323b872dd14610198575b600080fd5b610144610309565b6040516101519190610f6c565b60405180910390f35b61016d610168366004610fa2565b61039b565b6040519015158152602001610151565b6002545b604051908152602001610151565b610181600a5481565b61016d6101a6366004610fcc565b6103b5565b60405160128152602001610151565b6101816103d9565b6101d56101d0366004611008565b6103e8565b005b600b546101ea906001600160a01b031681565b6040516001600160a01b039091168152602001610151565b610181610210366004611051565b6001600160a01b031660009081526020819052604090205490565b6101d5610437565b610181610241366004611051565b61044b565b61024e610469565b604051610151979695949392919061106c565b60085461016d90600160a01b900460ff1681565b61018160095481565b6008546001600160a01b03166101ea565b6101446104af565b61016d6102a5366004610fa2565b6104be565b6101d56102b8366004611102565b6104cc565b6101816102cb366004611175565b6001600160a01b03918216600090815260016020908152604080832093909416825291909152205490565b6101d5610304366004611051565b61060b565b606060038054610318906111a8565b80601f0160208091040260200160405190810160405280929190818152602001828054610344906111a8565b80156103915780601f1061036657610100808354040283529160200191610391565b820191906000526020600020905b81548152906001019060200180831161037457829003601f168201915b5050505050905090565b6000336103a9818585610649565b60019150505b92915050565b6000336103c385828561065b565b6103ce8585856106d9565b506001949350505050565b60006103e3610738565b905090565b6103f0610863565b60088054941515600160a01b0260ff60a01b1990951694909417909355600b80546001600160a01b039093166001600160a01b031990931692909217909155600955600a55565b61043f610863565b6104496000610890565b565b6001600160a01b0381166000908152600760205260408120546103af565b60006060806000806000606061047d6108e2565b61048561090f565b60408051600080825260208201909252600f60f81b9b939a50919850469750309650945092509050565b606060048054610318906111a8565b6000336103a98185856106d9565b834211156104f55760405163313c898160e11b8152600481018590526024015b60405180910390fd5b60007f6e71edae12b1b97f4d1f60370fef10105fa2faae0126114a169c64845d6126c98888886105428c6001600160a01b0316600090815260076020526040902080546001810190915590565b6040805160208101969096526001600160a01b0394851690860152929091166060840152608083015260a082015260c0810186905260e001604051602081830303815290604052805190602001209050600061059d8261093c565b905060006105ad82878787610969565b9050896001600160a01b0316816001600160a01b0316146105f4576040516325c0072360e11b81526001600160a01b0380831660048301528b1660248201526044016104ec565b6105ff8a8a8a610649565b50505050505050505050565b610613610863565b6001600160a01b03811661063d57604051631e4fbdf760e01b8152600060048201526024016104ec565b61064681610890565b50565b6106568383836001610997565b505050565b6001600160a01b0383811660009081526001602090815260408083209386168352929052205460001981146106d357818110156106c457604051637dc7a0d960e11b81526001600160a01b038416600482015260248101829052604481018390526064016104ec565b6106d384848484036000610997565b50505050565b6001600160a01b03831661070357604051634b637e8f60e11b8152600060048201526024016104ec565b6001600160a01b03821661072d5760405163ec442f0560e01b8152600060048201526024016104ec565b610656838383610a6c565b6000306001600160a01b037f00000000000000000000000000000000000000000000000000000000000000001614801561079157507f000000000000000000000000000000000000000000000000000000000000000046145b156107bb57507f000000000000000000000000000000000000000000000000000000000000000090565b6103e3604080517f8b73c3c69bb8fe3d512ecc4cf759cc79239f7b179b0ffacaa9a75d522b39400f60208201527f0000000000000000000000000000000000000000000000000000000000000000918101919091527f000000000000000000000000000000000000000000000000000000000000000060608201524660808201523060a082015260009060c00160405160208183030381529060405280519060200120905090565b6008546001600160a01b031633146104495760405163118cdaa760e01b81523360048201526024016104ec565b600880546001600160a01b038381166001600160a01b0319831681179093556040519116919082907f8be0079c531659141344cd1fd0a4f28419497f9722a3daafe3b4186f6b6457e090600090a35050565b60606103e37f00000000000000000000000000000000000000000000000000000000000000006005610a98565b60606103e37f00000000000000000000000000000000000000000000000000000000000000006006610a98565b60006103af610949610738565b8360405161190160f01b8152600281019290925260228201526042902090565b60008060008061097b88888888610b43565b92509250925061098b8282610c12565b50909695505050505050565b6001600160a01b0384166109c15760405163e602df0560e01b8152600060048201526024016104ec565b6001600160a01b0383166109eb57604051634a1406b160e11b8152600060048201526024016104ec565b6001600160a01b03808516600090815260016020908152604080832093871683529290522082905580156106d357826001600160a01b0316846001600160a01b03167f8c5be1e5ebec7d5bd14f71427d1e84f3dd0314c0f7b2291e5b200ac8c7c3b92584604051610a5e91815260200190565b60405180910390a350505050565b600854600160a01b900460ff161515600103610a8d57610a8d838383610ccf565b610656838383610d95565b606060ff8314610ab257610aab83610ebf565b90506103af565b818054610abe906111a8565b80601f0160208091040260200160405190810160405280929190818152602001828054610aea906111a8565b8015610b375780601f10610b0c57610100808354040283529160200191610b37565b820191906000526020600020905b815481529060010190602001808311610b1a57829003601f168201915b505050505090506103af565b600080807f7fffffffffffffffffffffffffffffff5d576e7357a4501ddfe92f46681b20a0841115610b7e5750600091506003905082610c08565b604080516000808252602082018084528a905260ff891692820192909252606081018790526080810186905260019060a0016020604051602081039080840390855afa158015610bd2573d6000803e3d6000fd5b5050604051601f1901519150506001600160a01b038116610bfe57506000925060019150829050610c08565b9250600091508190505b9450945094915050565b6000826003811115610c2657610c266111e2565b03610c2f575050565b6001826003811115610c4357610c436111e2565b03610c615760405163f645eedf60e01b815260040160405180910390fd5b6002826003811115610c7557610c756111e2565b03610c965760405163fce698f760e01b8152600481018290526024016104ec565b6003826003811115610caa57610caa6111e2565b03610ccb576040516335e2f38360e21b8152600481018290526024016104ec565b5050565b600854600160a01b900460ff168015610cf55750600b546001600160a01b038481169116145b156106565760095481610d1d846001600160a01b031660009081526020819052604090205490565b610d2791906111f8565b11158015610d605750600a5481610d53846001600160a01b031660009081526020819052604090205490565b610d5d91906111f8565b10155b6106565760405162461bcd60e51b8152602060048201526006602482015265119bdc989a5960d21b60448201526064016104ec565b6001600160a01b038316610dc0578060026000828254610db591906111f8565b90915550610e329050565b6001600160a01b03831660009081526020819052604090205481811015610e135760405163391434e360e21b81526001600160a01b038516600482015260248101829052604481018390526064016104ec565b6001600160a01b03841660009081526020819052604090209082900390555b6001600160a01b038216610e4e57600280548290039055610e6d565b6001600160a01b03821660009081526020819052604090208054820190555b816001600160a01b0316836001600160a01b03167fddf252ad1be2c89b69c2b068fc378daa952ba7f163c4a11628f55a4df523b3ef83604051610eb291815260200190565b60405180910390a3505050565b60606000610ecc83610efe565b604080516020808252818301909252919250600091906020820181803683375050509182525060208101929092525090565b600060ff8216601f8111156103af57604051632cd44ac360e21b815260040160405180910390fd5b6000815180845260005b81811015610f4c57602081850181015186830182015201610f30565b506000602082860101526020601f19601f83011685010191505092915050565b602081526000610f7f6020830184610f26565b9392505050565b80356001600160a01b0381168114610f9d57600080fd5b919050565b60008060408385031215610fb557600080fd5b610fbe83610f86565b946020939093013593505050565b600080600060608486031215610fe157600080fd5b610fea84610f86565b9250610ff860208501610f86565b9150604084013590509250925092565b6000806000806080858703121561101e57600080fd5b8435801515811461102e57600080fd5b935061103c60208601610f86565b93969395505050506040820135916060013590565b60006020828403121561106357600080fd5b610f7f82610f86565b60ff60f81b881681526000602060e08184015261108c60e084018a610f26565b838103604085015261109e818a610f26565b606085018990526001600160a01b038816608086015260a0850187905284810360c0860152855180825283870192509083019060005b818110156110f0578351835292840192918401916001016110d4565b50909c9b505050505050505050505050565b600080600080600080600060e0888a03121561111d57600080fd5b61112688610f86565b965061113460208901610f86565b95506040880135945060608801359350608088013560ff8116811461115857600080fd5b9699959850939692959460a0840135945060c09093013592915050565b6000806040838503121561118857600080fd5b61119183610f86565b915061119f60208401610f86565b90509250929050565b600181811c908216806111bc57607f821691505b6020821081036111dc57634e487b7160e01b600052602260045260246000fd5b50919050565b634e487b7160e01b600052602160045260246000fd5b808201808211156103af57634e487b7160e01b600052601160045260246000fdfea26469706673582212204ffa053818c7c0ac7d03107dd104e1d6c88a124751620d9cbe0272d03024fb9664736f6c63430008140033","linkReferences":{}},"methodIdentifiers":{"DOMAIN_SEPARATOR()":"3644e515","allowance(address,address)":"dd62ed3e","approve(address,uint256)":"095ea7b3","balanceOf(address)":"70a08231","decimals()":"313ce567","eip712Domain()":"84b0196e","limited()":"860a32ec","maxHoldingAmount()":"89f9a1d3","minHoldingAmount()":"1ab99e12","name()":"06fdde03","nonces(address)":"7ecebe00","owner()":"8da5cb5b","permit(address,address,uint256,uint256,uint8,bytes32,bytes32)":"d505accf","renounceOwnership()":"715018a6","setRule(bool,address,uint256,uint256)":"3aa633aa","symbol()":"95d89b41","totalSupply()":"18160ddd","transfer(address,uint256)":"a9059cbb","transferFrom(address,address,uint256)":"23b872dd","transferOwnership(address)":"f2fde38b","uniswapV2Pair()":"49bd5a5e"},"id":19}