{"abi":[{"type":"constructor","inputs":[{"name":"_initialOwner","type":"address","internalType":"address"},{"name":"_name","type":"string","internalType":"string"},{"name":"_symbol","type":"string","internalType":"string"},{"name":"_handler","type":"address","internalType":"address"}],"stateMutability":"nonpayable"},{"type":"function","name":"BASIS_POINTS_DIVISOR","inputs":[],"outputs":[{"name":"","type":"uint256","internalType":"uint256"}],"stateMutability":"view"},{"type":"function","name":"PRECISION","inputs":[],"outputs":[{"name":"","type":"uint256","internalType":"uint256"}],"stateMutability":"view"},{"type":"function","name":"allowance","inputs":[{"name":"_owner","type":"address","internalType":"address"},{"name":"_spender","type":"address","internalType":"address"}],"outputs":[{"name":"","type":"uint256","internalType":"uint256"}],"stateMutability":"view"},{"type":"function","name":"allowances","inputs":[{"name":"","type":"address","internalType":"address"},{"name":"","type":"address","internalType":"address"}],"outputs":[{"name":"","type":"uint256","internalType":"uint256"}],"stateMutability":"view"},{"type":"function","name":"approve","inputs":[{"name":"_spender","type":"address","internalType":"address"},{"name":"_amount","type":"uint256","internalType":"uint256"}],"outputs":[{"name":"","type":"bool","internalType":"bool"}],"stateMutability":"nonpayable"},{"type":"function","name":"balanceOf","inputs":[{"name":"_account","type":"address","internalType":"address"}],"outputs":[{"name":"","type":"uint256","internalType":"uint256"}],"stateMutability":"view"},{"type":"function","name":"balanceOracle","inputs":[],"outputs":[{"name":"","type":"address","internalType":"address"}],"stateMutability":"view"},{"type":"function","name":"balances","inputs":[{"name":"","type":"address","internalType":"address"}],"outputs":[{"name":"","type":"uint256","internalType":"uint256"}],"stateMutability":"view"},{"type":"function","name":"claimForAccount","inputs":[{"name":"_account","type":"address","internalType":"address"},{"name":"_receiver","type":"address","internalType":"address"}],"outputs":[{"name":"","type":"uint256","internalType":"uint256"}],"stateMutability":"nonpayable"},{"type":"function","name":"claimable","inputs":[{"name":"_account","type":"address","internalType":"address"}],"outputs":[{"name":"","type":"uint256","internalType":"uint256"}],"stateMutability":"view"},{"type":"function","name":"claimableReward","inputs":[{"name":"","type":"address","internalType":"address"}],"outputs":[{"name":"","type":"uint256","internalType":"uint256"}],"stateMutability":"view"},{"type":"function","name":"cumulativeRewardPerToken","inputs":[],"outputs":[{"name":"","type":"uint256","internalType":"uint256"}],"stateMutability":"view"},{"type":"function","name":"cumulativeRewards","inputs":[{"name":"","type":"address","internalType":"address"}],"outputs":[{"name":"","type":"uint256","internalType":"uint256"}],"stateMutability":"view"},{"type":"function","name":"decimals","inputs":[],"outputs":[{"name":"","type":"uint8","internalType":"uint8"}],"stateMutability":"view"},{"type":"function","name":"feeBPS","inputs":[],"outputs":[{"name":"","type":"uint256","internalType":"uint256"}],"stateMutability":"view"},{"type":"function","name":"inPrivateTransferMode","inputs":[],"outputs":[{"name":"","type":"bool","internalType":"bool"}],"stateMutability":"view"},{"type":"function","name":"initialize","inputs":[{"name":"_stableCoin","type":"address","internalType":"address"},{"name":"_balanceOracle","type":"address","internalType":"address"}],"outputs":[],"stateMutability":"nonpayable"},{"type":"function","name":"isHandler","inputs":[{"name":"","type":"address","internalType":"address"}],"outputs":[{"name":"","type":"bool","internalType":"bool"}],"stateMutability":"view"},{"type":"function","name":"isInitialized","inputs":[],"outputs":[{"name":"","type":"bool","internalType":"bool"}],"stateMutability":"view"},{"type":"function","name":"lastDistributionTime","inputs":[],"outputs":[{"name":"","type":"uint256","internalType":"uint256"}],"stateMutability":"view"},{"type":"function","name":"name","inputs":[],"outputs":[{"name":"","type":"string","internalType":"string"}],"stateMutability":"view"},{"type":"function","name":"oracleCallback","inputs":[{"name":"_account","type":"address","internalType":"address"},{"name":"_stakedAmount","type":"uint256","internalType":"uint256"},{"name":"_amount","type":"uint256","internalType":"uint256"}],"outputs":[],"stateMutability":"nonpayable"},{"type":"function","name":"oracleCallbackEndDay","inputs":[{"name":"_accounts","type":"address[]","internalType":"address[]"},{"name":"_stakedAmounts","type":"uint256[]","internalType":"uint256[]"}],"outputs":[],"stateMutability":"nonpayable"},{"type":"function","name":"owner","inputs":[],"outputs":[{"name":"","type":"address","internalType":"address"}],"stateMutability":"view"},{"type":"function","name":"pendingRewards","inputs":[],"outputs":[{"name":"","type":"uint256","internalType":"uint256"}],"stateMutability":"view"},{"type":"function","name":"previousCumulatedRewardPerToken","inputs":[{"name":"","type":"address","internalType":"address"}],"outputs":[{"name":"","type":"uint256","internalType":"uint256"}],"stateMutability":"view"},{"type":"function","name":"renounceOwnership","inputs":[],"outputs":[],"stateMutability":"nonpayable"},{"type":"function","name":"setFee","inputs":[{"name":"_newFee","type":"uint8","internalType":"uint8"}],"outputs":[],"stateMutability":"nonpayable"},{"type":"function","name":"setHandler","inputs":[{"name":"_handler","type":"address","internalType":"address"},{"name":"_isActive","type":"bool","internalType":"bool"}],"outputs":[],"stateMutability":"nonpayable"},{"type":"function","name":"setInPrivateModes","inputs":[{"name":"_inPrivateTransferMode","type":"bool","internalType":"bool"}],"outputs":[],"stateMutability":"nonpayable"},{"type":"function","name":"setOracleAddress","inputs":[{"name":"_balanceOracle","type":"address","internalType":"address"}],"outputs":[],"stateMutability":"nonpayable"},{"type":"function","name":"setTokensPerInterval","inputs":[{"name":"_amount","type":"uint256","internalType":"uint256"}],"outputs":[],"stateMutability":"nonpayable"},{"type":"function","name":"stableCoin","inputs":[],"outputs":[{"name":"","type":"address","internalType":"address"}],"stateMutability":"view"},{"type":"function","name":"stableRewardSystem","inputs":[],"outputs":[{"name":"","type":"bool","internalType":"bool"}],"stateMutability":"view"},{"type":"function","name":"stakeForAccount","inputs":[{"name":"_fundingAccount","type":"address","internalType":"address"},{"name":"_account","type":"address","internalType":"address"},{"name":"_amount","type":"uint256","internalType":"uint256"}],"outputs":[],"stateMutability":"nonpayable"},{"type":"function","name":"stakeWithPermit","inputs":[{"name":"_amount","type":"uint256","internalType":"uint256"},{"name":"_permitAmount","type":"uint256","internalType":"uint256"},{"name":"deadline","type":"uint256","internalType":"uint256"},{"name":"v","type":"uint8","internalType":"uint8"},{"name":"r","type":"bytes32","internalType":"bytes32"},{"name":"s","type":"bytes32","internalType":"bytes32"}],"outputs":[],"stateMutability":"nonpayable"},{"type":"function","name":"stakedAmounts","inputs":[{"name":"","type":"address","internalType":"address"}],"outputs":[{"name":"","type":"uint256","internalType":"uint256"}],"stateMutability":"view"},{"type":"function","name":"symbol","inputs":[],"outputs":[{"name":"","type":"string","internalType":"string"}],"stateMutability":"view"},{"type":"function","name":"tokensPerInterval","inputs":[],"outputs":[{"name":"","type":"uint256","internalType":"uint256"}],"stateMutability":"view"},{"type":"function","name":"totalDepositSupply","inputs":[{"name":"","type":"address","internalType":"address"}],"outputs":[{"name":"","type":"uint256","internalType":"uint256"}],"stateMutability":"view"},{"type":"function","name":"totalSupply","inputs":[],"outputs":[{"name":"","type":"uint256","internalType":"uint256"}],"stateMutability":"view"},{"type":"function","name":"transfer","inputs":[{"name":"_recipient","type":"address","internalType":"address"},{"name":"_amount","type":"uint256","internalType":"uint256"}],"outputs":[{"name":"","type":"bool","internalType":"bool"}],"stateMutability":"nonpayable"},{"type":"function","name":"transferFrom","inputs":[{"name":"_sender","type":"address","internalType":"address"},{"name":"_recipient","type":"address","internalType":"address"},{"name":"_amount","type":"uint256","internalType":"uint256"}],"outputs":[{"name":"","type":"bool","internalType":"bool"}],"stateMutability":"nonpayable"},{"type":"function","name":"transferOwnership","inputs":[{"name":"newOwner","type":"address","internalType":"address"}],"outputs":[],"stateMutability":"nonpayable"},{"type":"function","name":"unstakeForAccount","inputs":[{"name":"_account","type":"address","internalType":"address"},{"name":"_amount","type":"uint256","internalType":"uint256"},{"name":"_receiver","type":"address","internalType":"address"}],"outputs":[],"stateMutability":"nonpayable"},{"type":"function","name":"updateLastDistributionTime","inputs":[],"outputs":[],"stateMutability":"nonpayable"},{"type":"function","name":"updateRewards","inputs":[],"outputs":[],"stateMutability":"nonpayable"},{"type":"function","name":"viewFeeRevenue","inputs":[],"outputs":[{"name":"","type":"uint256","internalType":"uint256"}],"stateMutability":"view"},{"type":"function","name":"withdrawFeeRevenue","inputs":[{"name":"_amount","type":"uint256","internalType":"uint256"}],"outputs":[],"stateMutability":"nonpayable"},{"type":"event","name":"Approval","inputs":[{"name":"owner","type":"address","indexed":true,"internalType":"address"},{"name":"spender","type":"address","indexed":true,"internalType":"address"},{"name":"value","type":"uint256","indexed":false,"internalType":"uint256"}],"anonymous":false},{"type":"event","name":"Claim","inputs":[{"name":"receiver","type":"address","indexed":false,"internalType":"address"},{"name":"amount","type":"uint256","indexed":false,"internalType":"uint256"}],"anonymous":false},{"type":"event","name":"OwnershipTransferred","inputs":[{"name":"previousOwner","type":"address","indexed":true,"internalType":"address"},{"name":"newOwner","type":"address","indexed":true,"internalType":"address"}],"anonymous":false},{"type":"event","name":"TokensPerIntervalChange","inputs":[{"name":"amount","type":"uint256","indexed":false,"internalType":"uint256"}],"anonymous":false},{"type":"event","name":"Transfer","inputs":[{"name":"from","type":"address","indexed":true,"internalType":"address"},{"name":"to","type":"address","indexed":true,"internalType":"address"},{"name":"value","type":"uint256","indexed":false,"internalType":"uint256"}],"anonymous":false},{"type":"error","name":"OwnableInvalidOwner","inputs":[{"name":"owner","type":"address","internalType":"address"}]},{"type":"error","name":"OwnableUnauthorizedAccount","inputs":[{"name":"account","type":"address","internalType":"address"}]},{"type":"error","name":"ReentrancyGuardReentrantCall","inputs":[]}],"bytecode":{"object":"0x6080604052600a600c553480156200001657600080fd5b50604051620026e6380380620026e68339810160408190526200003991620001f8565b6001600055836001600160a01b0381166200006e57604051631e4fbdf760e01b81526000600482015260240160405180910390fd5b6200007981620000c4565b50601262000088848262000317565b50601362000097838262000317565b506001600160a01b03166000908152600b60205260409020805460ff1916600117905550620003e3915050565b600180546001600160a01b038381166001600160a01b0319831681179093556040519116919082907f8be0079c531659141344cd1fd0a4f28419497f9722a3daafe3b4186f6b6457e090600090a35050565b80516001600160a01b03811681146200012e57600080fd5b919050565b634e487b7160e01b600052604160045260246000fd5b600082601f8301126200015b57600080fd5b81516001600160401b038082111562000178576200017862000133565b604051601f8301601f19908116603f01168101908282118183101715620001a357620001a362000133565b81604052838152602092508683858801011115620001c057600080fd5b600091505b83821015620001e45785820183015181830184015290820190620001c5565b600093810190920192909252949350505050565b600080600080608085870312156200020f57600080fd5b6200021a8562000116565b60208601519094506001600160401b03808211156200023857600080fd5b620002468883890162000149565b945060408701519150808211156200025d57600080fd5b506200026c8782880162000149565b9250506200027d6060860162000116565b905092959194509250565b600181811c908216806200029d57607f821691505b602082108103620002be57634e487b7160e01b600052602260045260246000fd5b50919050565b601f8211156200031257600081815260208120601f850160051c81016020861015620002ed5750805b601f850160051c820191505b818110156200030e57828155600101620002f9565b5050505b505050565b81516001600160401b0381111562000333576200033362000133565b6200034b8162000344845462000288565b84620002c4565b602080601f8311600181146200038357600084156200036a5750858301515b600019600386901b1c1916600185901b1785556200030e565b600085815260208120601f198616915b82811015620003b45788860151825594840194600190910190840162000393565b5085821015620003d35787850151600019600388901b60f8161c191681555b5050505050600190811b01905550565b6122f380620003f36000396000f3fe608060405234801561001057600080fd5b50600436106102bb5760003560e01c806355b6ed5c11610182578063a9059cbb116100e9578063e9503425116100a2578063f2fde38b1161007c578063f2fde38b1461068e578063f5fc5076146106a1578063f831e49e146106aa578063fd3c9c56146106bd57600080fd5b8063e950342514610652578063eded3fda14610672578063ef9537501461067a57600080fd5b8063a9059cbb146105b8578063aaf5eb68146105cb578063b5f73e8d146105df578063cb122a09146105f2578063dd62ed3e14610605578063dfbaefb11461063e57600080fd5b8063853b9dca1161013b578063853b9dca146105495780638da5cb5b1461055c57806395d89b4114610581578063992642e5146105895780639cb7de4b1461059c578063a8d93627146105af57600080fd5b806355b6ed5c146104be5780635668b02e146104e957806369558c91146104fc57806370a082311461050f578063715018a61461053857806375b173501461054057600080fd5b806333080b6e1161022657806344a08411116101df57806344a084111461042257806346ea87af14610442578063485cc9551461046557806349a3493f146104785780634c69c00f1461048b578063552ce1dc1461049e57600080fd5b806333080b6e146103b85780633792def3146103cb578063392e53cd146103eb5780633ae6d6eb146103ff5780633e158b0c14610407578063402914f51461040f57600080fd5b806318160ddd1161027857806318160ddd1461034f57806318e20a03146103585780631a1c6e531461036d57806323b872dd1461037657806327e235e314610389578063313ce567146103a957600080fd5b806304bfd609146102c057806306fdde03146102db578063095ea7b3146102f057806310c1c10314610313578063126082cf1461033357806313e82e7a1461033c575b600080fd5b6102c86106d0565b6040519081526020015b60405180910390f35b6102e36106e1565b6040516102d29190611cd2565b6103036102fe366004611d3c565b61076f565b60405190151581526020016102d2565b6102c8610321366004611d66565b60076020526000908152604090205481565b6102c861271081565b6102c861034a366004611d81565b610786565b6102c860105481565b61036b610366366004611db4565b6107ae565b005b6102c8600c5481565b610303610384366004611dcd565b610866565b6102c8610397366004611d66565b60056020526000908152604090205481565b604051600681526020016102d2565b61036b6103c6366004611e09565b610900565b6102c86103d9366004611d66565b600a6020526000908152604090205481565b60035461030390600160a01b900460ff1681565b61036b61092a565b61036b610938565b6102c861041d366004611d66565b610956565b6102c8610430366004611d66565b60096020526000908152604090205481565b610303610450366004611d66565b600b6020526000908152604090205460ff1681565b61036b610473366004611d81565b610a49565b61036b610486366004611e45565b610b03565b61036b610499366004611d66565b610b53565b6102c86104ac366004611d66565b60046020526000908152604090205481565b6102c86104cc366004611d81565b600660209081526000928352604080842090915290825290205481565b61036b6104f7366004611e89565b610b7d565b61036b61050a366004611db4565b610c2a565b6102c861051d366004611d66565b6001600160a01b031660009081526005602052604090205490565b61036b610cca565b6102c8600f5481565b61036b610557366004611fb0565b610cdc565b6001546001600160a01b03165b6040516001600160a01b0390911681526020016102d2565b6102e3610d81565b600254610569906001600160a01b031681565b61036b6105aa36600461207e565b610d8e565b6102c8600e5481565b6103036105c6366004611d3c565b610dc1565b6102c86c0c9f2c9cd04674edea4000000081565b61036b6105ed366004611dcd565b610dce565b61036b6106003660046120b5565b610de9565b6102c8610613366004611d81565b6001600160a01b03918216600090815260066020908152604080832093909416825291909152205490565b60035461030390600160a81b900460ff1681565b6102c8610660366004611d66565b60086020526000908152604090205481565b6102c8610e4d565b60035461030390600160b01b900460ff1681565b61036b61069c366004611d66565b610e8b565b6102c860115481565b61036b6106b83660046120d0565b610ec9565b600354610569906001600160a01b031681565b60006106da610eef565b50600d5490565b601280546106ee906120ed565b80601f016020809104026020016040519081016040528092919081815260200182805461071a906120ed565b80156107675780601f1061073c57610100808354040283529160200191610767565b820191906000526020600020905b81548152906001019060200180831161074a57829003601f168201915b505050505081565b600061077c338484610f1c565b5060015b92915050565b6000610790611052565b61079861107c565b6107a283836110db565b90506107806001600055565b6107b6610eef565b600f546000036108215760405162461bcd60e51b815260206004820152602b60248201527f526577617264547261636b65723a20696e76616c6964206c617374446973747260448201526a69627574696f6e54696d6560a81b60648201526084015b60405180910390fd5b61082b60006111dd565b600e8190556040518181527f98dc76c39aa5a5dcb749f8750a65db3dfa1e14bcc1591a9c16a7420e5da748f89060200160405180910390a150565b336000908152600b602052604081205460ff161561089157610889848484611367565b5060016108f9565b60006108db83604051806060016040528060308152602001612260603091396001600160a01b03881660009081526006602090815260408083203384529091529020549190611517565b90506108e8853383610f1c565b6108f3858585611367565b60019150505b9392505050565b610908611052565b61091061107c565b61091b838383611551565b6109256001600055565b505050565b610932610eef565b42600f55565b610940611052565b61094a60006111dd565b6109546001600055565b565b6001600160a01b0381166000908152600760205260408120548082036109935750506001600160a01b031660009081526008602052604090205490565b60105460006109b76c0c9f2c9cd04674edea400000006109b1610e4d565b90611726565b905060006109d16109c883856117a8565b601154906117ea565b6001600160a01b038716600090815260096020526040902054909150610a3f90610a20906c0c9f2c9cd04674edea4000000090610a1a90610a13908690611849565b8890611726565b906117a8565b6001600160a01b038816600090815260086020526040902054906117ea565b9695505050505050565b610a51610eef565b600354600160a01b900460ff1615610ab65760405162461bcd60e51b815260206004820152602260248201527f526577617264547261636b65723a20616c726561647920696e697469616c697a604482015261195960f21b6064820152608401610818565b60038054600280546001600160a01b039586166001600160a01b031990911617905560ff60a81b19929093166001600160a81b031990931692909217600160a01b1716600160a81b179055565b6003546001600160a01b03163314610b2d5760405162461bcd60e51b815260040161081890612127565b6001600160a01b0383166000908152600760205260409020829055610925838281611551565b610b5b610eef565b600380546001600160a01b0319166001600160a01b0392909216919091179055565b610b85611052565b60025460405163d505accf60e01b8152336004820152306024820152604481018790526064810186905260ff8516608482015260a4810184905260c481018390526001600160a01b039091169063d505accf9060e401600060405180830381600087803b158015610bf557600080fd5b505af1158015610c09573d6000803e3d6000fd5b50505050610c1833338861188b565b610c226001600055565b505050505050565b610c32610eef565b600d54811115610c4157600080fd5b600d54610c4e9082611849565b600d5560025460405163a9059cbb60e01b8152336004820152602481018390526001600160a01b039091169063a9059cbb906044016020604051808303816000875af1158015610ca2573d6000803e3d6000fd5b505050506040513d601f19601f82011682018060405250810190610cc69190612174565b5050565b610cd2610eef565b6109546000611a03565b6003546001600160a01b03163314610d065760405162461bcd60e51b815260040161081890612127565b60005b825181101561092557818181518110610d2457610d24612191565b602002602001015160076000858481518110610d4257610d42612191565b60200260200101516001600160a01b03166001600160a01b03168152602001908152602001600020819055508080610d79906121bd565b915050610d09565b601380546106ee906120ed565b610d96610eef565b6001600160a01b03919091166000908152600b60205260409020805460ff1916911515919091179055565b600061077c338484611367565b610dd6611052565b610dde61107c565b61091b83838361188b565b610df1610eef565b60c88160ff161115610e455760405162461bcd60e51b815260206004820152601760248201527f466565206d757374206265203225206f72206c6f7765720000000000000000006044820152606401610818565b60ff16600c55565b6000600f544203610e5e5750600090565b6000610e75600f544261184990919063ffffffff16565b600e54909150610e859082611726565b91505090565b610e93610eef565b6001600160a01b038116610ebd57604051631e4fbdf760e01b815260006004820152602401610818565b610ec681611a03565b50565b610ed1610eef565b60038054911515600160a81b0260ff60a81b19909216919091179055565b6001546001600160a01b031633146109545760405163118cdaa760e01b8152336004820152602401610818565b6001600160a01b038316610f875760405162461bcd60e51b815260206004820152602c60248201527f526577617264547261636b65723a20617070726f76652066726f6d207468652060448201526b7a65726f206164647265737360a01b6064820152608401610818565b6001600160a01b038216610ff05760405162461bcd60e51b815260206004820152602a60248201527f526577617264547261636b65723a20617070726f766520746f20746865207a65604482015269726f206164647265737360b01b6064820152608401610818565b6001600160a01b0383811660008181526006602090815260408083209487168084529482529182902085905590518481527f8c5be1e5ebec7d5bd14f71427d1e84f3dd0314c0f7b2291e5b200ac8c7c3b92591015b60405180910390a3505050565b60026000540361107557604051633ee5aeb560e01b815260040160405180910390fd5b6002600055565b336000908152600b602052604090205460ff166109545760405162461bcd60e51b815260206004820152601860248201527f526577617264547261636b65723a20666f7262696464656e00000000000000006044820152606401610818565b600354600090600160b01b900460ff16156110f9576110f9836111dd565b6001600160a01b0383166000908152600860205260408120805491905580156108f95760025460405163a9059cbb60e01b81526001600160a01b038581166004830152602482018490529091169063a9059cbb906044016020604051808303816000875af115801561116f573d6000803e3d6000fd5b505050506040513d601f19601f820116820180604052508101906111939190612174565b50604080516001600160a01b0386168152602081018390527f47cee97cb7acd717b3c0aa1435d004cd5b3c8c57d70dbceb4e4458bbd60e39d4910160405180910390a19392505050565b60006111e7610e4d565b42600f556010546011549192509081158015906112045750600083115b156112365761122e61122783610a1a866c0c9f2c9cd04674edea40000000611726565b82906117ea565b601181905590505b806000036112445750505050565b6001600160a01b03841615611361576001600160a01b03841660009081526007602090815260408083205460099092528220549091906112a3906c0c9f2c9cd04674edea4000000090610a1a9061129c908790611849565b8590611726565b6001600160a01b038716600090815260086020526040812054919250906112ca90836117ea565b6001600160a01b0388166000908152600860209081526040808320849055600990915290208590559050801580159061131a57506001600160a01b03871660009081526007602052604090205415155b1561135d576001600160a01b0387166000908152600a602052604081205461134290846117ea565b6001600160a01b0389166000908152600a6020526040902055505b5050505b50505050565b6001600160a01b0383166113d35760405162461bcd60e51b815260206004820152602d60248201527f526577617264547261636b65723a207472616e736665722066726f6d2074686560448201526c207a65726f206164647265737360981b6064820152608401610818565b6001600160a01b03821661143d5760405162461bcd60e51b815260206004820152602b60248201527f526577617264547261636b65723a207472616e7366657220746f20746865207a60448201526a65726f206164647265737360a81b6064820152608401610818565b600354600160a81b900460ff16156114575761145761107c565b611494816040518060600160405280602e8152602001612290602e91396001600160a01b0386166000908152600560205260409020549190611517565b6001600160a01b0380851660009081526005602052604080822093909355908416815220546114c390826117ea565b6001600160a01b0380841660008181526005602052604090819020939093559151908516907fddf252ad1be2c89b69c2b068fc378daa952ba7f163c4a11628f55a4df523b3ef906110459085815260200190565b6000818484111561153b5760405162461bcd60e51b81526004016108189190611cd2565b50600061154884866121d6565b95945050505050565b600082116115a15760405162461bcd60e51b815260206004820152601e60248201527f526577617264547261636b65723a20696e76616c6964205f616d6f756e7400006044820152606401610818565b600354600160b01b900460ff16156115bc576115bc836111dd565b60006115c783611a55565b6001600160a01b038516600090815260076020526040902054909150838110156116475760405162461bcd60e51b815260206004820152602b60248201527f526577617264547261636b65723a205f616d6f756e742065786365656473207360448201526a1d185ad959105b5bdd5b9d60aa1b6064820152608401610818565b6116518185611849565b6001600160a01b0380871660009081526007602090815260408083209490945560025490921681526004909152205461168a9085611849565b6002546001600160a01b03166000908152600460205260409020556116af8585611aa6565b60025460405163a9059cbb60e01b81526001600160a01b038581166004830152602482018590529091169063a9059cbb906044016020604051808303816000875af1158015611702573d6000803e3d6000fd5b505050506040513d601f19601f82011682018060405250810190610c229190612174565b60008260000361173857506000610780565b600061174483856121e9565b9050826117518583612200565b146108f95760405162461bcd60e51b815260206004820152602160248201527f536166654d6174683a206d756c7469706c69636174696f6e206f766572666c6f6044820152607760f81b6064820152608401610818565b60006108f983836040518060400160405280601a81526020017f536166654d6174683a206469766973696f6e206279207a65726f000000000000815250611bba565b6000806117f78385612222565b9050838110156108f95760405162461bcd60e51b815260206004820152601b60248201527f536166654d6174683a206164646974696f6e206f766572666c6f7700000000006044820152606401610818565b60006108f983836040518060400160405280601e81526020017f536166654d6174683a207375627472616374696f6e206f766572666c6f770000815250611517565b600081116118db5760405162461bcd60e51b815260206004820152601e60248201527f526577617264547261636b65723a20696e76616c6964205f616d6f756e7400006044820152606401610818565b6002546040516323b872dd60e01b81526001600160a01b03858116600483015230602483015260448201849052909116906323b872dd906064016020604051808303816000875af1158015611934573d6000803e3d6000fd5b505050506040513d601f19601f820116820180604052508101906119589190612174565b50600354600160b01b900460ff161561197457611974826111dd565b600061197f82611a55565b6001600160a01b0384166000908152600760205260409020549091506119a590826117ea565b6001600160a01b038085166000908152600760209081526040808320949094556002549092168152600490915220546119de90826117ea565b6002546001600160a01b03166000908152600460205260409020556113618382611be8565b600180546001600160a01b038381166001600160a01b0319831681179093556040519116919082907f8be0079c531659141344cd1fd0a4f28419497f9722a3daafe3b4186f6b6457e090600090a35050565b600080611a7d611a76612710610a1a600c548761172690919063ffffffff16565b8490611849565b9050611a898382611849565b600d6000828254611a9a9190612222565b90915550909392505050565b6001600160a01b038216611b0e5760405162461bcd60e51b815260206004820152602960248201527f526577617264547261636b65723a206275726e2066726f6d20746865207a65726044820152686f206164647265737360b81b6064820152608401610818565b611b4b816040518060600160405280602a8152602001612236602a91396001600160a01b0385166000908152600560205260409020549190611517565b6001600160a01b038316600090815260056020526040902055601054611b719082611849565b6010556040518181526000906001600160a01b038416907fddf252ad1be2c89b69c2b068fc378daa952ba7f163c4a11628f55a4df523b3ef906020015b60405180910390a35050565b60008183611bdb5760405162461bcd60e51b81526004016108189190611cd2565b5060006115488486612200565b6001600160a01b038216611c4e5760405162461bcd60e51b815260206004820152602760248201527f526577617264547261636b65723a206d696e7420746f20746865207a65726f206044820152666164647265737360c81b6064820152608401610818565b601054611c5b90826117ea565b6010556001600160a01b038216600090815260056020526040902054611c8190826117ea565b6001600160a01b0383166000818152600560205260408082209390935591519091907fddf252ad1be2c89b69c2b068fc378daa952ba7f163c4a11628f55a4df523b3ef90611bae9085815260200190565b600060208083528351808285015260005b81811015611cff57858101830151858201604001528201611ce3565b506000604082860101526040601f19601f8301168501019250505092915050565b80356001600160a01b0381168114611d3757600080fd5b919050565b60008060408385031215611d4f57600080fd5b611d5883611d20565b946020939093013593505050565b600060208284031215611d7857600080fd5b6108f982611d20565b60008060408385031215611d9457600080fd5b611d9d83611d20565b9150611dab60208401611d20565b90509250929050565b600060208284031215611dc657600080fd5b5035919050565b600080600060608486031215611de257600080fd5b611deb84611d20565b9250611df960208501611d20565b9150604084013590509250925092565b600080600060608486031215611e1e57600080fd5b611e2784611d20565b925060208401359150611e3c60408501611d20565b90509250925092565b600080600060608486031215611e5a57600080fd5b611e6384611d20565b95602085013595506040909401359392505050565b803560ff81168114611d3757600080fd5b60008060008060008060c08789031215611ea257600080fd5b863595506020870135945060408701359350611ec060608801611e78565b92506080870135915060a087013590509295509295509295565b634e487b7160e01b600052604160045260246000fd5b604051601f8201601f1916810167ffffffffffffffff81118282101715611f1957611f19611eda565b604052919050565b600067ffffffffffffffff821115611f3b57611f3b611eda565b5060051b60200190565b600082601f830112611f5657600080fd5b81356020611f6b611f6683611f21565b611ef0565b82815260059290921b84018101918181019086841115611f8a57600080fd5b8286015b84811015611fa55780358352918301918301611f8e565b509695505050505050565b60008060408385031215611fc357600080fd5b823567ffffffffffffffff80821115611fdb57600080fd5b818501915085601f830112611fef57600080fd5b81356020611fff611f6683611f21565b82815260059290921b8401810191818101908984111561201e57600080fd5b948201945b838610156120435761203486611d20565b82529482019490820190612023565b9650508601359250508082111561205957600080fd5b5061206685828601611f45565b9150509250929050565b8015158114610ec657600080fd5b6000806040838503121561209157600080fd5b61209a83611d20565b915060208301356120aa81612070565b809150509250929050565b6000602082840312156120c757600080fd5b6108f982611e78565b6000602082840312156120e257600080fd5b81356108f981612070565b600181811c9082168061210157607f821691505b60208210810361212157634e487b7160e01b600052602260045260246000fd5b50919050565b6020808252602d908201527f596f7520617265206e6f7420617574686f72697a656420746f2063616c6c207460408201526c3434b990333ab731ba34b7b71760991b606082015260800190565b60006020828403121561218657600080fd5b81516108f981612070565b634e487b7160e01b600052603260045260246000fd5b634e487b7160e01b600052601160045260246000fd5b6000600182016121cf576121cf6121a7565b5060010190565b81810381811115610780576107806121a7565b8082028115828204841417610780576107806121a7565b60008261221d57634e487b7160e01b600052601260045260246000fd5b500490565b80820180821115610780576107806121a756fe526577617264547261636b65723a206275726e20616d6f756e7420657863656564732062616c616e6365526577617264547261636b65723a207472616e7366657220616d6f756e74206578636565647320616c6c6f77616e6365526577617264547261636b65723a207472616e7366657220616d6f756e7420657863656564732062616c616e6365a26469706673582212204fe697d4535072b92acf99564d4d0276d185fbd64b473e95f4c984a75372219b64736f6c63430008140033","linkReferences":{}},"methodIdentifiers":{"BASIS_POINTS_DIVISOR()":"126082cf","PRECISION()":"aaf5eb68","allowance(address,address)":"dd62ed3e","allowances(address,address)":"55b6ed5c","approve(address,uint256)":"095ea7b3","balanceOf(address)":"70a08231","balanceOracle()":"fd3c9c56","balances(address)":"27e235e3","claimForAccount(address,address)":"13e82e7a","claimable(address)":"402914f5","claimableReward(address)":"e9503425","cumulativeRewardPerToken()":"f5fc5076","cumulativeRewards(address)":"3792def3","decimals()":"313ce567","feeBPS()":"1a1c6e53","inPrivateTransferMode()":"dfbaefb1","initialize(address,address)":"485cc955","isHandler(address)":"46ea87af","isInitialized()":"392e53cd","lastDistributionTime()":"75b17350","name()":"06fdde03","oracleCallback(address,uint256,uint256)":"49a3493f","oracleCallbackEndDay(address[],uint256[])":"853b9dca","owner()":"8da5cb5b","pendingRewards()":"eded3fda","previousCumulatedRewardPerToken(address)":"44a08411","renounceOwnership()":"715018a6","setFee(uint8)":"cb122a09","setHandler(address,bool)":"9cb7de4b","setInPrivateModes(bool)":"f831e49e","setOracleAddress(address)":"4c69c00f","setTokensPerInterval(uint256)":"18e20a03","stableCoin()":"992642e5","stableRewardSystem()":"ef953750","stakeForAccount(address,address,uint256)":"b5f73e8d","stakeWithPermit(uint256,uint256,uint256,uint8,bytes32,bytes32)":"5668b02e","stakedAmounts(address)":"10c1c103","symbol()":"95d89b41","tokensPerInterval()":"a8d93627","totalDepositSupply(address)":"552ce1dc","totalSupply()":"18160ddd","transfer(address,uint256)":"a9059cbb","transferFrom(address,address,uint256)":"23b872dd","transferOwnership(address)":"f2fde38b","unstakeForAccount(address,uint256,address)":"33080b6e","updateLastDistributionTime()":"3ae6d6eb","updateRewards()":"3e158b0c","viewFeeRevenue()":"04bfd609","withdrawFeeRevenue(uint256)":"69558c91"},"id":16}