{"abi":[{"type":"constructor","inputs":[{"name":"_name","type":"string","internalType":"string"},{"name":"_symbol","type":"string","internalType":"string"},{"name":"_vestingDuration","type":"uint256","internalType":"uint256"},{"name":"_fidToken","type":"address","internalType":"address"},{"name":"_pairToken","type":"address","internalType":"address"},{"name":"_claimableToken","type":"address","internalType":"address"},{"name":"_rewardTracker","type":"address","internalType":"address"}],"stateMutability":"nonpayable"},{"type":"function","name":"allowance","inputs":[{"name":"","type":"address","internalType":"address"},{"name":"","type":"address","internalType":"address"}],"outputs":[{"name":"","type":"uint256","internalType":"uint256"}],"stateMutability":"view"},{"type":"function","name":"approve","inputs":[{"name":"","type":"address","internalType":"address"},{"name":"","type":"uint256","internalType":"uint256"}],"outputs":[{"name":"","type":"bool","internalType":"bool"}],"stateMutability":"nonpayable"},{"type":"function","name":"balanceOf","inputs":[{"name":"_account","type":"address","internalType":"address"}],"outputs":[{"name":"","type":"uint256","internalType":"uint256"}],"stateMutability":"view"},{"type":"function","name":"balances","inputs":[{"name":"","type":"address","internalType":"address"}],"outputs":[{"name":"","type":"uint256","internalType":"uint256"}],"stateMutability":"view"},{"type":"function","name":"bonusRewards","inputs":[{"name":"","type":"address","internalType":"address"}],"outputs":[{"name":"","type":"uint256","internalType":"uint256"}],"stateMutability":"view"},{"type":"function","name":"claim","inputs":[],"outputs":[{"name":"","type":"uint256","internalType":"uint256"}],"stateMutability":"nonpayable"},{"type":"function","name":"claimForAccount","inputs":[{"name":"_account","type":"address","internalType":"address"},{"name":"_receiver","type":"address","internalType":"address"}],"outputs":[{"name":"","type":"uint256","internalType":"uint256"}],"stateMutability":"nonpayable"},{"type":"function","name":"claimable","inputs":[{"name":"_account","type":"address","internalType":"address"}],"outputs":[{"name":"","type":"uint256","internalType":"uint256"}],"stateMutability":"view"},{"type":"function","name":"claimableToken","inputs":[],"outputs":[{"name":"","type":"address","internalType":"address"}],"stateMutability":"view"},{"type":"function","name":"claimedAmounts","inputs":[{"name":"","type":"address","internalType":"address"}],"outputs":[{"name":"","type":"uint256","internalType":"uint256"}],"stateMutability":"view"},{"type":"function","name":"cumulativeClaimAmounts","inputs":[{"name":"","type":"address","internalType":"address"}],"outputs":[{"name":"","type":"uint256","internalType":"uint256"}],"stateMutability":"view"},{"type":"function","name":"cumulativeRewardDeductions","inputs":[{"name":"","type":"address","internalType":"address"}],"outputs":[{"name":"","type":"uint256","internalType":"uint256"}],"stateMutability":"view"},{"type":"function","name":"decimals","inputs":[],"outputs":[{"name":"","type":"uint8","internalType":"uint8"}],"stateMutability":"view"},{"type":"function","name":"deposit","inputs":[{"name":"_amount","type":"uint256","internalType":"uint256"}],"outputs":[],"stateMutability":"nonpayable"},{"type":"function","name":"depositForAccount","inputs":[{"name":"_account","type":"address","internalType":"address"},{"name":"_amount","type":"uint256","internalType":"uint256"}],"outputs":[],"stateMutability":"nonpayable"},{"type":"function","name":"fidToken","inputs":[],"outputs":[{"name":"","type":"address","internalType":"address"}],"stateMutability":"view"},{"type":"function","name":"getCombinedAverageStakedAmount","inputs":[{"name":"_account","type":"address","internalType":"address"}],"outputs":[{"name":"","type":"uint256","internalType":"uint256"}],"stateMutability":"view"},{"type":"function","name":"getMaxVestableAmount","inputs":[{"name":"_account","type":"address","internalType":"address"}],"outputs":[{"name":"","type":"uint256","internalType":"uint256"}],"stateMutability":"view"},{"type":"function","name":"getPairAmount","inputs":[{"name":"_account","type":"address","internalType":"address"},{"name":"_esAmount","type":"uint256","internalType":"uint256"}],"outputs":[{"name":"","type":"uint256","internalType":"uint256"}],"stateMutability":"view"},{"type":"function","name":"getTotalVested","inputs":[{"name":"_account","type":"address","internalType":"address"}],"outputs":[{"name":"","type":"uint256","internalType":"uint256"}],"stateMutability":"view"},{"type":"function","name":"getVestedAmount","inputs":[{"name":"_account","type":"address","internalType":"address"}],"outputs":[{"name":"","type":"uint256","internalType":"uint256"}],"stateMutability":"view"},{"type":"function","name":"hasMaxVestableAmount","inputs":[],"outputs":[{"name":"","type":"bool","internalType":"bool"}],"stateMutability":"view"},{"type":"function","name":"hasPairToken","inputs":[],"outputs":[{"name":"","type":"bool","internalType":"bool"}],"stateMutability":"view"},{"type":"function","name":"hasRewardTracker","inputs":[],"outputs":[{"name":"","type":"bool","internalType":"bool"}],"stateMutability":"view"},{"type":"function","name":"isHandler","inputs":[{"name":"","type":"address","internalType":"address"}],"outputs":[{"name":"","type":"bool","internalType":"bool"}],"stateMutability":"view"},{"type":"function","name":"lastVestingTimes","inputs":[{"name":"","type":"address","internalType":"address"}],"outputs":[{"name":"","type":"uint256","internalType":"uint256"}],"stateMutability":"view"},{"type":"function","name":"name","inputs":[],"outputs":[{"name":"","type":"string","internalType":"string"}],"stateMutability":"view"},{"type":"function","name":"owner","inputs":[],"outputs":[{"name":"","type":"address","internalType":"address"}],"stateMutability":"view"},{"type":"function","name":"pairAmounts","inputs":[{"name":"","type":"address","internalType":"address"}],"outputs":[{"name":"","type":"uint256","internalType":"uint256"}],"stateMutability":"view"},{"type":"function","name":"pairSupply","inputs":[],"outputs":[{"name":"","type":"uint256","internalType":"uint256"}],"stateMutability":"view"},{"type":"function","name":"pairToken","inputs":[],"outputs":[{"name":"","type":"address","internalType":"address"}],"stateMutability":"view"},{"type":"function","name":"renounceOwnership","inputs":[],"outputs":[],"stateMutability":"nonpayable"},{"type":"function","name":"rewardTracker","inputs":[],"outputs":[{"name":"","type":"address","internalType":"address"}],"stateMutability":"view"},{"type":"function","name":"setBonusRewards","inputs":[{"name":"_account","type":"address","internalType":"address"},{"name":"_amount","type":"uint256","internalType":"uint256"}],"outputs":[],"stateMutability":"nonpayable"},{"type":"function","name":"setCumulativeRewardDeductions","inputs":[{"name":"_account","type":"address","internalType":"address"},{"name":"_amount","type":"uint256","internalType":"uint256"}],"outputs":[],"stateMutability":"nonpayable"},{"type":"function","name":"setHandler","inputs":[{"name":"_handler","type":"address","internalType":"address"},{"name":"_isActive","type":"bool","internalType":"bool"}],"outputs":[],"stateMutability":"nonpayable"},{"type":"function","name":"setHasMaxVestableAmount","inputs":[{"name":"_hasMaxVestableAmount","type":"bool","internalType":"bool"}],"outputs":[],"stateMutability":"nonpayable"},{"type":"function","name":"setTransferredAverageStakedAmounts","inputs":[{"name":"_account","type":"address","internalType":"address"},{"name":"_amount","type":"uint256","internalType":"uint256"}],"outputs":[],"stateMutability":"nonpayable"},{"type":"function","name":"setTransferredCumulativeRewards","inputs":[{"name":"_account","type":"address","internalType":"address"},{"name":"_amount","type":"uint256","internalType":"uint256"}],"outputs":[],"stateMutability":"nonpayable"},{"type":"function","name":"symbol","inputs":[],"outputs":[{"name":"","type":"string","internalType":"string"}],"stateMutability":"view"},{"type":"function","name":"totalSupply","inputs":[],"outputs":[{"name":"","type":"uint256","internalType":"uint256"}],"stateMutability":"view"},{"type":"function","name":"transfer","inputs":[{"name":"","type":"address","internalType":"address"},{"name":"","type":"uint256","internalType":"uint256"}],"outputs":[{"name":"","type":"bool","internalType":"bool"}],"stateMutability":"pure"},{"type":"function","name":"transferFrom","inputs":[{"name":"","type":"address","internalType":"address"},{"name":"","type":"address","internalType":"address"},{"name":"","type":"uint256","internalType":"uint256"}],"outputs":[{"name":"","type":"bool","internalType":"bool"}],"stateMutability":"nonpayable"},{"type":"function","name":"transferOwnership","inputs":[{"name":"newOwner","type":"address","internalType":"address"}],"outputs":[],"stateMutability":"nonpayable"},{"type":"function","name":"transferStakeValues","inputs":[{"name":"_sender","type":"address","internalType":"address"},{"name":"_receiver","type":"address","internalType":"address"}],"outputs":[],"stateMutability":"nonpayable"},{"type":"function","name":"transferredAverageStakedAmounts","inputs":[{"name":"","type":"address","internalType":"address"}],"outputs":[{"name":"","type":"uint256","internalType":"uint256"}],"stateMutability":"view"},{"type":"function","name":"transferredCumulativeRewards","inputs":[{"name":"","type":"address","internalType":"address"}],"outputs":[{"name":"","type":"uint256","internalType":"uint256"}],"stateMutability":"view"},{"type":"function","name":"vestingDuration","inputs":[],"outputs":[{"name":"","type":"uint256","internalType":"uint256"}],"stateMutability":"view"},{"type":"function","name":"withdraw","inputs":[],"outputs":[],"stateMutability":"nonpayable"},{"type":"function","name":"withdrawToken","inputs":[{"name":"_token","type":"address","internalType":"address"},{"name":"_account","type":"address","internalType":"address"},{"name":"_amount","type":"uint256","internalType":"uint256"}],"outputs":[],"stateMutability":"nonpayable"},{"type":"event","name":"Approval","inputs":[{"name":"owner","type":"address","indexed":true,"internalType":"address"},{"name":"spender","type":"address","indexed":true,"internalType":"address"},{"name":"value","type":"uint256","indexed":false,"internalType":"uint256"}],"anonymous":false},{"type":"event","name":"Claim","inputs":[{"name":"receiver","type":"address","indexed":false,"internalType":"address"},{"name":"amount","type":"uint256","indexed":false,"internalType":"uint256"}],"anonymous":false},{"type":"event","name":"Deposit","inputs":[{"name":"account","type":"address","indexed":false,"internalType":"address"},{"name":"amount","type":"uint256","indexed":false,"internalType":"uint256"}],"anonymous":false},{"type":"event","name":"OwnershipTransferred","inputs":[{"name":"previousOwner","type":"address","indexed":true,"internalType":"address"},{"name":"newOwner","type":"address","indexed":true,"internalType":"address"}],"anonymous":false},{"type":"event","name":"PairTransfer","inputs":[{"name":"from","type":"address","indexed":true,"internalType":"address"},{"name":"to","type":"address","indexed":true,"internalType":"address"},{"name":"value","type":"uint256","indexed":false,"internalType":"uint256"}],"anonymous":false},{"type":"event","name":"Transfer","inputs":[{"name":"from","type":"address","indexed":true,"internalType":"address"},{"name":"to","type":"address","indexed":true,"internalType":"address"},{"name":"value","type":"uint256","indexed":false,"internalType":"uint256"}],"anonymous":false},{"type":"event","name":"Withdraw","inputs":[{"name":"account","type":"address","indexed":false,"internalType":"address"},{"name":"claimedAmount","type":"uint256","indexed":false,"internalType":"uint256"},{"name":"balance","type":"uint256","indexed":false,"internalType":"uint256"}],"anonymous":false}],"bytecode":{"object":"0x60806040526004805460ff191660121790553480156200001e57600080fd5b50604051620025d9380380620025d9833981016040819052620000419162000211565b60016000556200005133620000dd565b60026200005f88826200035e565b5060036200006e87826200035e565b506005859055600680546001600160a01b038087166001600160a01b031992831617909255600780548684169083161790556008805485841690831617905560098054928416929091168217905515620000d057600c805460ff191660011790555b505050505050506200042a565b600180546001600160a01b038381166001600160a01b0319831681179093556040519116919082907f8be0079c531659141344cd1fd0a4f28419497f9722a3daafe3b4186f6b6457e090600090a35050565b634e487b7160e01b600052604160045260246000fd5b600082601f8301126200015757600080fd5b81516001600160401b03808211156200017457620001746200012f565b604051601f8301601f19908116603f011681019082821181831017156200019f576200019f6200012f565b81604052838152602092508683858801011115620001bc57600080fd5b600091505b83821015620001e05785820183015181830184015290820190620001c1565b600093810190920192909252949350505050565b80516001600160a01b03811681146200020c57600080fd5b919050565b600080600080600080600060e0888a0312156200022d57600080fd5b87516001600160401b03808211156200024557600080fd5b620002538b838c0162000145565b985060208a01519150808211156200026a57600080fd5b50620002798a828b0162000145565b965050604088015194506200029160608901620001f4565b9350620002a160808901620001f4565b9250620002b160a08901620001f4565b9150620002c160c08901620001f4565b905092959891949750929550565b600181811c90821680620002e457607f821691505b6020821081036200030557634e487b7160e01b600052602260045260246000fd5b50919050565b601f8211156200035957600081815260208120601f850160051c81016020861015620003345750805b601f850160051c820191505b81811015620003555782815560010162000340565b5050505b505050565b81516001600160401b038111156200037a576200037a6200012f565b62000392816200038b8454620002cf565b846200030b565b602080601f831160018114620003ca5760008415620003b15750858301515b600019600386901b1c1916600185901b17855562000355565b600085815260208120601f198616915b82811015620003fb57888601518255948401946001909101908401620003da565b50858210156200041a5787850151600019600388901b60f8161c191681555b5050505050600190811b01905550565b61219f806200043a6000396000f3fe608060405234801561001057600080fd5b50600436106102d65760003560e01c806370a0823111610182578063b5ff136d116100e9578063d89b7007116100a2578063f2fde38b1161007c578063f2fde38b146106c8578063f421f62a146106db578063f6d6d5aa146106ee578063f713c2301461070157600080fd5b8063d89b70071461068c578063dd62ed3e1461069f578063e3ecc4b2146106b557600080fd5b8063b5ff136d14610600578063b6b55f2514610620578063b71bce2a14610633578063d0b038b714610653578063d5a73fdd14610666578063d75abb571461067957600080fd5b8063930354731161013b57806393035473146105a557806395d89b41146105b85780639cb7de4b146105c0578063a2545fa5146105d3578063a9059cbb1461032f578063acf077a5146105f357600080fd5b806370a082311461051057806371417b3214610539578063715018a6146105595780637337035c146105615780637cf8f3b2146105815780638da5cb5b1461059457600080fd5b8063313ce5671161024157806341f22724116101fa5780634e71d92d116101d45780634e71d92d146104c25780635d50e729146104ca57806369de9b93146104ea5780636bcb411a146104fd57600080fd5b806341f227241461047957806345f01ee61461048c57806346ea87af1461049f57600080fd5b8063313ce567146103f9578063342fcda914610418578063387a785d1461042b5780633ccfd60b1461044b5780633de35b7914610453578063402914f51461046657600080fd5b80631514617e116102935780631514617e1461038557806315e90a411461038e57806318160ddd1461039757806323b872dd146103a057806327e235e3146103ae57806328bc83e7146103ce57600080fd5b806301e33667146102db57806306fdde03146102f057806308f26c761461030e578063095ea7b31461032f5780630db9ea4a1461035257806313e82e7a14610372575b600080fd5b6102ee6102e9366004611e46565b610714565b005b6102f8610735565b6040516103059190611ea6565b60405180910390f35b61032161031c366004611ed9565b6107c3565b604051908152602001610305565b61034261033d366004611ef4565b6108d1565b6040519015158152602001610305565b610321610360366004611ed9565b60116020526000908152604090205481565b610321610380366004611f1e565b610921565b61032160055481565b610321600b5481565b610321600a5481565b61034261033d366004611e46565b6103216103bc366004611ed9565b600d6020526000908152604090205481565b6006546103e1906001600160a01b031681565b6040516001600160a01b039091168152602001610305565b6004546104069060ff1681565b60405160ff9091168152602001610305565b6102ee610426366004611ef4565b610968565b610321610439366004611ed9565b60146020526000908152604090205481565b6102ee6109aa565b6007546103e1906001600160a01b031681565b610321610474366004611ed9565b610b49565b6102ee610487366004611ef4565b610b9a565b61032161049a366004611ed9565b610bec565b6103426104ad366004611ed9565b60166020526000908152604090205460ff1681565b610321610d49565b6103216104d8366004611ed9565b600e6020526000908152604090205481565b6102ee6104f8366004611f5f565b610d86565b6009546103e1906001600160a01b031681565b61032161051e366004611ed9565b6001600160a01b03166000908152600d602052604090205490565b610321610547366004611ed9565b60106020526000908152604090205481565b6102ee610da1565b61032161056f366004611ed9565b60126020526000908152604090205481565b61032161058f366004611ef4565b610db5565b6001546001600160a01b03166103e1565b6103216105b3366004611ed9565b610e2f565b6102f8610e5c565b6102ee6105ce366004611f7c565b610e69565b6103216105e1366004611ed9565b60156020526000908152604090205481565b600c546103429060ff1681565b61032161060e366004611ed9565b600f6020526000908152604090205481565b6102ee61062e366004611fb3565b610e9c565b610321610641366004611ed9565b60136020526000908152604090205481565b6102ee610661366004611ef4565b610ed5565b610321610674366004611ed9565b610f27565b6007546001600160a01b03161515610342565b6102ee61069a366004611ef4565b610f55565b6103216106ad366004611f1e565b600092915050565b6102ee6106c3366004611ef4565b610fa7565b6102ee6106d6366004611ed9565b610ff9565b6009546001600160a01b03161515610342565b6008546103e1906001600160a01b031681565b6102ee61070f366004611f1e565b611072565b61071c6111b0565b6107306001600160a01b038416838361120a565b505050565b6002805461074290611fcc565b80601f016020809104026020016040519081016040528092919081815260200182805461076e90611fcc565b80156107bb5780601f10610790576101008083540402835291602001916107bb565b820191906000526020600020905b81548152906001019060200180831161079e57829003601f168201915b505050505081565b60006107d96009546001600160a01b0316151590565b6107e557506000919050565b6001600160a01b038281166000818152601360209081526040808320546015909252808320546009549151633792def360e01b8152600481019590955291949193911690633792def390602401602060405180830381865afa15801561084f573d6000803e3d6000fd5b505050506040513d601f19601f820116820180604052508101906108739190612006565b9050600061088b83610885848761126d565b9061126d565b6001600160a01b038716600090815260146020526040902054909150808210156108bc575060009695505050505050565b6108c682826112d3565b979650505050505050565b60405162461bcd60e51b815260206004820152601960248201527f5665737465723a206e6f6e2d7472616e736665727261626c650000000000000060448201526000906064015b60405180910390fd5b60006002600054036109455760405162461bcd60e51b81526004016109189061201f565b6002600055610952611315565b61095c8383611368565b60016000559392505050565b60026000540361098a5760405162461bcd60e51b81526004016109189061201f565b6002600055610997611315565b6109a18282611419565b50506001600055565b6002600054036109cc5760405162461bcd60e51b81526004016109189061201f565b600260005533806109dd8180611368565b506001600160a01b0382166000908152600f6020908152604080832054600d9092528220549091610a0e828461126d565b905060008111610a605760405162461bcd60e51b815260206004820152601d60248201527f5665737465723a2076657374656420616d6f756e74206973207a65726f0000006044820152606401610918565b6007546001600160a01b031615610aad576001600160a01b0385166000908152600e6020526040902054610a9486826115db565b600754610aab906001600160a01b0316868361120a565b505b600654610ac4906001600160a01b0316858461120a565b610ace85836116ad565b6001600160a01b0385166000818152600f602090815260408083208390556010825280832083905560118252808320929092558151928352820185905281018390527ff279e6a1f5e320cca91135676d9cb6e44ca8a08c0b88342bcdb1144f6511b5689060600160405180910390a150506001600055505050565b6001600160a01b038116600090815260106020908152604080832054600f9092528220548291610b7991906112d3565b90506000610b8684611777565b9050610b92828261126d565b949350505050565b600260005403610bbc5760405162461bcd60e51b81526004016109189061201f565b6002600055610bc9611315565b6001600160a01b0390911660009081526015602052604081209190915560019055565b600954604051633792def360e01b81526001600160a01b0383811660048301526000928392911690633792def390602401602060405180830381865afa158015610c3a573d6000803e3d6000fd5b505050506040513d601f19601f82011682018060405250810190610c5e9190612006565b6001600160a01b038416600090815260136020526040812054919250610c84838361126d565b905080600003610c9957506000949350505050565b60095460405163a318021760e01b81526001600160a01b038781166004830152600092169063a318021790602401602060405180830381865afa158015610ce4573d6000803e3d6000fd5b505050506040513d601f19601f82011682018060405250810190610d089190612006565b6001600160a01b0387166000908152601260205260409020549091506108c6610d3b84610d35848861180f565b90611891565b61088585610d35868a61180f565b6000600260005403610d6d5760405162461bcd60e51b81526004016109189061201f565b6002600055610d7c3380611368565b9050600160005590565b610d8e6111b0565b600c805460ff1916911515919091179055565b610da96111b0565b610db360006118d3565b565b6000610dcb6009546001600160a01b0316151590565b610dd757506000610e29565b6000610de284610bec565b905080600003610df6576000915050610e29565b6000610e01856107c3565b905080600003610e1657600092505050610e29565b610e2481610d35868561180f565b925050505b92915050565b6001600160a01b0381166000908152600f6020908152604080832054600d909252822054610e299161126d565b6003805461074290611fcc565b610e716111b0565b6001600160a01b03919091166000908152601660205260409020805460ff1916911515919091179055565b600260005403610ebe5760405162461bcd60e51b81526004016109189061201f565b6002600055610ecd3382611419565b506001600055565b600260005403610ef75760405162461bcd60e51b81526004016109189061201f565b6002600055610f04611315565b6001600160a01b0390911660009081526013602052604081209190915560019055565b6001600160a01b0381166000908152600d6020908152604080832054600f909252822054610b92828261126d565b600260005403610f775760405162461bcd60e51b81526004016109189061201f565b6002600055610f84611315565b6001600160a01b0390911660009081526014602052604081209190915560019055565b600260005403610fc95760405162461bcd60e51b81526004016109189061201f565b6002600055610fd6611315565b6001600160a01b0390911660009081526012602052604081209190915560019055565b6110016111b0565b6001600160a01b0381166110665760405162461bcd60e51b815260206004820152602660248201527f4f776e61626c653a206e6577206f776e657220697320746865207a65726f206160448201526564647265737360d01b6064820152608401610918565b61106f816118d3565b50565b6002600054036110945760405162461bcd60e51b81526004016109189061201f565b60026000556110a1611315565b6110aa82610bec565b6001600160a01b038281166000908152601260209081526040808320949094558583168083528483208390556013909152838220546009549451633792def360e01b815260048101929092529391929190911690633792def390602401602060405180830381865afa158015611124573d6000803e3d6000fd5b505050506040513d601f19601f820116820180604052508101906111489190612006565b9050611154828261126d565b6001600160a01b0393841660008181526013602081815260408084209590955597909616808252601488528382209490945594865281852085905560159095528084208054958552908420949094558252509081905560019055565b6001546001600160a01b03163314610db35760405162461bcd60e51b815260206004820181905260248201527f4f776e61626c653a2063616c6c6572206973206e6f7420746865206f776e65726044820152606401610918565b6040516001600160a01b03831660248201526044810182905261073090849063a9059cbb60e01b906064015b60408051601f198184030181529190526020810180516001600160e01b03166001600160e01b031990931692909217909152611925565b60008061127a838561206c565b9050838110156112cc5760405162461bcd60e51b815260206004820152601b60248201527f536166654d6174683a206164646974696f6e206f766572666c6f7700000000006044820152606401610918565b9392505050565b60006112cc83836040518060400160405280601e81526020017f536166654d6174683a207375627472616374696f6e206f766572666c6f7700008152506119f7565b3360009081526016602052604090205460ff16610db35760405162461bcd60e51b81526020600482015260116024820152702b32b9ba32b91d103337b93134b23232b760791b6044820152606401610918565b600061137383611a31565b600061137e84610b49565b6001600160a01b0385166000908152601060205260409020549091506113a4908261126d565b6001600160a01b038086166000908152601060205260409020919091556008546113d09116848361120a565b604080516001600160a01b0386168152602081018390527f47cee97cb7acd717b3c0aa1435d004cd5b3c8c57d70dbceb4e4458bbd60e39d4910160405180910390a19392505050565b600081116114695760405162461bcd60e51b815260206004820152601760248201527f5665737465723a20696e76616c6964205f616d6f756e740000000000000000006044820152606401610918565b61147282611a31565b60065461148a906001600160a01b0316833084611b0f565b6114948282611b4d565b6007546001600160a01b031615611517576001600160a01b0382166000908152600e6020908152604080832054600d9092528220549091906114d7908590610db5565b9050818111156115145760006114ed82846112d3565b600754909150611508906001600160a01b0316863084611b0f565b6115128582611c27565b505b50505b600c5460ff161561159557600061152d836107c3565b90508061153984610e2f565b11156115935760405162461bcd60e51b8152602060048201526024808201527f5665737465723a206d6178207665737461626c6520616d6f756e7420657863656044820152631959195960e21b6064820152608401610918565b505b604080516001600160a01b0384168152602081018390527fe1fffcc4923d04b559f4d29a8bfc6cda04eb5b0d3c460751c2402c5c5cc9109c910160405180910390a15050565b6001600160a01b0382166116015760405162461bcd60e51b81526004016109189061207f565b61163e81604051806060016040528060238152602001612147602391396001600160a01b0385166000908152600e602052604090205491906119f7565b6001600160a01b0383166000908152600e6020526040902055600b5461166490826112d3565b600b556040518181526000906001600160a01b038416907f659523c479d006050ebc0d0e48fea36d1b2c5d45b2f31402ac6f8671fc84cc04906020015b60405180910390a35050565b6001600160a01b0382166116d35760405162461bcd60e51b81526004016109189061207f565b61171081604051806060016040528060238152602001612147602391396001600160a01b0385166000908152600d602052604090205491906119f7565b6001600160a01b0383166000908152600d6020526040902055600a5461173690826112d3565b600a556040518181526000906001600160a01b038416907fddf252ad1be2c89b69c2b068fc378daa952ba7f163c4a11628f55a4df523b3ef906020016116a1565b6001600160a01b038116600090815260116020526040812054819061179d9042906112d3565b6001600160a01b0384166000908152600d60205260408120549192508190036117ca575060009392505050565b60006117d585610f27565b905060006117f2600554610d35868561180f90919063ffffffff16565b9050828110156118055795945050505050565b5090949350505050565b60008260000361182157506000610e29565b600061182d83856120c1565b90508261183a85836120d8565b146112cc5760405162461bcd60e51b815260206004820152602160248201527f536166654d6174683a206d756c7469706c69636174696f6e206f766572666c6f6044820152607760f81b6064820152608401610918565b60006112cc83836040518060400160405280601a81526020017f536166654d6174683a206469766973696f6e206279207a65726f000000000000815250611d01565b600180546001600160a01b038381166001600160a01b0319831681179093556040519116919082907f8be0079c531659141344cd1fd0a4f28419497f9722a3daafe3b4186f6b6457e090600090a35050565b600061197a826040518060400160405280602081526020017f5361666545524332303a206c6f772d6c6576656c2063616c6c206661696c6564815250856001600160a01b0316611d2f9092919063ffffffff16565b805190915015610730578080602001905181019061199891906120fa565b6107305760405162461bcd60e51b815260206004820152602a60248201527f5361666545524332303a204552433230206f7065726174696f6e20646964206e6044820152691bdd081cdd58d8d9595960b21b6064820152608401610918565b60008184841115611a1b5760405162461bcd60e51b81526004016109189190611ea6565b506000611a288486612117565b95945050505050565b6000611a3c82611777565b6001600160a01b0383166000908152601160205260408120429055909150819003611a65575050565b611a6f82826116ad565b6001600160a01b0382166000908152600f6020526040902054611a92908261126d565b6001600160a01b038381166000908152600f602052604090819020929092556006549151632770a7eb60e21b815230600482015260248101849052911690639dc29fac90604401600060405180830381600087803b158015611af357600080fd5b505af1158015611b07573d6000803e3d6000fd5b505050505050565b6040516001600160a01b0380851660248301528316604482015260648101829052611b479085906323b872dd60e01b90608401611236565b50505050565b6001600160a01b038216611ba35760405162461bcd60e51b815260206004820181905260248201527f5665737465723a206d696e7420746f20746865207a65726f20616464726573736044820152606401610918565b600a54611bb0908261126d565b600a556001600160a01b0382166000908152600d6020526040902054611bd6908261126d565b6001600160a01b0383166000818152600d60205260408082209390935591519091907fddf252ad1be2c89b69c2b068fc378daa952ba7f163c4a11628f55a4df523b3ef906116a19085815260200190565b6001600160a01b038216611c7d5760405162461bcd60e51b815260206004820181905260248201527f5665737465723a206d696e7420746f20746865207a65726f20616464726573736044820152606401610918565b600b54611c8a908261126d565b600b556001600160a01b0382166000908152600e6020526040902054611cb0908261126d565b6001600160a01b0383166000818152600e60205260408082209390935591519091907f659523c479d006050ebc0d0e48fea36d1b2c5d45b2f31402ac6f8671fc84cc04906116a19085815260200190565b60008183611d225760405162461bcd60e51b81526004016109189190611ea6565b506000611a2884866120d8565b6060610b92848460008585843b611d885760405162461bcd60e51b815260206004820152601d60248201527f416464726573733a2063616c6c20746f206e6f6e2d636f6e74726163740000006044820152606401610918565b600080866001600160a01b03168587604051611da4919061212a565b60006040518083038185875af1925050503d8060008114611de1576040519150601f19603f3d011682016040523d82523d6000602084013e611de6565b606091505b50915091506108c682828660608315611e005750816112cc565b825115611e105782518084602001fd5b8160405162461bcd60e51b81526004016109189190611ea6565b80356001600160a01b0381168114611e4157600080fd5b919050565b600080600060608486031215611e5b57600080fd5b611e6484611e2a565b9250611e7260208501611e2a565b9150604084013590509250925092565b60005b83811015611e9d578181015183820152602001611e85565b50506000910152565b6020815260008251806020840152611ec5816040850160208701611e82565b601f01601f19169190910160400192915050565b600060208284031215611eeb57600080fd5b6112cc82611e2a565b60008060408385031215611f0757600080fd5b611f1083611e2a565b946020939093013593505050565b60008060408385031215611f3157600080fd5b611f3a83611e2a565b9150611f4860208401611e2a565b90509250929050565b801515811461106f57600080fd5b600060208284031215611f7157600080fd5b81356112cc81611f51565b60008060408385031215611f8f57600080fd5b611f9883611e2a565b91506020830135611fa881611f51565b809150509250929050565b600060208284031215611fc557600080fd5b5035919050565b600181811c90821680611fe057607f821691505b60208210810361200057634e487b7160e01b600052602260045260246000fd5b50919050565b60006020828403121561201857600080fd5b5051919050565b6020808252601f908201527f5265656e7472616e637947756172643a207265656e7472616e742063616c6c00604082015260600190565b634e487b7160e01b600052601160045260246000fd5b80820180821115610e2957610e29612056565b60208082526022908201527f5665737465723a206275726e2066726f6d20746865207a65726f206164647265604082015261737360f01b606082015260800190565b8082028115828204841417610e2957610e29612056565b6000826120f557634e487b7160e01b600052601260045260246000fd5b500490565b60006020828403121561210c57600080fd5b81516112cc81611f51565b81810381811115610e2957610e29612056565b6000825161213c818460208701611e82565b919091019291505056fe5665737465723a206275726e20616d6f756e7420657863656564732062616c616e6365a2646970667358221220cfbd153fd2c6927325ea17ac683c4baec95a6e457920c8484c6cafda884e300b64736f6c63430008140033","linkReferences":{}},"methodIdentifiers":{"allowance(address,address)":"dd62ed3e","approve(address,uint256)":"095ea7b3","balanceOf(address)":"70a08231","balances(address)":"27e235e3","bonusRewards(address)":"a2545fa5","claim()":"4e71d92d","claimForAccount(address,address)":"13e82e7a","claimable(address)":"402914f5","claimableToken()":"f6d6d5aa","claimedAmounts(address)":"71417b32","cumulativeClaimAmounts(address)":"b5ff136d","cumulativeRewardDeductions(address)":"387a785d","decimals()":"313ce567","deposit(uint256)":"b6b55f25","depositForAccount(address,uint256)":"342fcda9","fidToken()":"28bc83e7","getCombinedAverageStakedAmount(address)":"45f01ee6","getMaxVestableAmount(address)":"08f26c76","getPairAmount(address,uint256)":"7cf8f3b2","getTotalVested(address)":"93035473","getVestedAmount(address)":"d5a73fdd","hasMaxVestableAmount()":"acf077a5","hasPairToken()":"d75abb57","hasRewardTracker()":"f421f62a","isHandler(address)":"46ea87af","lastVestingTimes(address)":"0db9ea4a","name()":"06fdde03","owner()":"8da5cb5b","pairAmounts(address)":"5d50e729","pairSupply()":"15e90a41","pairToken()":"3de35b79","renounceOwnership()":"715018a6","rewardTracker()":"6bcb411a","setBonusRewards(address,uint256)":"41f22724","setCumulativeRewardDeductions(address,uint256)":"d89b7007","setHandler(address,bool)":"9cb7de4b","setHasMaxVestableAmount(bool)":"69de9b93","setTransferredAverageStakedAmounts(address,uint256)":"e3ecc4b2","setTransferredCumulativeRewards(address,uint256)":"d0b038b7","symbol()":"95d89b41","totalSupply()":"18160ddd","transfer(address,uint256)":"a9059cbb","transferFrom(address,address,uint256)":"23b872dd","transferOwnership(address)":"f2fde38b","transferStakeValues(address,address)":"f713c230","transferredAverageStakedAmounts(address)":"7337035c","transferredCumulativeRewards(address)":"b71bce2a","vestingDuration()":"1514617e","withdraw()":"3ccfd60b","withdrawToken(address,address,uint256)":"01e33667"},"id":8}