{"abi":[{"type":"constructor","inputs":[{"name":"_initialOwner","type":"address","internalType":"address"},{"name":"_name","type":"string","internalType":"string"},{"name":"_symbol","type":"string","internalType":"string"},{"name":"_handler","type":"address","internalType":"address"}],"stateMutability":"nonpayable"},{"type":"function","name":"PRECISION","inputs":[],"outputs":[{"name":"","type":"uint256","internalType":"uint256"}],"stateMutability":"view"},{"type":"function","name":"allowance","inputs":[{"name":"_owner","type":"address","internalType":"address"},{"name":"_spender","type":"address","internalType":"address"}],"outputs":[{"name":"","type":"uint256","internalType":"uint256"}],"stateMutability":"view"},{"type":"function","name":"allowances","inputs":[{"name":"","type":"address","internalType":"address"},{"name":"","type":"address","internalType":"address"}],"outputs":[{"name":"","type":"uint256","internalType":"uint256"}],"stateMutability":"view"},{"type":"function","name":"approve","inputs":[{"name":"_spender","type":"address","internalType":"address"},{"name":"_amount","type":"uint256","internalType":"uint256"}],"outputs":[{"name":"","type":"bool","internalType":"bool"}],"stateMutability":"nonpayable"},{"type":"function","name":"balanceOf","inputs":[{"name":"_account","type":"address","internalType":"address"}],"outputs":[{"name":"","type":"uint256","internalType":"uint256"}],"stateMutability":"view"},{"type":"function","name":"balances","inputs":[{"name":"","type":"address","internalType":"address"}],"outputs":[{"name":"","type":"uint256","internalType":"uint256"}],"stateMutability":"view"},{"type":"function","name":"claimForAccount","inputs":[{"name":"_account","type":"address","internalType":"address"},{"name":"_receiver","type":"address","internalType":"address"}],"outputs":[{"name":"","type":"uint256","internalType":"uint256"}],"stateMutability":"nonpayable"},{"type":"function","name":"claimable","inputs":[{"name":"_account","type":"address","internalType":"address"}],"outputs":[{"name":"","type":"uint256","internalType":"uint256"}],"stateMutability":"view"},{"type":"function","name":"claimableReward","inputs":[{"name":"","type":"address","internalType":"address"}],"outputs":[{"name":"","type":"uint256","internalType":"uint256"}],"stateMutability":"view"},{"type":"function","name":"cumulativeRewardPerToken","inputs":[],"outputs":[{"name":"","type":"uint256","internalType":"uint256"}],"stateMutability":"view"},{"type":"function","name":"cumulativeRewards","inputs":[{"name":"","type":"address","internalType":"address"}],"outputs":[{"name":"","type":"uint256","internalType":"uint256"}],"stateMutability":"view"},{"type":"function","name":"depositToken","inputs":[],"outputs":[{"name":"","type":"address","internalType":"address"}],"stateMutability":"view"},{"type":"function","name":"inPrivateStakingMode","inputs":[],"outputs":[{"name":"","type":"bool","internalType":"bool"}],"stateMutability":"view"},{"type":"function","name":"inPrivateTransferMode","inputs":[],"outputs":[{"name":"","type":"bool","internalType":"bool"}],"stateMutability":"view"},{"type":"function","name":"initialize","inputs":[{"name":"_depositToken","type":"address","internalType":"address"},{"name":"_rewardToken","type":"address","internalType":"address"}],"outputs":[],"stateMutability":"nonpayable"},{"type":"function","name":"isHandler","inputs":[{"name":"","type":"address","internalType":"address"}],"outputs":[{"name":"","type":"bool","internalType":"bool"}],"stateMutability":"view"},{"type":"function","name":"isInitialized","inputs":[],"outputs":[{"name":"","type":"bool","internalType":"bool"}],"stateMutability":"view"},{"type":"function","name":"lastDistributionTime","inputs":[],"outputs":[{"name":"","type":"uint256","internalType":"uint256"}],"stateMutability":"view"},{"type":"function","name":"name","inputs":[],"outputs":[{"name":"","type":"string","internalType":"string"}],"stateMutability":"view"},{"type":"function","name":"owner","inputs":[],"outputs":[{"name":"","type":"address","internalType":"address"}],"stateMutability":"view"},{"type":"function","name":"pendingRewards","inputs":[],"outputs":[{"name":"","type":"uint256","internalType":"uint256"}],"stateMutability":"view"},{"type":"function","name":"previousCumulatedRewardPerToken","inputs":[{"name":"","type":"address","internalType":"address"}],"outputs":[{"name":"","type":"uint256","internalType":"uint256"}],"stateMutability":"view"},{"type":"function","name":"renounceOwnership","inputs":[],"outputs":[],"stateMutability":"nonpayable"},{"type":"function","name":"rewardToken","inputs":[],"outputs":[{"name":"","type":"address","internalType":"address"}],"stateMutability":"view"},{"type":"function","name":"setHandler","inputs":[{"name":"_handler","type":"address","internalType":"address"},{"name":"_isActive","type":"bool","internalType":"bool"}],"outputs":[],"stateMutability":"nonpayable"},{"type":"function","name":"setInPrivateModes","inputs":[{"name":"_inPrivateTransferMode","type":"bool","internalType":"bool"}],"outputs":[],"stateMutability":"nonpayable"},{"type":"function","name":"setTokensPerInterval","inputs":[{"name":"_amount","type":"uint256","internalType":"uint256"}],"outputs":[],"stateMutability":"nonpayable"},{"type":"function","name":"stableRewardSystem","inputs":[],"outputs":[{"name":"","type":"bool","internalType":"bool"}],"stateMutability":"view"},{"type":"function","name":"stakeForAccount","inputs":[{"name":"_fundingAccount","type":"address","internalType":"address"},{"name":"_account","type":"address","internalType":"address"},{"name":"_depositToken","type":"address","internalType":"address"},{"name":"_amount","type":"uint256","internalType":"uint256"}],"outputs":[],"stateMutability":"nonpayable"},{"type":"function","name":"stakeWithPermit","inputs":[{"name":"_depositToken","type":"address","internalType":"address"},{"name":"_permitAmount","type":"uint256","internalType":"uint256"},{"name":"_amount","type":"uint256","internalType":"uint256"},{"name":"deadline","type":"uint256","internalType":"uint256"},{"name":"v","type":"uint8","internalType":"uint8"},{"name":"r","type":"bytes32","internalType":"bytes32"},{"name":"s","type":"bytes32","internalType":"bytes32"}],"outputs":[],"stateMutability":"nonpayable"},{"type":"function","name":"stakedAmounts","inputs":[{"name":"","type":"address","internalType":"address"}],"outputs":[{"name":"","type":"uint256","internalType":"uint256"}],"stateMutability":"view"},{"type":"function","name":"symbol","inputs":[],"outputs":[{"name":"","type":"string","internalType":"string"}],"stateMutability":"view"},{"type":"function","name":"tokensPerInterval","inputs":[],"outputs":[{"name":"","type":"uint256","internalType":"uint256"}],"stateMutability":"view"},{"type":"function","name":"totalDepositSupply","inputs":[{"name":"","type":"address","internalType":"address"}],"outputs":[{"name":"","type":"uint256","internalType":"uint256"}],"stateMutability":"view"},{"type":"function","name":"totalSupply","inputs":[],"outputs":[{"name":"","type":"uint256","internalType":"uint256"}],"stateMutability":"view"},{"type":"function","name":"transfer","inputs":[{"name":"_recipient","type":"address","internalType":"address"},{"name":"_amount","type":"uint256","internalType":"uint256"}],"outputs":[{"name":"","type":"bool","internalType":"bool"}],"stateMutability":"nonpayable"},{"type":"function","name":"transferFrom","inputs":[{"name":"_sender","type":"address","internalType":"address"},{"name":"_recipient","type":"address","internalType":"address"},{"name":"_amount","type":"uint256","internalType":"uint256"}],"outputs":[{"name":"","type":"bool","internalType":"bool"}],"stateMutability":"nonpayable"},{"type":"function","name":"transferOwnership","inputs":[{"name":"newOwner","type":"address","internalType":"address"}],"outputs":[],"stateMutability":"nonpayable"},{"type":"function","name":"unstakeForAccount","inputs":[{"name":"_account","type":"address","internalType":"address"},{"name":"_depositToken","type":"address","internalType":"address"},{"name":"_amount","type":"uint256","internalType":"uint256"},{"name":"_receiver","type":"address","internalType":"address"}],"outputs":[],"stateMutability":"nonpayable"},{"type":"function","name":"updateLastDistributionTime","inputs":[],"outputs":[],"stateMutability":"nonpayable"},{"type":"function","name":"updateRewards","inputs":[],"outputs":[],"stateMutability":"nonpayable"},{"type":"event","name":"Approval","inputs":[{"name":"owner","type":"address","indexed":true,"internalType":"address"},{"name":"spender","type":"address","indexed":true,"internalType":"address"},{"name":"value","type":"uint256","indexed":false,"internalType":"uint256"}],"anonymous":false},{"type":"event","name":"Claim","inputs":[{"name":"receiver","type":"address","indexed":false,"internalType":"address"},{"name":"amount","type":"uint256","indexed":false,"internalType":"uint256"}],"anonymous":false},{"type":"event","name":"OwnershipTransferred","inputs":[{"name":"previousOwner","type":"address","indexed":true,"internalType":"address"},{"name":"newOwner","type":"address","indexed":true,"internalType":"address"}],"anonymous":false},{"type":"event","name":"TokensPerIntervalChange","inputs":[{"name":"amount","type":"uint256","indexed":false,"internalType":"uint256"}],"anonymous":false},{"type":"event","name":"Transfer","inputs":[{"name":"from","type":"address","indexed":true,"internalType":"address"},{"name":"to","type":"address","indexed":true,"internalType":"address"},{"name":"value","type":"uint256","indexed":false,"internalType":"uint256"}],"anonymous":false},{"type":"error","name":"OwnableInvalidOwner","inputs":[{"name":"owner","type":"address","internalType":"address"}]},{"type":"error","name":"OwnableUnauthorizedAccount","inputs":[{"name":"account","type":"address","internalType":"address"}]},{"type":"error","name":"ReentrancyGuardReentrantCall","inputs":[]}],"bytecode":{"object":"0x60806040523480156200001157600080fd5b5060405162002167380380620021678339810160408190526200003491620001f3565b6001600055836001600160a01b0381166200006957604051631e4fbdf760e01b81526000600482015260240160405180910390fd5b6200007481620000bf565b50600c62000083848262000312565b50600d62000092838262000312565b506001600160a01b03166000908152600b60205260409020805460ff1916600117905550620003de915050565b600180546001600160a01b038381166001600160a01b0319831681179093556040519116919082907f8be0079c531659141344cd1fd0a4f28419497f9722a3daafe3b4186f6b6457e090600090a35050565b80516001600160a01b03811681146200012957600080fd5b919050565b634e487b7160e01b600052604160045260246000fd5b600082601f8301126200015657600080fd5b81516001600160401b03808211156200017357620001736200012e565b604051601f8301601f19908116603f011681019082821181831017156200019e576200019e6200012e565b81604052838152602092508683858801011115620001bb57600080fd5b600091505b83821015620001df5785820183015181830184015290820190620001c0565b600093810190920192909252949350505050565b600080600080608085870312156200020a57600080fd5b620002158562000111565b60208601519094506001600160401b03808211156200023357600080fd5b620002418883890162000144565b945060408701519150808211156200025857600080fd5b50620002678782880162000144565b925050620002786060860162000111565b905092959194509250565b600181811c908216806200029857607f821691505b602082108103620002b957634e487b7160e01b600052602260045260246000fd5b50919050565b601f8211156200030d57600081815260208120601f850160051c81016020861015620002e85750805b601f850160051c820191505b818110156200030957828155600101620002f4565b5050505b505050565b81516001600160401b038111156200032e576200032e6200012e565b62000346816200033f845462000283565b84620002bf565b602080601f8311600181146200037e5760008415620003655750858301515b600019600386901b1c1916600185901b17855562000309565b600085815260208120601f198616915b82811015620003af578886015182559484019460019091019084016200038e565b5085821015620003ce5787850151600019600388901b60f8161c191681555b5050505050600190811b01905550565b611d7980620003ee6000396000f3fe608060405234801561001057600080fd5b50600436106102535760003560e01c806370a0823111610146578063c5fa2730116100c3578063eded3fda11610087578063eded3fda1461059a578063ef953750146105a2578063f2fde38b146105b6578063f5fc5076146105c9578063f7c618c1146105d2578063f831e49e146105e557600080fd5b8063c5fa273014610506578063c89039c51461051a578063dd62ed3e1461052d578063dfbaefb114610566578063e95034251461057a57600080fd5b806395d89b411161010a57806395d89b41146104bb5780639cb7de4b146104c3578063a8d93627146104d6578063a9059cbb146104df578063aaf5eb68146104f257600080fd5b806370a0823114610449578063715018a61461047257806375b173501461047a578063790b5a6c146104835780638da5cb5b1461049657600080fd5b80633792def3116101d457806344a084111161019857806344a08411146103a857806346ea87af146103c8578063485cc955146103eb578063552ce1dc146103fe57806355b6ed5c1461041e57600080fd5b80633792def314610351578063392e53cd146103715780633ae6d6eb146103855780633e158b0c1461038d578063402914f51461039557600080fd5b806313e82e7a1161021b57806313e82e7a146102ef57806318160ddd1461030257806318e20a031461030b57806323b872dd1461031e57806327e235e31461033157600080fd5b806306fdde0314610258578063095ea7b314610276578063098bf59d1461029957806310c1c103146102ae57806311cfd210146102dc575b600080fd5b6102606105f8565b60405161026d9190611952565b60405180910390f35b6102896102843660046119bc565b610686565b604051901515815260200161026d565b6102ac6102a73660046119e6565b61069d565b005b6102ce6102bc366004611a33565b60076020526000908152604090205481565b60405190815260200161026d565b6102ac6102ea366004611a4e565b6106c9565b6102ce6102fd366004611aba565b610778565b6102ce60105481565b6102ac610319366004611aed565b6107a0565b61028961032c366004611b06565b610858565b6102ce61033f366004611a33565b60056020526000908152604090205481565b6102ce61035f366004611a33565b600a6020526000908152604090205481565b60035461028990600160a01b900460ff1681565b6102ac6108f2565b6102ac610900565b6102ce6103a3366004611a33565b61091e565b6102ce6103b6366004611a33565b60096020526000908152604090205481565b6102896103d6366004611a33565b600b6020526000908152604090205460ff1681565b6102ac6103f9366004611aba565b610a11565b6102ce61040c366004611a33565b60046020526000908152604090205481565b6102ce61042c366004611aba565b600660209081526000928352604080842090915290825290205481565b6102ce610457366004611a33565b6001600160a01b031660009081526005602052604090205490565b6102ac610acb565b6102ce600f5481565b6102ac610491366004611b42565b610add565b6001546001600160a01b03165b6040516001600160a01b03909116815260200161026d565b610260610af9565b6102ac6104d1366004611b9b565b610b06565b6102ce600e5481565b6102896104ed3660046119bc565b610b39565b6102ce6c0c9f2c9cd04674edea4000000081565b60035461028990600160b01b900460ff1681565b6002546104a3906001600160a01b031681565b6102ce61053b366004611aba565b6001600160a01b03918216600090815260066020908152604080832093909416825291909152205490565b60035461028990600160a81b900460ff1681565b6102ce610588366004611a33565b60086020526000908152604090205481565b6102ce610b46565b60035461028990600160b81b900460ff1681565b6102ac6105c4366004611a33565b610b84565b6102ce60115481565b6003546104a3906001600160a01b031681565b6102ac6105f3366004611bd2565b610bc2565b600c805461060590611bef565b80601f016020809104026020016040519081016040528092919081815260200182805461063190611bef565b801561067e5780601f106106535761010080835404028352916020019161067e565b820191906000526020600020905b81548152906001019060200180831161066157829003601f168201915b505050505081565b6000610693338484610be8565b5060015b92915050565b6106a5610d1e565b6106ad610d48565b6106b984848484610da7565b6106c36001600055565b50505050565b6106d1610d1e565b60025460405163d505accf60e01b8152336004820152306024820152604481018890526064810186905260ff8516608482015260a4810184905260c481018390526001600160a01b039091169063d505accf9060e401600060405180830381600087803b15801561074157600080fd5b505af1158015610755573d6000803e3d6000fd5b5050505061076533338988610f6d565b61076f6001600055565b50505050505050565b6000610782610d1e565b61078a610d48565b61079483836110ce565b90506106976001600055565b6107a86111d0565b600f546000036108135760405162461bcd60e51b815260206004820152602b60248201527f526577617264547261636b65723a20696e76616c6964206c617374446973747260448201526a69627574696f6e54696d6560a81b60648201526084015b60405180910390fd5b61081d60006111fd565b600e8190556040518181527f98dc76c39aa5a5dcb749f8750a65db3dfa1e14bcc1591a9c16a7420e5da748f89060200160405180910390a150565b336000908152600b602052604081205460ff16156108835761087b848484611385565b5060016108eb565b60006108cd83604051806060016040528060308152602001611ce6603091396001600160a01b03881660009081526006602090815260408083203384529091529020549190611535565b90506108da853383610be8565b6108e5858585611385565b60019150505b9392505050565b6108fa6111d0565b42600f55565b610908610d1e565b61091260006111fd565b61091c6001600055565b565b6001600160a01b03811660009081526007602052604081205480820361095b5750506001600160a01b031660009081526008602052604090205490565b601054600061097f6c0c9f2c9cd04674edea40000000610979610b46565b9061156f565b9050600061099961099083856115f1565b60115490611633565b6001600160a01b038716600090815260096020526040902054909150610a07906109e8906c0c9f2c9cd04674edea40000000906109e2906109db908690611692565b889061156f565b906115f1565b6001600160a01b03881660009081526008602052604090205490611633565b9695505050505050565b610a196111d0565b600354600160a01b900460ff1615610a7e5760405162461bcd60e51b815260206004820152602260248201527f526577617264547261636b65723a20616c726561647920696e697469616c697a604482015261195960f21b606482015260840161080a565b60038054600280546001600160a01b039586166001600160a01b031990911617905560ff60a81b19929093166001600160a81b031990931692909217600160a01b1716600160a81b179055565b610ad36111d0565b61091c60006116d4565b610ae5610d1e565b610aed610d48565b6106b984848484610f6d565b600d805461060590611bef565b610b0e6111d0565b6001600160a01b03919091166000908152600b60205260409020805460ff1916911515919091179055565b6000610693338484611385565b6000600f544203610b575750600090565b6000610b6e600f544261169290919063ffffffff16565b600e54909150610b7e908261156f565b91505090565b610b8c6111d0565b6001600160a01b038116610bb657604051631e4fbdf760e01b81526000600482015260240161080a565b610bbf816116d4565b50565b610bca6111d0565b60038054911515600160a81b0260ff60a81b19909216919091179055565b6001600160a01b038316610c535760405162461bcd60e51b815260206004820152602c60248201527f526577617264547261636b65723a20617070726f76652066726f6d207468652060448201526b7a65726f206164647265737360a01b606482015260840161080a565b6001600160a01b038216610cbc5760405162461bcd60e51b815260206004820152602a60248201527f526577617264547261636b65723a20617070726f766520746f20746865207a65604482015269726f206164647265737360b01b606482015260840161080a565b6001600160a01b0383811660008181526006602090815260408083209487168084529482529182902085905590518481527f8c5be1e5ebec7d5bd14f71427d1e84f3dd0314c0f7b2291e5b200ac8c7c3b92591015b60405180910390a3505050565b600260005403610d4157604051633ee5aeb560e01b815260040160405180910390fd5b6002600055565b336000908152600b602052604090205460ff1661091c5760405162461bcd60e51b815260206004820152601860248201527f526577617264547261636b65723a20666f7262696464656e0000000000000000604482015260640161080a565b60008211610df75760405162461bcd60e51b815260206004820152601e60248201527f526577617264547261636b65723a20696e76616c6964205f616d6f756e740000604482015260640161080a565b600354600160b81b900460ff1615610e1257610e12846111fd565b6001600160a01b03841660009081526007602052604090205482811015610e8f5760405162461bcd60e51b815260206004820152602b60248201527f526577617264547261636b65723a205f616d6f756e742065786365656473207360448201526a1d185ad959105b5bdd5b9d60aa1b606482015260840161080a565b610e998184611692565b6001600160a01b03808716600090815260076020908152604080832094909455918716815260049091522054610ecf9084611692565b6001600160a01b038516600090815260046020526040902055610ef28584611726565b60405163a9059cbb60e01b81526001600160a01b0383811660048301526024820185905285169063a9059cbb906044016020604051808303816000875af1158015610f41573d6000803e3d6000fd5b505050506040513d601f19601f82011682018060405250810190610f659190611c29565b505050505050565b60008111610fbd5760405162461bcd60e51b815260206004820152601e60248201527f526577617264547261636b65723a20696e76616c6964205f616d6f756e740000604482015260640161080a565b6040516323b872dd60e01b81526001600160a01b038581166004830152306024830152604482018390528316906323b872dd906064016020604051808303816000875af1158015611012573d6000803e3d6000fd5b505050506040513d601f19601f820116820180604052508101906110369190611c29565b50600354600160b81b900460ff161561105257611052836111fd565b6001600160a01b0383166000908152600760205260409020546110759082611633565b6001600160a01b038085166000908152600760209081526040808320949094559185168152600490915220546110ab9082611633565b6001600160a01b0383166000908152600460205260409020556106c3838261183a565b600354600090600160b81b900460ff16156110ec576110ec836111fd565b6001600160a01b0383166000908152600860205260408120805491905580156108eb5760035460405163a9059cbb60e01b81526001600160a01b038581166004830152602482018490529091169063a9059cbb906044016020604051808303816000875af1158015611162573d6000803e3d6000fd5b505050506040513d601f19601f820116820180604052508101906111869190611c29565b50604080516001600160a01b0386168152602081018390527f47cee97cb7acd717b3c0aa1435d004cd5b3c8c57d70dbceb4e4458bbd60e39d4910160405180910390a19392505050565b6001546001600160a01b0316331461091c5760405163118cdaa760e01b815233600482015260240161080a565b6000611207610b46565b42600f556010546011549192509081158015906112245750600083115b156112565761124e611247836109e2866c0c9f2c9cd04674edea4000000061156f565b8290611633565b601181905590505b806000036112645750505050565b6001600160a01b038416156106c3576001600160a01b03841660009081526007602090815260408083205460099092528220549091906112c3906c0c9f2c9cd04674edea40000000906109e2906112bc908790611692565b859061156f565b6001600160a01b038716600090815260086020526040812054919250906112ea9083611633565b6001600160a01b0388166000908152600860209081526040808320849055600990915290208590559050801580159061133a57506001600160a01b03871660009081526007602052604090205415155b1561076f576001600160a01b0387166000908152600a60205260408120546113629084611633565b6001600160a01b0389166000908152600a60205260409020555050505050505050565b6001600160a01b0383166113f15760405162461bcd60e51b815260206004820152602d60248201527f526577617264547261636b65723a207472616e736665722066726f6d2074686560448201526c207a65726f206164647265737360981b606482015260840161080a565b6001600160a01b03821661145b5760405162461bcd60e51b815260206004820152602b60248201527f526577617264547261636b65723a207472616e7366657220746f20746865207a60448201526a65726f206164647265737360a81b606482015260840161080a565b600354600160a81b900460ff161561147557611475610d48565b6114b2816040518060600160405280602e8152602001611d16602e91396001600160a01b0386166000908152600560205260409020549190611535565b6001600160a01b0380851660009081526005602052604080822093909355908416815220546114e19082611633565b6001600160a01b0380841660008181526005602052604090819020939093559151908516907fddf252ad1be2c89b69c2b068fc378daa952ba7f163c4a11628f55a4df523b3ef90610d119085815260200190565b600081848411156115595760405162461bcd60e51b815260040161080a9190611952565b5060006115668486611c5c565b95945050505050565b60008260000361158157506000610697565b600061158d8385611c6f565b90508261159a8583611c86565b146108eb5760405162461bcd60e51b815260206004820152602160248201527f536166654d6174683a206d756c7469706c69636174696f6e206f766572666c6f6044820152607760f81b606482015260840161080a565b60006108eb83836040518060400160405280601a81526020017f536166654d6174683a206469766973696f6e206279207a65726f000000000000815250611924565b6000806116408385611ca8565b9050838110156108eb5760405162461bcd60e51b815260206004820152601b60248201527f536166654d6174683a206164646974696f6e206f766572666c6f770000000000604482015260640161080a565b60006108eb83836040518060400160405280601e81526020017f536166654d6174683a207375627472616374696f6e206f766572666c6f770000815250611535565b600180546001600160a01b038381166001600160a01b0319831681179093556040519116919082907f8be0079c531659141344cd1fd0a4f28419497f9722a3daafe3b4186f6b6457e090600090a35050565b6001600160a01b03821661178e5760405162461bcd60e51b815260206004820152602960248201527f526577617264547261636b65723a206275726e2066726f6d20746865207a65726044820152686f206164647265737360b81b606482015260840161080a565b6117cb816040518060600160405280602a8152602001611cbc602a91396001600160a01b0385166000908152600560205260409020549190611535565b6001600160a01b0383166000908152600560205260409020556010546117f19082611692565b6010556040518181526000906001600160a01b038416907fddf252ad1be2c89b69c2b068fc378daa952ba7f163c4a11628f55a4df523b3ef906020015b60405180910390a35050565b6001600160a01b0382166118a05760405162461bcd60e51b815260206004820152602760248201527f526577617264547261636b65723a206d696e7420746f20746865207a65726f206044820152666164647265737360c81b606482015260840161080a565b6010546118ad9082611633565b6010556001600160a01b0382166000908152600560205260409020546118d39082611633565b6001600160a01b0383166000818152600560205260408082209390935591519091907fddf252ad1be2c89b69c2b068fc378daa952ba7f163c4a11628f55a4df523b3ef9061182e9085815260200190565b600081836119455760405162461bcd60e51b815260040161080a9190611952565b5060006115668486611c86565b600060208083528351808285015260005b8181101561197f57858101830151858201604001528201611963565b506000604082860101526040601f19601f8301168501019250505092915050565b80356001600160a01b03811681146119b757600080fd5b919050565b600080604083850312156119cf57600080fd5b6119d8836119a0565b946020939093013593505050565b600080600080608085870312156119fc57600080fd5b611a05856119a0565b9350611a13602086016119a0565b925060408501359150611a28606086016119a0565b905092959194509250565b600060208284031215611a4557600080fd5b6108eb826119a0565b600080600080600080600060e0888a031215611a6957600080fd5b611a72886119a0565b9650602088013595506040880135945060608801359350608088013560ff81168114611a9d57600080fd5b9699959850939692959460a0840135945060c09093013592915050565b60008060408385031215611acd57600080fd5b611ad6836119a0565b9150611ae4602084016119a0565b90509250929050565b600060208284031215611aff57600080fd5b5035919050565b600080600060608486031215611b1b57600080fd5b611b24846119a0565b9250611b32602085016119a0565b9150604084013590509250925092565b60008060008060808587031215611b5857600080fd5b611b61856119a0565b9350611b6f602086016119a0565b9250611b7d604086016119a0565b9396929550929360600135925050565b8015158114610bbf57600080fd5b60008060408385031215611bae57600080fd5b611bb7836119a0565b91506020830135611bc781611b8d565b809150509250929050565b600060208284031215611be457600080fd5b81356108eb81611b8d565b600181811c90821680611c0357607f821691505b602082108103611c2357634e487b7160e01b600052602260045260246000fd5b50919050565b600060208284031215611c3b57600080fd5b81516108eb81611b8d565b634e487b7160e01b600052601160045260246000fd5b8181038181111561069757610697611c46565b808202811582820484141761069757610697611c46565b600082611ca357634e487b7160e01b600052601260045260246000fd5b500490565b8082018082111561069757610697611c4656fe526577617264547261636b65723a206275726e20616d6f756e7420657863656564732062616c616e6365526577617264547261636b65723a207472616e7366657220616d6f756e74206578636565647320616c6c6f77616e6365526577617264547261636b65723a207472616e7366657220616d6f756e7420657863656564732062616c616e6365a2646970667358221220e9448659e973fafd77a5054c3765c1e768ba4dcc0f7207a33119e218c6748d0c64736f6c63430008140033","linkReferences":{}},"methodIdentifiers":{"PRECISION()":"aaf5eb68","allowance(address,address)":"dd62ed3e","allowances(address,address)":"55b6ed5c","approve(address,uint256)":"095ea7b3","balanceOf(address)":"70a08231","balances(address)":"27e235e3","claimForAccount(address,address)":"13e82e7a","claimable(address)":"402914f5","claimableReward(address)":"e9503425","cumulativeRewardPerToken()":"f5fc5076","cumulativeRewards(address)":"3792def3","depositToken()":"c89039c5","inPrivateStakingMode()":"c5fa2730","inPrivateTransferMode()":"dfbaefb1","initialize(address,address)":"485cc955","isHandler(address)":"46ea87af","isInitialized()":"392e53cd","lastDistributionTime()":"75b17350","name()":"06fdde03","owner()":"8da5cb5b","pendingRewards()":"eded3fda","previousCumulatedRewardPerToken(address)":"44a08411","renounceOwnership()":"715018a6","rewardToken()":"f7c618c1","setHandler(address,bool)":"9cb7de4b","setInPrivateModes(bool)":"f831e49e","setTokensPerInterval(uint256)":"18e20a03","stableRewardSystem()":"ef953750","stakeForAccount(address,address,address,uint256)":"790b5a6c","stakeWithPermit(address,uint256,uint256,uint256,uint8,bytes32,bytes32)":"11cfd210","stakedAmounts(address)":"10c1c103","symbol()":"95d89b41","tokensPerInterval()":"a8d93627","totalDepositSupply(address)":"552ce1dc","totalSupply()":"18160ddd","transfer(address,uint256)":"a9059cbb","transferFrom(address,address,uint256)":"23b872dd","transferOwnership(address)":"f2fde38b","unstakeForAccount(address,address,uint256,address)":"098bf59d","updateLastDistributionTime()":"3ae6d6eb","updateRewards()":"3e158b0c"},"id":15}