{"abi":[{"type":"constructor","inputs":[{"name":"_name","type":"string","internalType":"string"},{"name":"_symbol","type":"string","internalType":"string"},{"name":"_vestingDuration","type":"uint256","internalType":"uint256"},{"name":"_fidToken","type":"address","internalType":"address"},{"name":"_pairToken","type":"address","internalType":"address"},{"name":"_claimableToken","type":"address","internalType":"address"},{"name":"_rewardTracker","type":"address","internalType":"address"}],"stateMutability":"nonpayable"},{"type":"function","name":"allowance","inputs":[{"name":"","type":"address","internalType":"address"},{"name":"","type":"address","internalType":"address"}],"outputs":[{"name":"","type":"uint256","internalType":"uint256"}],"stateMutability":"view"},{"type":"function","name":"approve","inputs":[{"name":"","type":"address","internalType":"address"},{"name":"","type":"uint256","internalType":"uint256"}],"outputs":[{"name":"","type":"bool","internalType":"bool"}],"stateMutability":"nonpayable"},{"type":"function","name":"balanceOf","inputs":[{"name":"_account","type":"address","internalType":"address"}],"outputs":[{"name":"","type":"uint256","internalType":"uint256"}],"stateMutability":"view"},{"type":"function","name":"balances","inputs":[{"name":"","type":"address","internalType":"address"}],"outputs":[{"name":"","type":"uint256","internalType":"uint256"}],"stateMutability":"view"},{"type":"function","name":"bonusRewards","inputs":[{"name":"","type":"address","internalType":"address"}],"outputs":[{"name":"","type":"uint256","internalType":"uint256"}],"stateMutability":"view"},{"type":"function","name":"claim","inputs":[],"outputs":[{"name":"","type":"uint256","internalType":"uint256"}],"stateMutability":"nonpayable"},{"type":"function","name":"claimForAccount","inputs":[{"name":"_account","type":"address","internalType":"address"},{"name":"_receiver","type":"address","internalType":"address"}],"outputs":[{"name":"","type":"uint256","internalType":"uint256"}],"stateMutability":"nonpayable"},{"type":"function","name":"claimable","inputs":[{"name":"_account","type":"address","internalType":"address"}],"outputs":[{"name":"","type":"uint256","internalType":"uint256"}],"stateMutability":"view"},{"type":"function","name":"claimableToken","inputs":[],"outputs":[{"name":"","type":"address","internalType":"address"}],"stateMutability":"view"},{"type":"function","name":"claimedAmounts","inputs":[{"name":"","type":"address","internalType":"address"}],"outputs":[{"name":"","type":"uint256","internalType":"uint256"}],"stateMutability":"view"},{"type":"function","name":"cumulativeClaimAmounts","inputs":[{"name":"","type":"address","internalType":"address"}],"outputs":[{"name":"","type":"uint256","internalType":"uint256"}],"stateMutability":"view"},{"type":"function","name":"cumulativeRewardDeductions","inputs":[{"name":"","type":"address","internalType":"address"}],"outputs":[{"name":"","type":"uint256","internalType":"uint256"}],"stateMutability":"view"},{"type":"function","name":"decimals","inputs":[],"outputs":[{"name":"","type":"uint8","internalType":"uint8"}],"stateMutability":"view"},{"type":"function","name":"deposit","inputs":[{"name":"_amount","type":"uint256","internalType":"uint256"}],"outputs":[],"stateMutability":"nonpayable"},{"type":"function","name":"depositForAccount","inputs":[{"name":"_account","type":"address","internalType":"address"},{"name":"_amount","type":"uint256","internalType":"uint256"}],"outputs":[],"stateMutability":"nonpayable"},{"type":"function","name":"fidToken","inputs":[],"outputs":[{"name":"","type":"address","internalType":"address"}],"stateMutability":"view"},{"type":"function","name":"getCombinedAverageStakedAmount","inputs":[{"name":"_account","type":"address","internalType":"address"}],"outputs":[{"name":"","type":"uint256","internalType":"uint256"}],"stateMutability":"view"},{"type":"function","name":"getMaxVestableAmount","inputs":[{"name":"_account","type":"address","internalType":"address"}],"outputs":[{"name":"","type":"uint256","internalType":"uint256"}],"stateMutability":"view"},{"type":"function","name":"getPairAmount","inputs":[{"name":"_account","type":"address","internalType":"address"},{"name":"_esAmount","type":"uint256","internalType":"uint256"}],"outputs":[{"name":"","type":"uint256","internalType":"uint256"}],"stateMutability":"view"},{"type":"function","name":"getTotalVested","inputs":[{"name":"_account","type":"address","internalType":"address"}],"outputs":[{"name":"","type":"uint256","internalType":"uint256"}],"stateMutability":"view"},{"type":"function","name":"getVestedAmount","inputs":[{"name":"_account","type":"address","internalType":"address"}],"outputs":[{"name":"","type":"uint256","internalType":"uint256"}],"stateMutability":"view"},{"type":"function","name":"hasMaxVestableAmount","inputs":[],"outputs":[{"name":"","type":"bool","internalType":"bool"}],"stateMutability":"view"},{"type":"function","name":"hasPairToken","inputs":[],"outputs":[{"name":"","type":"bool","internalType":"bool"}],"stateMutability":"view"},{"type":"function","name":"hasRewardTracker","inputs":[],"outputs":[{"name":"","type":"bool","internalType":"bool"}],"stateMutability":"view"},{"type":"function","name":"isHandler","inputs":[{"name":"","type":"address","internalType":"address"}],"outputs":[{"name":"","type":"bool","internalType":"bool"}],"stateMutability":"view"},{"type":"function","name":"lastVestingTimes","inputs":[{"name":"","type":"address","internalType":"address"}],"outputs":[{"name":"","type":"uint256","internalType":"uint256"}],"stateMutability":"view"},{"type":"function","name":"name","inputs":[],"outputs":[{"name":"","type":"string","internalType":"string"}],"stateMutability":"view"},{"type":"function","name":"owner","inputs":[],"outputs":[{"name":"","type":"address","internalType":"address"}],"stateMutability":"view"},{"type":"function","name":"pairAmounts","inputs":[{"name":"","type":"address","internalType":"address"}],"outputs":[{"name":"","type":"uint256","internalType":"uint256"}],"stateMutability":"view"},{"type":"function","name":"pairSupply","inputs":[],"outputs":[{"name":"","type":"uint256","internalType":"uint256"}],"stateMutability":"view"},{"type":"function","name":"pairToken","inputs":[],"outputs":[{"name":"","type":"address","internalType":"address"}],"stateMutability":"view"},{"type":"function","name":"renounceOwnership","inputs":[],"outputs":[],"stateMutability":"nonpayable"},{"type":"function","name":"rewardTracker","inputs":[],"outputs":[{"name":"","type":"address","internalType":"address"}],"stateMutability":"view"},{"type":"function","name":"setBonusRewards","inputs":[{"name":"_account","type":"address","internalType":"address"},{"name":"_amount","type":"uint256","internalType":"uint256"}],"outputs":[],"stateMutability":"nonpayable"},{"type":"function","name":"setCumulativeRewardDeductions","inputs":[{"name":"_account","type":"address","internalType":"address"},{"name":"_amount","type":"uint256","internalType":"uint256"}],"outputs":[],"stateMutability":"nonpayable"},{"type":"function","name":"setHandler","inputs":[{"name":"_handler","type":"address","internalType":"address"},{"name":"_isActive","type":"bool","internalType":"bool"}],"outputs":[],"stateMutability":"nonpayable"},{"type":"function","name":"setHasMaxVestableAmount","inputs":[{"name":"_hasMaxVestableAmount","type":"bool","internalType":"bool"}],"outputs":[],"stateMutability":"nonpayable"},{"type":"function","name":"setTransferredAverageStakedAmounts","inputs":[{"name":"_account","type":"address","internalType":"address"},{"name":"_amount","type":"uint256","internalType":"uint256"}],"outputs":[],"stateMutability":"nonpayable"},{"type":"function","name":"setTransferredCumulativeRewards","inputs":[{"name":"_account","type":"address","internalType":"address"},{"name":"_amount","type":"uint256","internalType":"uint256"}],"outputs":[],"stateMutability":"nonpayable"},{"type":"function","name":"symbol","inputs":[],"outputs":[{"name":"","type":"string","internalType":"string"}],"stateMutability":"view"},{"type":"function","name":"totalSupply","inputs":[],"outputs":[{"name":"","type":"uint256","internalType":"uint256"}],"stateMutability":"view"},{"type":"function","name":"transfer","inputs":[{"name":"","type":"address","internalType":"address"},{"name":"","type":"uint256","internalType":"uint256"}],"outputs":[{"name":"","type":"bool","internalType":"bool"}],"stateMutability":"pure"},{"type":"function","name":"transferFrom","inputs":[{"name":"","type":"address","internalType":"address"},{"name":"","type":"address","internalType":"address"},{"name":"","type":"uint256","internalType":"uint256"}],"outputs":[{"name":"","type":"bool","internalType":"bool"}],"stateMutability":"nonpayable"},{"type":"function","name":"transferOwnership","inputs":[{"name":"newOwner","type":"address","internalType":"address"}],"outputs":[],"stateMutability":"nonpayable"},{"type":"function","name":"transferStakeValues","inputs":[{"name":"_sender","type":"address","internalType":"address"},{"name":"_receiver","type":"address","internalType":"address"}],"outputs":[],"stateMutability":"nonpayable"},{"type":"function","name":"transferredAverageStakedAmounts","inputs":[{"name":"","type":"address","internalType":"address"}],"outputs":[{"name":"","type":"uint256","internalType":"uint256"}],"stateMutability":"view"},{"type":"function","name":"transferredCumulativeRewards","inputs":[{"name":"","type":"address","internalType":"address"}],"outputs":[{"name":"","type":"uint256","internalType":"uint256"}],"stateMutability":"view"},{"type":"function","name":"usdcDecimals","inputs":[],"outputs":[{"name":"","type":"uint8","internalType":"uint8"}],"stateMutability":"view"},{"type":"function","name":"vestingDuration","inputs":[],"outputs":[{"name":"","type":"uint256","internalType":"uint256"}],"stateMutability":"view"},{"type":"function","name":"withdraw","inputs":[],"outputs":[],"stateMutability":"nonpayable"},{"type":"function","name":"withdrawForAccounts","inputs":[{"name":"_accounts","type":"address[]","internalType":"address[]"}],"outputs":[],"stateMutability":"nonpayable"},{"type":"function","name":"withdrawToken","inputs":[{"name":"_token","type":"address","internalType":"address"},{"name":"_account","type":"address","internalType":"address"},{"name":"_amount","type":"uint256","internalType":"uint256"}],"outputs":[],"stateMutability":"nonpayable"},{"type":"event","name":"Approval","inputs":[{"name":"owner","type":"address","indexed":true,"internalType":"address"},{"name":"spender","type":"address","indexed":true,"internalType":"address"},{"name":"value","type":"uint256","indexed":false,"internalType":"uint256"}],"anonymous":false},{"type":"event","name":"Claim","inputs":[{"name":"receiver","type":"address","indexed":false,"internalType":"address"},{"name":"amount","type":"uint256","indexed":false,"internalType":"uint256"}],"anonymous":false},{"type":"event","name":"Deposit","inputs":[{"name":"account","type":"address","indexed":false,"internalType":"address"},{"name":"amount","type":"uint256","indexed":false,"internalType":"uint256"}],"anonymous":false},{"type":"event","name":"OwnershipTransferred","inputs":[{"name":"previousOwner","type":"address","indexed":true,"internalType":"address"},{"name":"newOwner","type":"address","indexed":true,"internalType":"address"}],"anonymous":false},{"type":"event","name":"PairTransfer","inputs":[{"name":"from","type":"address","indexed":true,"internalType":"address"},{"name":"to","type":"address","indexed":true,"internalType":"address"},{"name":"value","type":"uint256","indexed":false,"internalType":"uint256"}],"anonymous":false},{"type":"event","name":"Transfer","inputs":[{"name":"from","type":"address","indexed":true,"internalType":"address"},{"name":"to","type":"address","indexed":true,"internalType":"address"},{"name":"value","type":"uint256","indexed":false,"internalType":"uint256"}],"anonymous":false},{"type":"event","name":"Withdraw","inputs":[{"name":"account","type":"address","indexed":false,"internalType":"address"},{"name":"claimedAmount","type":"uint256","indexed":false,"internalType":"uint256"},{"name":"balance","type":"uint256","indexed":false,"internalType":"uint256"}],"anonymous":false}],"bytecode":{"object":"0x60806040526004805461ffff19166106121790553480156200002057600080fd5b5060405162002ac338038062002ac3833981016040819052620000439162000213565b60016000556200005333620000df565b600262000061888262000360565b50600362000070878262000360565b506005859055600680546001600160a01b038087166001600160a01b031992831617909255600780548684169083161790556008805485841690831617905560098054928416929091168217905515620000d257600c805460ff191660011790555b505050505050506200042c565b600180546001600160a01b038381166001600160a01b0319831681179093556040519116919082907f8be0079c531659141344cd1fd0a4f28419497f9722a3daafe3b4186f6b6457e090600090a35050565b634e487b7160e01b600052604160045260246000fd5b600082601f8301126200015957600080fd5b81516001600160401b038082111562000176576200017662000131565b604051601f8301601f19908116603f01168101908282118183101715620001a157620001a162000131565b81604052838152602092508683858801011115620001be57600080fd5b600091505b83821015620001e25785820183015181830184015290820190620001c3565b600093810190920192909252949350505050565b80516001600160a01b03811681146200020e57600080fd5b919050565b600080600080600080600060e0888a0312156200022f57600080fd5b87516001600160401b03808211156200024757600080fd5b620002558b838c0162000147565b985060208a01519150808211156200026c57600080fd5b506200027b8a828b0162000147565b965050604088015194506200029360608901620001f6565b9350620002a360808901620001f6565b9250620002b360a08901620001f6565b9150620002c360c08901620001f6565b905092959891949750929550565b600181811c90821680620002e657607f821691505b6020821081036200030757634e487b7160e01b600052602260045260246000fd5b50919050565b601f8211156200035b57600081815260208120601f850160051c81016020861015620003365750805b601f850160051c820191505b81811015620003575782815560010162000342565b5050505b505050565b81516001600160401b038111156200037c576200037c62000131565b62000394816200038d8454620002d1565b846200030d565b602080601f831160018114620003cc5760008415620003b35750858301515b600019600386901b1c1916600185901b17855562000357565b600085815260208120601f198616915b82811015620003fd57888601518255948401946001909101908401620003dc565b50858210156200041c5787850151600019600388901b60f8161c191681555b5050505050600190811b01905550565b612687806200043c6000396000f3fe608060405234801561001057600080fd5b506004361061030c5760003560e01c806370a082311161019d578063b5ff136d116100e9578063d89b7007116100a2578063f2fde38b1161007c578063f2fde38b14610723578063f421f62a14610736578063f6d6d5aa14610749578063f713c2301461075c57600080fd5b8063d89b7007146106e7578063dd62ed3e146106fa578063e3ecc4b21461071057600080fd5b8063b5ff136d1461065b578063b6b55f251461067b578063b71bce2a1461068e578063d0b038b7146106ae578063d5a73fdd146106c1578063d75abb57146106d457600080fd5b80638da5cb5b116101565780639cb7de4b116101305780639cb7de4b1461061b578063a2545fa51461062e578063a9059cbb14610365578063acf077a51461064e57600080fd5b80638da5cb5b146105ef578063930354731461060057806395d89b411461061357600080fd5b806370a082311461055957806371417b3214610582578063715018a6146105a25780637337035c146105aa5780637bf42165146105ca5780637cf8f3b2146105dc57600080fd5b8063313ce5671161025c57806341f22724116102155780634e71d92d116101ef5780634e71d92d1461050b5780635d50e7291461051357806369de9b93146105335780636bcb411a1461054657600080fd5b806341f22724146104c257806345f01ee6146104d557806346ea87af146104e857600080fd5b8063313ce56714610442578063342fcda914610461578063387a785d146104745780633ccfd60b146104945780633de35b791461049c578063402914f5146104af57600080fd5b80631514617e116102c957806323b872dd116102a357806323b872dd146103d657806324c5e303146103e457806327e235e3146103f757806328bc83e71461041757600080fd5b80631514617e146103bb57806315e90a41146103c457806318160ddd146103cd57600080fd5b806301e336671461031157806306fdde031461032657806308f26c7614610344578063095ea7b3146103655780630db9ea4a1461038857806313e82e7a146103a8575b600080fd5b61032461031f366004612124565b61076f565b005b61032e610790565b60405161033b9190612184565b60405180910390f35b6103576103523660046121b7565b61081e565b60405190815260200161033b565b6103786103733660046121d2565b61092c565b604051901515815260200161033b565b6103576103963660046121b7565b60116020526000908152604090205481565b6103576103b63660046121fc565b61097c565b61035760055481565b610357600b5481565b610357600a5481565b610378610373366004612124565b6103246103f2366004612245565b6109c3565b6103576104053660046121b7565b600d6020526000908152604090205481565b60065461042a906001600160a01b031681565b6040516001600160a01b03909116815260200161033b565b60045461044f9060ff1681565b60405160ff909116815260200161033b565b61032461046f3660046121d2565b610bda565b6103576104823660046121b7565b60146020526000908152604090205481565b610324610c13565b60075461042a906001600160a01b031681565b6103576104bd3660046121b7565b610db8565b6103246104d03660046121d2565b610e09565b6103576104e33660046121b7565b610e5b565b6103786104f63660046121b7565b60166020526000908152604090205460ff1681565b610357610ff7565b6103576105213660046121b7565b600e6020526000908152604090205481565b61032461054136600461230c565b611034565b60095461042a906001600160a01b031681565b6103576105673660046121b7565b6001600160a01b03166000908152600d602052604090205490565b6103576105903660046121b7565b60106020526000908152604090205481565b61032461104f565b6103576105b83660046121b7565b60126020526000908152604090205481565b60045461044f90610100900460ff1681565b6103576105ea3660046121d2565b611063565b6001546001600160a01b031661042a565b61035761060e3660046121b7565b6110dd565b61032e61110a565b610324610629366004612329565b611117565b61035761063c3660046121b7565b60156020526000908152604090205481565b600c546103789060ff1681565b6103576106693660046121b7565b600f6020526000908152604090205481565b610324610689366004612360565b61114a565b61035761069c3660046121b7565b60136020526000908152604090205481565b6103246106bc3660046121d2565b611183565b6103576106cf3660046121b7565b6111d5565b6007546001600160a01b03161515610378565b6103246106f53660046121d2565b611203565b6103576107083660046121fc565b600092915050565b61032461071e3660046121d2565b611255565b6103246107313660046121b7565b6112a7565b6009546001600160a01b03161515610378565b60085461042a906001600160a01b031681565b61032461076a3660046121fc565b611320565b61077761145e565b61078b6001600160a01b03841683836114b8565b505050565b6002805461079d90612379565b80601f01602080910402602001604051908101604052809291908181526020018280546107c990612379565b80156108165780601f106107eb57610100808354040283529160200191610816565b820191906000526020600020905b8154815290600101906020018083116107f957829003601f168201915b505050505081565b60006108346009546001600160a01b0316151590565b61084057506000919050565b6001600160a01b038281166000818152601360209081526040808320546015909252808320546009549151633792def360e01b8152600481019590955291949193911690633792def390602401602060405180830381865afa1580156108aa573d6000803e3d6000fd5b505050506040513d601f19601f820116820180604052508101906108ce91906123b3565b905060006108e6836108e0848761151b565b9061151b565b6001600160a01b03871660009081526014602052604090205490915080821015610917575060009695505050505050565b6109218282611581565b979650505050505050565b60405162461bcd60e51b815260206004820152601960248201527f5665737465723a206e6f6e2d7472616e736665727261626c650000000000000060448201526000906064015b60405180910390fd5b60006002600054036109a05760405162461bcd60e51b8152600401610973906123cc565b60026000556109ad6115c3565b6109b78383611616565b60016000559392505050565b6002600054036109e55760405162461bcd60e51b8152600401610973906123cc565b60026000556109f26115c3565b60005b8151811015610bd1576000828281518110610a1257610a12612403565b602002602001015190506000819050610a2b8282611616565b506001600160a01b0382166000908152600f6020908152604080832054600d9092528220549091610a5c828461151b565b905060008111610aae5760405162461bcd60e51b815260206004820152601d60248201527f5665737465723a2076657374656420616d6f756e74206973207a65726f0000006044820152606401610973565b6007546001600160a01b031615610b29576001600160a01b0385166000908152600e6020526040902054610ae286826116c7565b600454610b27908690610aff9060ff61010082048116911661242f565b610b0a90600a61252c565b610b14908461253b565b6007546001600160a01b031691906114b8565b505b600654610b40906001600160a01b031685846114b8565b610b4a8583611799565b6001600160a01b0385166000818152600f602090815260408083208390556010825280832083905560118252808320929092558151928352820185905281018390527ff279e6a1f5e320cca91135676d9cb6e44ca8a08c0b88342bcdb1144f6511b5689060600160405180910390a150505050508080610bc99061255d565b9150506109f5565b50506001600055565b600260005403610bfc5760405162461bcd60e51b8152600401610973906123cc565b6002600055610c096115c3565b610bd18282611863565b600260005403610c355760405162461bcd60e51b8152600401610973906123cc565b60026000553380610c468180611616565b506001600160a01b0382166000908152600f6020908152604080832054600d9092528220549091610c77828461151b565b905060008111610cc95760405162461bcd60e51b815260206004820152601d60248201527f5665737465723a2076657374656420616d6f756e74206973207a65726f0000006044820152606401610973565b6007546001600160a01b031615610d1c576001600160a01b0385166000908152600e6020526040902054610cfd86826116c7565b600454610d1a908690610aff9060ff61010082048116911661242f565b505b600654610d33906001600160a01b031685846114b8565b610d3d8583611799565b6001600160a01b0385166000818152600f602090815260408083208390556010825280832083905560118252808320929092558151928352820185905281018390527ff279e6a1f5e320cca91135676d9cb6e44ca8a08c0b88342bcdb1144f6511b5689060600160405180910390a150506001600055505050565b6001600160a01b038116600090815260106020908152604080832054600f9092528220548291610de89190611581565b90506000610df584611a55565b9050610e01828261151b565b949350505050565b600260005403610e2b5760405162461bcd60e51b8152600401610973906123cc565b6002600055610e386115c3565b6001600160a01b0390911660009081526015602052604081209190915560019055565b600954604051633792def360e01b81526001600160a01b0383811660048301526000928392911690633792def390602401602060405180830381865afa158015610ea9573d6000803e3d6000fd5b505050506040513d601f19601f82011682018060405250810190610ecd91906123b3565b6001600160a01b038416600090815260136020526040812054919250610ef3838361151b565b905080600003610f0857506000949350505050565b60095460405163a318021760e01b81526001600160a01b038781166004830152600092169063a318021790602401602060405180830381865afa158015610f53573d6000803e3d6000fd5b505050506040513d601f19601f82011682018060405250810190610f7791906123b3565b600454909150600090610faa90610f989060ff61010082048116911661242f565b610fa390600a61252c565b8390611aed565b6001600160a01b038816600090815260126020526040902054909150610feb610fdd85610fd78489611aed565b90611b6f565b6108e086610fd7868b611aed565b98975050505050505050565b600060026000540361101b5760405162461bcd60e51b8152600401610973906123cc565b600260005561102a3380611616565b9050600160005590565b61103c61145e565b600c805460ff1916911515919091179055565b61105761145e565b6110616000611bb1565b565b60006110796009546001600160a01b0316151590565b611085575060006110d7565b600061109084610e5b565b9050806000036110a45760009150506110d7565b60006110af8561081e565b9050806000036110c4576000925050506110d7565b6110d281610fd78685611aed565b925050505b92915050565b6001600160a01b0381166000908152600f6020908152604080832054600d9092528220546110d79161151b565b6003805461079d90612379565b61111f61145e565b6001600160a01b03919091166000908152601660205260409020805460ff1916911515919091179055565b60026000540361116c5760405162461bcd60e51b8152600401610973906123cc565b600260005561117b3382611863565b506001600055565b6002600054036111a55760405162461bcd60e51b8152600401610973906123cc565b60026000556111b26115c3565b6001600160a01b0390911660009081526013602052604081209190915560019055565b6001600160a01b0381166000908152600d6020908152604080832054600f909252822054610e01828261151b565b6002600054036112255760405162461bcd60e51b8152600401610973906123cc565b60026000556112326115c3565b6001600160a01b0390911660009081526014602052604081209190915560019055565b6002600054036112775760405162461bcd60e51b8152600401610973906123cc565b60026000556112846115c3565b6001600160a01b0390911660009081526012602052604081209190915560019055565b6112af61145e565b6001600160a01b0381166113145760405162461bcd60e51b815260206004820152602660248201527f4f776e61626c653a206e6577206f776e657220697320746865207a65726f206160448201526564647265737360d01b6064820152608401610973565b61131d81611bb1565b50565b6002600054036113425760405162461bcd60e51b8152600401610973906123cc565b600260005561134f6115c3565b61135882610e5b565b6001600160a01b038281166000908152601260209081526040808320949094558583168083528483208390556013909152838220546009549451633792def360e01b815260048101929092529391929190911690633792def390602401602060405180830381865afa1580156113d2573d6000803e3d6000fd5b505050506040513d601f19601f820116820180604052508101906113f691906123b3565b9050611402828261151b565b6001600160a01b0393841660008181526013602081815260408084209590955597909616808252601488528382209490945594865281852085905560159095528084208054958552908420949094558252509081905560019055565b6001546001600160a01b031633146110615760405162461bcd60e51b815260206004820181905260248201527f4f776e61626c653a2063616c6c6572206973206e6f7420746865206f776e65726044820152606401610973565b6040516001600160a01b03831660248201526044810182905261078b90849063a9059cbb60e01b906064015b60408051601f198184030181529190526020810180516001600160e01b03166001600160e01b031990931692909217909152611c03565b6000806115288385612576565b90508381101561157a5760405162461bcd60e51b815260206004820152601b60248201527f536166654d6174683a206164646974696f6e206f766572666c6f7700000000006044820152606401610973565b9392505050565b600061157a83836040518060400160405280601e81526020017f536166654d6174683a207375627472616374696f6e206f766572666c6f770000815250611cd5565b3360009081526016602052604090205460ff166110615760405162461bcd60e51b81526020600482015260116024820152702b32b9ba32b91d103337b93134b23232b760791b6044820152606401610973565b600061162183611d0f565b600061162c84610db8565b6001600160a01b038516600090815260106020526040902054909150611652908261151b565b6001600160a01b0380861660009081526010602052604090209190915560085461167e911684836114b8565b604080516001600160a01b0386168152602081018390527f47cee97cb7acd717b3c0aa1435d004cd5b3c8c57d70dbceb4e4458bbd60e39d4910160405180910390a19392505050565b6001600160a01b0382166116ed5760405162461bcd60e51b815260040161097390612589565b61172a8160405180606001604052806023815260200161262f602391396001600160a01b0385166000908152600e60205260409020549190611cd5565b6001600160a01b0383166000908152600e6020526040902055600b546117509082611581565b600b556040518181526000906001600160a01b038416907f659523c479d006050ebc0d0e48fea36d1b2c5d45b2f31402ac6f8671fc84cc04906020015b60405180910390a35050565b6001600160a01b0382166117bf5760405162461bcd60e51b815260040161097390612589565b6117fc8160405180606001604052806023815260200161262f602391396001600160a01b0385166000908152600d60205260409020549190611cd5565b6001600160a01b0383166000908152600d6020526040902055600a546118229082611581565b600a556040518181526000906001600160a01b038416907fddf252ad1be2c89b69c2b068fc378daa952ba7f163c4a11628f55a4df523b3ef9060200161178d565b600081116118b35760405162461bcd60e51b815260206004820152601760248201527f5665737465723a20696e76616c6964205f616d6f756e740000000000000000006044820152606401610973565b6118bc82611d0f565b6006546118d4906001600160a01b0316833084611ded565b6118de8282611e2b565b6007546001600160a01b031615611991576001600160a01b0382166000908152600e6020908152604080832054600d909252822054909190611921908590611063565b90508181111561198e5760006119378284611581565b60045490915061198290869030906119599060ff61010082048116911661242f565b61196490600a61252c565b61196e908561253b565b6007546001600160a01b0316929190611ded565b61198c8582611f05565b505b50505b600c5460ff1615611a0f5760006119a78361081e565b9050806119b3846110dd565b1115611a0d5760405162461bcd60e51b8152602060048201526024808201527f5665737465723a206d6178207665737461626c6520616d6f756e7420657863656044820152631959195960e21b6064820152608401610973565b505b604080516001600160a01b0384168152602081018390527fe1fffcc4923d04b559f4d29a8bfc6cda04eb5b0d3c460751c2402c5c5cc9109c910160405180910390a15050565b6001600160a01b0381166000908152601160205260408120548190611a7b904290611581565b6001600160a01b0384166000908152600d6020526040812054919250819003611aa8575060009392505050565b6000611ab3856111d5565b90506000611ad0600554610fd78685611aed90919063ffffffff16565b905082811015611ae35795945050505050565b5090949350505050565b600082600003611aff575060006110d7565b6000611b0b83856125cb565b905082611b18858361253b565b1461157a5760405162461bcd60e51b815260206004820152602160248201527f536166654d6174683a206d756c7469706c69636174696f6e206f766572666c6f6044820152607760f81b6064820152608401610973565b600061157a83836040518060400160405280601a81526020017f536166654d6174683a206469766973696f6e206279207a65726f000000000000815250611fdf565b600180546001600160a01b038381166001600160a01b0319831681179093556040519116919082907f8be0079c531659141344cd1fd0a4f28419497f9722a3daafe3b4186f6b6457e090600090a35050565b6000611c58826040518060400160405280602081526020017f5361666545524332303a206c6f772d6c6576656c2063616c6c206661696c6564815250856001600160a01b031661200d9092919063ffffffff16565b80519091501561078b5780806020019051810190611c7691906125e2565b61078b5760405162461bcd60e51b815260206004820152602a60248201527f5361666545524332303a204552433230206f7065726174696f6e20646964206e6044820152691bdd081cdd58d8d9595960b21b6064820152608401610973565b60008184841115611cf95760405162461bcd60e51b81526004016109739190612184565b506000611d0684866125ff565b95945050505050565b6000611d1a82611a55565b6001600160a01b0383166000908152601160205260408120429055909150819003611d43575050565b611d4d8282611799565b6001600160a01b0382166000908152600f6020526040902054611d70908261151b565b6001600160a01b038381166000908152600f602052604090819020929092556006549151632770a7eb60e21b815230600482015260248101849052911690639dc29fac90604401600060405180830381600087803b158015611dd157600080fd5b505af1158015611de5573d6000803e3d6000fd5b505050505050565b6040516001600160a01b0380851660248301528316604482015260648101829052611e259085906323b872dd60e01b906084016114e4565b50505050565b6001600160a01b038216611e815760405162461bcd60e51b815260206004820181905260248201527f5665737465723a206d696e7420746f20746865207a65726f20616464726573736044820152606401610973565b600a54611e8e908261151b565b600a556001600160a01b0382166000908152600d6020526040902054611eb4908261151b565b6001600160a01b0383166000818152600d60205260408082209390935591519091907fddf252ad1be2c89b69c2b068fc378daa952ba7f163c4a11628f55a4df523b3ef9061178d9085815260200190565b6001600160a01b038216611f5b5760405162461bcd60e51b815260206004820181905260248201527f5665737465723a206d696e7420746f20746865207a65726f20616464726573736044820152606401610973565b600b54611f68908261151b565b600b556001600160a01b0382166000908152600e6020526040902054611f8e908261151b565b6001600160a01b0383166000818152600e60205260408082209390935591519091907f659523c479d006050ebc0d0e48fea36d1b2c5d45b2f31402ac6f8671fc84cc049061178d9085815260200190565b600081836120005760405162461bcd60e51b81526004016109739190612184565b506000611d06848661253b565b6060610e01848460008585843b6120665760405162461bcd60e51b815260206004820152601d60248201527f416464726573733a2063616c6c20746f206e6f6e2d636f6e74726163740000006044820152606401610973565b600080866001600160a01b031685876040516120829190612612565b60006040518083038185875af1925050503d80600081146120bf576040519150601f19603f3d011682016040523d82523d6000602084013e6120c4565b606091505b5091509150610921828286606083156120de57508161157a565b8251156120ee5782518084602001fd5b8160405162461bcd60e51b81526004016109739190612184565b80356001600160a01b038116811461211f57600080fd5b919050565b60008060006060848603121561213957600080fd5b61214284612108565b925061215060208501612108565b9150604084013590509250925092565b60005b8381101561217b578181015183820152602001612163565b50506000910152565b60208152600082518060208401526121a3816040850160208701612160565b601f01601f19169190910160400192915050565b6000602082840312156121c957600080fd5b61157a82612108565b600080604083850312156121e557600080fd5b6121ee83612108565b946020939093013593505050565b6000806040838503121561220f57600080fd5b61221883612108565b915061222660208401612108565b90509250929050565b634e487b7160e01b600052604160045260246000fd5b6000602080838503121561225857600080fd5b823567ffffffffffffffff8082111561227057600080fd5b818501915085601f83011261228457600080fd5b8135818111156122965761229661222f565b8060051b604051601f19603f830116810181811085821117156122bb576122bb61222f565b6040529182528482019250838101850191888311156122d957600080fd5b938501935b82851015610feb576122ef85612108565b845293850193928501926122de565b801515811461131d57600080fd5b60006020828403121561231e57600080fd5b813561157a816122fe565b6000806040838503121561233c57600080fd5b61234583612108565b91506020830135612355816122fe565b809150509250929050565b60006020828403121561237257600080fd5b5035919050565b600181811c9082168061238d57607f821691505b6020821081036123ad57634e487b7160e01b600052602260045260246000fd5b50919050565b6000602082840312156123c557600080fd5b5051919050565b6020808252601f908201527f5265656e7472616e637947756172643a207265656e7472616e742063616c6c00604082015260600190565b634e487b7160e01b600052603260045260246000fd5b634e487b7160e01b600052601160045260246000fd5b60ff82811682821603908111156110d7576110d7612419565b600181815b8085111561248357816000190482111561246957612469612419565b8085161561247657918102915b93841c939080029061244d565b509250929050565b60008261249a575060016110d7565b816124a7575060006110d7565b81600181146124bd57600281146124c7576124e3565b60019150506110d7565b60ff8411156124d8576124d8612419565b50506001821b6110d7565b5060208310610133831016604e8410600b8410161715612506575081810a6110d7565b6125108383612448565b806000190482111561252457612524612419565b029392505050565b600061157a60ff84168361248b565b60008261255857634e487b7160e01b600052601260045260246000fd5b500490565b60006001820161256f5761256f612419565b5060010190565b808201808211156110d7576110d7612419565b60208082526022908201527f5665737465723a206275726e2066726f6d20746865207a65726f206164647265604082015261737360f01b606082015260800190565b80820281158282048414176110d7576110d7612419565b6000602082840312156125f457600080fd5b815161157a816122fe565b818103818111156110d7576110d7612419565b60008251612624818460208701612160565b919091019291505056fe5665737465723a206275726e20616d6f756e7420657863656564732062616c616e6365a26469706673582212206e7595729379f490d0e30a9b55e51df09d6ee901eca87d2f3a3aeb0bcce1518b64736f6c63430008140033","linkReferences":{}},"methodIdentifiers":{"allowance(address,address)":"dd62ed3e","approve(address,uint256)":"095ea7b3","balanceOf(address)":"70a08231","balances(address)":"27e235e3","bonusRewards(address)":"a2545fa5","claim()":"4e71d92d","claimForAccount(address,address)":"13e82e7a","claimable(address)":"402914f5","claimableToken()":"f6d6d5aa","claimedAmounts(address)":"71417b32","cumulativeClaimAmounts(address)":"b5ff136d","cumulativeRewardDeductions(address)":"387a785d","decimals()":"313ce567","deposit(uint256)":"b6b55f25","depositForAccount(address,uint256)":"342fcda9","fidToken()":"28bc83e7","getCombinedAverageStakedAmount(address)":"45f01ee6","getMaxVestableAmount(address)":"08f26c76","getPairAmount(address,uint256)":"7cf8f3b2","getTotalVested(address)":"93035473","getVestedAmount(address)":"d5a73fdd","hasMaxVestableAmount()":"acf077a5","hasPairToken()":"d75abb57","hasRewardTracker()":"f421f62a","isHandler(address)":"46ea87af","lastVestingTimes(address)":"0db9ea4a","name()":"06fdde03","owner()":"8da5cb5b","pairAmounts(address)":"5d50e729","pairSupply()":"15e90a41","pairToken()":"3de35b79","renounceOwnership()":"715018a6","rewardTracker()":"6bcb411a","setBonusRewards(address,uint256)":"41f22724","setCumulativeRewardDeductions(address,uint256)":"d89b7007","setHandler(address,bool)":"9cb7de4b","setHasMaxVestableAmount(bool)":"69de9b93","setTransferredAverageStakedAmounts(address,uint256)":"e3ecc4b2","setTransferredCumulativeRewards(address,uint256)":"d0b038b7","symbol()":"95d89b41","totalSupply()":"18160ddd","transfer(address,uint256)":"a9059cbb","transferFrom(address,address,uint256)":"23b872dd","transferOwnership(address)":"f2fde38b","transferStakeValues(address,address)":"f713c230","transferredAverageStakedAmounts(address)":"7337035c","transferredCumulativeRewards(address)":"b71bce2a","usdcDecimals()":"7bf42165","vestingDuration()":"1514617e","withdraw()":"3ccfd60b","withdrawForAccounts(address[])":"24c5e303","withdrawToken(address,address,uint256)":"01e33667"},"id":7}